:020000040000fa
:080000000002040000000000f2
:020000040000fa
:100400004fd82000007f2400000188000000000079
:100410000c00070040d4220001002000110007005a
:10042000000020000000e000020032000000020096
:10043000000000006a2a0200000000000040da000c
:100440000000fe004440a900400c20000000e00035
:100450000300320000002000a00188004440a800f2
:100460000000060091018800800078000000eb0089
:1004700015003700e280400032a0b4009101ba00bc
:10048000e280400032a0b4009102ba00e280400055
:1004900032a0b4000002eb00472bde00f507b200eb
:1004a000602ce10004003a000059eb008301e900f0
:1004b000fdff3e00040037006128e100010032002a
:1004c0000082eb00040007001101ba000200e00006
:1004d000e8ff3a00000006003159ba008301e90044
:1004e0000c0032002159ba008301e90008003200f3
:1004f0000400e00003003a00e280400032a0b400b3
:10050000f5ff370011d9ba008301e900faff3a007c
:100510008100e800e180400032a0b4000000060045
:1005200000000000000000000000000000000000cb
:1005300000000000000000000000000000000000bb
:1005400000000000000000000000000000000000ab
:10055000000000000000000000000000000000009b
:100560008001eb000200370061f079008301e800b0
:10057000828f5100fcff3a00000006008001eb0072
:1005800002003700817178008301e800828f5100fa
:10059000fcff3a00000006008000780001003700f0
:1005a0000000e8001004e000fdff3a0001005000e8
:1005b000000006000002b10003003500e005b100b4
:1005c00001003c001000050000000500881f7800b5
:1005d00002047800e2ff0700080040004f047800a2
:1005e000000006000000fa00881f78000004780070
:1005f0003fb99700ea81570080007800602e200004
:1006000045000700800078000000e000020035008f
:100610000040eb0000f47800010078004f047800ff
:100620000080fa0000000600e1ae2000f3000700a1
:100630000000e00006003500e1ae2000a000200030
:10064000340107008000eb000000e00001003d00e5
:100650008080eb000100780000000600889fbe004b
:100660008004780001007800020478008901780095
:10067000110020004d010700880f500001003200da
:100680008004eb00090078004f04be000000060063
:100690000000fa004fb99700e8815700e1ae200052
:1006a000e03220001c0007000080fa000000060075
:1006b000800178000001780031407800005978000e
:1006c0000004e000fcff3a00030078000000060090
:1006d000000278000000eb000b0037009441780026
:1006e00091cf5100030032000080eb000900390077
:1006f000100005000000e8000304e00004003200e0
:100700000402e8008100e800820f5000f3ff3a0085
:100710000000eb00000006006200fa00889fbe00a7
:100720008a9fbe000004be000205780083007800a6
:1007300060f92f000f0040007101070088979f00ab
:1007400099979f000000eb00a09f9f009a457800ba
:100750000b80fb000000ea00cf04de0050c2b300b3
:1007600080cf5500020032000904780001003700f4
:100770000904e9000800e0000b0034001f90970016
:10078000080178008a0078008f919700030001002b
:1007900090979f000000e000930032002f98970090
:1007a00000004400a09f9f000905450050c2b3000f
:1007b00080cf5500040032000b04e000e3ff3a0054
:1007c0002f989700890037000000eb00809f9f0062
:1007d000f0979f00e0979f00d0979f00c0979f00e1
:1007e000b0979f00c09f9f0009003700c0b620004f
:1007f000008050000000400001b62000e1007800b9
:100800004f98970001007000c09f9f000a05e80004
:100810001a4478008800fb00c0b620003d010700a4
:10082000800078000000e000f0ff3a00a0c2b300b2
:10083000804f54000e003a00bf8897000180e90005
:10084000b08f9f0010007800b09f9f000000e00074
:1008500005003d000000ea00b09f9f004f98970000
:100860000020a000c09f9f000a05e800100037008c
:10087000b19f9f0009003700bf989700f0ff270045
:10088000808f5000040032006a08b9000000410067
:1008900003004000b09f9f000a05e8001a01fb001a
:1008a00003fd2f0003004100e90f5000f2ff360066
:1008b000e0c2b3009a4f1000040032000080eb0049
:1008c000909f9f008a0478001c0037008a04e8008b
:1008d000a0c2b300994f100007003a00bf889700ec
:1008e0000180e900b08f9f0010007800909f9f006a
:1008f0008a84e800110037000000eb00909f9f0001
:10090000090037009f989700f0ff2700808f500064
:10091000040032006a08b9000000410003004000f2
:10092000909f9f008904e8001901fb0003fd2f0040
:1009300003004100e90f5000f2ff3600194478002f
:100940008800fb0020b72000f20007000000e00054
:1009500002003a0000447800010037008904e800f2
:10096000a87f9f0080c6b300804f540004003a0067
:10097000994f14000a003a00664050000600370004
:10098000c0c6b300804f540005003a00994f1400d0
:1009900003003a0065404000a07f9f008904e80002
:1009a0000905e800cbfb2f008f8545001901fb00ee
:1009b00060f92f000f0040000084e8008b017800f0
:1009c0008000780008007800db0007000000e000ed
:1009d00005003a008b007800080078001902070033
:1009e0000000e00059ff3d000080eb004f05be0015
:1009f0004f04be000080fa0000000600889fbe0081
:100a00008a9fbe0000057800810478002d00370021
:100a1000c900900069009000808f500004003900e8
:100a200009007800d10207000000e0003500350021
:100a3000004020001900600009003200a1002000e1
:100a40000a0078000c030700800578000000e00031
:100a5000040032000a0050000004e80004003700df
:100a6000800578000a007800cbfe070000047800bb
:100a7000c90190006900900003005000880f5000e9
:100a800002003100000478008005eb0008017800c6
:100a90008a00780003007800b1fe070008054500d1
:100aa0004900900000004400c00498000b00e000e2
:100ab0000400320009007800fa0207000000e0009c
:100ac00010003a001a04e000d1ff3a000080200034
:100ad000190060000400320009007800f1020700ec
:100ae0000000e00007003a0000c02000190060008c
:100af0000500320049009000e00498000000eb007f
:100b0000010037000080eb004f05be004f04be001f
:100b100000000600889fbe008a1f780080047800cd
:100b20000104780000457800c10090006800900042
:100b3000808f500004003900080078008b02070005
:100b40000000e000150035004800900009587800ca
:100b5000400498001800780000b8a30004003a0090
:100b600000a8a30006003200ea4f550004003a0036
:100b700008007800cb0207000000e00007003a0000
:100b800000c0200018006000020032004800900001
:100b9000600498000a80fb00010037000080eb0031
:100ba0004f0578004f04be0000000600889fbe007d
:100bb0008a9fbe008c9fbe008e1f78008106780041
:100bc00083047800000678000288b90000077800e6
:100bd0000000e00002003a00000178004200370007
:100be0000d00e0004000320000057800c9009000d0
:100bf00069009000808f50000400390009007800df
:100c00005a0207000000e0002900350000402000e3
:100c10001900600003003a000a047800800578009b
:100c20000b0037000a017800a10020000c007800ba
:100c3000d9020700800578000000e00002003a00b9
:100c40000a047800020037000c0050000004e8009d
:100c5000c90190006900900003005000880f500007
:100c600002003100000478008005eb0008017800e4
:100c70008c0078000300780039fe07000806460063
:100c8000080555004900900000004400c004980089
:100c90000b00e00004003200090078008102070028
:100ca0000000e00002003a000a00e000cfff3a0036
:100cb0000080200019006000020032000900780066
:100cc0007802070000c02000190060000200320016
:100cd00049009000e00498000a0057001100090044
:100ce0000d80d80000017800020078004f077800de
:100cf0004f06be004f05be004f04be0000000600b8
:100d00000200fa00f1bf9f00010878000080fa009d
:100d100000000600040037000204e00001003a0071
:100d2000000005000000e80010417800814f5100ec
:100d3000f9ff3a0000000600889fbe008a1f780075
:100d400000047800010278008244780003057800ee
:100d5000e0c6b300804f5100d200320015003c00c5
:100d60006b405000804f5100240032000a003c00cc
:100d700070405000804f51000f013200654040002c
:100d8000804f51007400320050c2b300804f5100b8
:100d900020013a001c01370040c6b300804f5100cb
:100da0001b00320065404000804f510019013a009d
:100db0001700370030c7b300804f5100fe003200eb
:100dc00007003c0064405000804f51006200320038
:100dd0000040e800804f51000e013a00e700370064
:100de00050c7b300804f51005b00320063404000a9
:100df000804f510007013a00570037009180e90009
:100e0000010a78007800900091717800070137009e
:100e1000a8609000c0c6b30080cf50000a003a001e
:100e20009400780064805000000a78001000be0032
:100e30004f89de00cf91de000002be000203780081
:100e4000820378001300370010c7b30080cf500032
:100e500003003200a0c6b30080cf500006003a0065
:100e60009400780068805000000a78003002be00cc
:100e70002003be00070037001480e900000a780054
:100e80001000780000027800cfa2de000503780091
:100e900086037800049cbe000694be00a860900003
:100ea00080c6b30080cf50000e00320020c6b300d1
:100eb00080cf500005003a000400fb00cf80de0028
:100ec00001017800820178000a00370040c7b300b2
:100ed00080cf5000030032006640400080cf5000b9
:100ee00006003a0004007800cf80de00010178009f
:100ef00082017800009cbe000294be003800be0053
:100f00002801be00e00f5000e08f5800e00f5900ac
:100f1000e08f590003003d0078009000d1c2b3007b
:100f20000a003700081090000018a30003003200e8
:100f300078009000b1c2b300040037000008a3009d
:100f4000530032007800900001c2b30001757800b0
:100f50000000e8004d003700a8609000c0c6b30054
:100f600080cf500006003a00940078006480500062
:100f7000000a78001002be006033b800130037008a
:100f800010c7b30080cf500003003200a0c6b300ea
:100f900080cf500006003a0094007800688050002e
:100fa000000a78003002be002003be0007003700b0
:100fb0001480e900000a7800100078000002780030
:100fc000050020000600200007002000049cbe0051
:100fd0000694be00a860900080c6b30080cf500089
:100fe0000e00320020c6b30080cf500005003a004a
:100ff0000480fb000100200002002000030020000c
:101000000a00370040c7b30080cf50000300320011
:101010006640400080cf500006003a00040078008f
:10102000010020000200200003002000009cbe0000
:101030000294be00081090000038a3001400320093
:101040003800be002801be00e00f5000e08f5800bd
:10105000e00f5900e08f59000d00320080c7b30047
:1010600080cf54000300320080c5b30080cf54000d
:1010700007003a007800900001c3b30001757800c2
:101080008000e80009f578000080e800700498000e
:1010900078009000000045006004980089407800c6
:1010a00042003700a8609000c0c6b30080cf500057
:1010b000250032000a003c006440500080cf500000
:1010c0002800320000c0e80080cf50001400320039
:1010d0006840500080cf500022003a000a003700dc
:1010e00040c7b30080cf50001e0032006640400071
:1010f00080cf50001b0032006940500080cf50006c
:1011000018003a00060037001480e900000a780051
:1011100010007800485c90000848780045003700cf
:101120001480e900000a7800100278006808900036
:10113000cf80de000101780082017800009abe00b5
:101140000292be003b0037001480e900000a7800dc
:101150001001780068089000cf80de000089be0092
:10116000340037001480e900000a7800100078008d
:10117000680c9000080878002e0037001180e90004
:101180008008780010007800cf80de000101780030
:1011900082017800009cbe000294be00780090009e
:1011a000000045006004980081c7b3000800780083
:1011b000830107001f0037001480e900000a78004f
:1011c0001000780060049800580990000200e000c8
:1011d00002003d00f0fc0700090037008000eb0032
:1011e0006d010700800078000000e000030032007d
:1011f00068009000008050000100370058089000ff
:10120000100c98000b0037007800900002757800f1
:101210000600370078009000800045000904e000d7
:1012200001003a0059c2b300894878000000e80084
:10123000700498000000eb004f0578004f04be00da
:10124000000006000400fa00889fbe008a9fbe00ce
:101250008c1f780000047800010678007008900068
:10126000f800900001005000880890000100500034
:101270009808900001005000a8089000010050005c
:10128000b808900001005000c80890008105500087
:101290000002220090bf9f0000032300a0bf9f0018
:1012a000081090000028a30018003a000b00e0008e
:1012b000160034008b04780009057800e28f540092
:1012c000020036002a002000020037000900e0007a
:1012d0000b00340058009000c80190000a0178000b
:1012e000ee80570003000100500498000000e00069
:1012f000960032006808900000004500600c9800dd
:101300008a8454004240a900ebff3c007801900021
:101310000200e0000b00340058009000c80190006b
:101320008c00780003000100500498000000e000e9
:101330008600320068089000f8009000010040002c
:10134000600c9800880c90000900e0001500340043
:1013500009057800e28f5400020036002a002000c0
:10136000020037000900e0000b0034005800900034
:10137000c80190000a017800ec80570003000100ca
:10138000500498000000e0007000320068089000ef
:1013900000004500600c98008a8454004240a90077
:1013a000ebff3c00180990000200e0000b00340045
:1013b000e800900058009000c80190000300010070
:1013c000500498000000e0006000320068089000bf
:1013d0009808900001004000600c9800a80c900054
:1013e0000900e0001500340009057800e28f540080
:1013f000020036002a002000020037000900e00049
:101400000b00340058009000c80190000a017800d9
:10141000ec80570003000100500498000000e00039
:101420004a0032006808900000004500600c9800f7
:101430008a8454004240a900ebff3c003809900028
:101440000200e0000d003400e80090001808900051
:101450008080400058009000c80190000300010007
:10146000500498000000e000380032006808900046
:10147000b808900001004000600c9800c80c900073
:101480000900e0001500340009057800e28f5400df
:10149000020036002a002000020037000900e000a8
:1014a0000b00340058009000c80190000a01780039
:1014b000ec80570003000100500498000000e00099
:1014c000220032006808900000004500600c98007f
:1014d0008a8454004240a900ebff3c0008109000b1
:1014e0000028a3001b0032000b00e00019003400ac
:1014f0008b04780009057800e28f54000200360062
:101500002a002000020037000900e0000b00340030
:1015100058009000c80190000a017800ee80570042
:1015200003000100500498000000e00007003200b2
:101530006808900000004500600c98008a84540000
:101540004240a90003003400eaff37000080eb00ae
:10155000010037000000eb004f0678004f05be0089
:101560004f04be000080fa0000000600889fbe0005
:1015700000047800c0019000600090008000eb0043
:10158000808f5100390039001801780020002900af
:1015900000006100e20f5000070032000020200030
:1015a0000200e0000100350000202400000c710062
:1015b0008080eb002d003700010026000100610053
:1015c000810f500008003a0038009000808f5100d1
:1015d0000500390008007800320007008080eb0029
:1015e0000000e00021003a0000c020001800600068
:1015f00017003a00a8049000600220000800400094
:10160000808f540012003a0000202000f9010700ea
:1016100080007800200498000000e00005003a00f7
:1016200029049800490498000900e8003004980053
:10163000060037001860a000400498000020b000a9
:1016400030049800410c9800510c98003b020700b0
:101650002800900050049800380090006004980022
:1016600000002600180c70008000eb0001007800dc
:101670004f04be00000006008001eb00104178001e
:10168000814f510001003a00800178000204e0001f
:10169000020032000000e800f8ff37000300780085
:1016a00000000600889fbe00000478000000e000f3
:1016b0000e003a008004780068ab20001800780023
:1016c0000000e00004003200f6ff07000000e00028
:1016d00001003d008084eb000884e80060ac20003d
:1016e000800f540029003200f4ff37000000220070
:1016f0001800600024003200a804900008003700a1
:1017000009015000384090000000fb00890078007b
:10171000881407000000e0001300340080844400b7
:1017200048009000808f5400f5ff39002800900099
:10173000400498001801780000c0200000006100fb
:1017400002003200a800900001003700b8009000ad
:1017500000002400000061000a00320061049800cb
:101760008004eb0009003700280090004004980036
:1017700060049800500c98001890a0008084eb0042
:1017800002003700510c98008004780009007800ae
:101790004f04be00000006008001eb00040037008b
:1017a0008301e80090cf1000040032000000e80040
:1017b000828f5100faff3a000000eb0000000600a3
:1017c0002f03b000889fbe008a9fbe008c9fbe0082
:1017d0008e1f780000077800f0b42000c0b79f008b
:1017e00080c5b30080cf500008003200e2b3200073
:1017f000c2b79f007740400080cf500003003a00fe
:1018000083002000b3b79f000a00370080c7b300f1
:1018100080cf500005003200a4002000b4b79f0024
:1018200080c5b30080cf500002003a0005012000bf
:10183000b5b79f003e04be002e05be0040c6b300f3
:1018400080cf5000030032006540400080cf500040
:101850000b003a00e00f5400e08f5c00e00f5d00e9
:10186000e08f5d0006003d006000b8006011b80028
:1018700008045000898458000a0559008b855900d6
:101880003fb19700e80f510003003200f00f510004
:1018900045003a00020037003c00200001003700fc
:1018a0004c002000e00f5400e08f5c00e00f5d0072
:1018b000e08f5d0005003a005e0890008301200083
:1018c000a3b79f000000e000080032003fb297007d
:1018d0000400e90008006000cfb29700654078007e
:1018e00090df9f0070012000a0b79f008c0078005f
:1018f0008100e900050033008b05d1000a85d30083
:101900008984d3000884d300f9ff3700089fbe0004
:101910000a97be002fb197000200e90023fc2f00b8
:101920008f81410000844100140037002fb09700e0
:101930000000e900a0b79f003fb197000200e90056
:1019400004006000cfb19700635478003e00be00f1
:101950002e01be000c0278000402e90005003300ed
:101960008381d1000281d3008180d3000080d30025
:10197000f9ff3700009fbe000297be003e02be0086
:101980002e03be00e00f5200e08f5a00e00f5b0014
:10199000e08f5b00da0034002fb097000000e00019
:1019a000e2ff3c00d6003700ae60900080c6b30076
:1019b00080cf50000b00320006003c000104e00024
:1019c000080032006640500080cf500073003a009b
:1019d00004003700c0c6b30080cf50006f003a004b
:1019e00031003700080178000800e00005003a00e7
:1019f0005e08900081012000a1b79f000000e00078
:101a000009003200bfb19700110009000381d8001e
:101a10008000fd004fb297006440780090df9f0087
:101a200075012000a5b79f003fb297001100090083
:101a30000481d80080017800afb297000500e9006a
:101a400021fc2f008f804000008240000c003700f6
:101a5000bfb29700110009008501d800000178008d
:101a60002fb097000000e900a0b79f000590b900d3
:101a700000805100cfb09700615278008201780059
:101a80000300e000030034002fb197000200e000e3
:101a9000efff3c0003007800cf80de0001017800fa
:101aa000820178003a0037000806be00e00f5400bb
:101ab000e08f5c0005003a005e0890008301200082
:101ac000a3b79f000000e000090032003fb297007a
:101ad0006121b9000c00be0005020700cfb29700db
:101ae0006540780090df9f0070012000a0b79f0044
:101af0003fb297006121b9000c00be00ec01070065
:101b00000006be00afb297000500e90021fc2f00df
:101b10008f8040008080400091b79f001100370007
:101b20003fb197006114b9000801be000c00be006f
:101b3000f20107000005be00afb197008301e90084
:101b4000a3b79f000801be00d301070000005600a4
:101b50001fb29700cfb297006552780094b79f00ec
:101b60000a06be00e00f5600e08f5e00030034005e
:101b70002fb097000000e000e9ff3c004feade00d4
:101b8000cfa2de000c00be000401780084017800c2
:101b9000009fbe000297be0059003700e00f5400be
:101ba000e08f5c00e00f5d00e08f5d0005003a0013
:101bb0005e08900081012000a1b79f000000e000b6
:101bc0000d0032003fb1970002027800cfa2de0084
:101bd00005037800860378000800be000a01be00f5
:101be000560207004fb297006440780090df9f00d4
:101bf00075012000a5b79f003fb197000202780051
:101c0000cfa2de0005037800860378000800be003e
:101c10000a01be0042020700009fbe000297be00fc
:101c2000afb197000300e90024fc2f000f0242002f
:101c30000006420024003700bfb297000504780078
:101c4000cfc4de00090578008a0578000802be00ce
:101c50000a03be005fa89700efa897007fa997002e
:101c60008fb1970039020700d0b79f00e1b79f00fe
:101c7000f2b79f0083bf9f002fb097000000e900dc
:101c8000a0b79f000802be000a03be005fb0970025
:101c9000efb097007fb197008fb99700b1020700ae
:101ca0005faa970000005200cfb2970065567800f7
:101cb0005fb09700efb097007fb197008fb99700a2
:101cc000009fbe000297be003e00be002e01be0077
:101cd000d0af9f00e1af9f00f2af9f0083b79f009e
:101ce000e00f5000e08f5800e00f5900e08f5900de
:101cf00003003400afb097000100e000ceff3c00cd
:101d00003fb19700e80f510013003a000e10900009
:101d10000038a30010003200afb19700f78f5100d8
:101d200006003e0024fc2f000f0242008300420008
:101d300000c3b300914f100007003200afb297000c
:101d40008502e900a5b79f0000c3b30021fc2f0066
:101d50008f80400080f07a00afb197007881110049
:101d6000120f98006e00900024fc2f000f0242001a
:101d700083004200faf907001e0990005e089000f7
:101d8000800f510006003d0002005000000f980037
:101d90000e1090000040a100001798000f003700bf
:101da0000000e0000d003d000e1090007400600087
:101db000f00f500009003a007e089000fe009000ed
:101dc000010050008e0890000100500002005000f9
:101dd0004240a90001003400000f98004f0778002e
:101de0004f06be004f05be004f04be002f03b100da
:101df00000000600889fbe00e30440000900a10027
:101e0000808f54004a003600e38f540001003e00ea
:101e100049002000e25b80000200e0000200320086
:101e2000820078000c003700e1b720000300370083
:101e3000908f5400230036008080e8001100780065
:101e40000000e000faff3a000f003700908f5400c6
:101e50001c0036008080e800110078000000e000df
:101e6000faff3a0012017800e1b7200003003700c2
:101e7000908f5400130036008080e8001100780035
:101e8000820f5000faff3a00d85b8000890f54009f
:101e90000100310009047800080078007f00070085
:101ea0000000e00004003a00890f540020003200d6
:101eb0000804d100f5ff3700081878007e000700fd
:101ec000d4ff37001101780092017800648051003e
:101ed000890f500003003100120090008008780044
:101ee0000700370009004100800878009201900047
:101ef0001300980011007800128814000909780076
:101f0000910078000100e00005003200110090000f
:101f10000000e000020032000180e800010037000c
:101f20000000eb00e05b88000280e8000100370061
:101f30000000eb004f04be0000000600881f780080
:101f400008b820001804e00004003a0060032100f3
:101f50008d00070020c0b300004c78004f047800cb
:101f600000000600889fbe0000047800cdfd070039
:101f70008004780000042000180060000200320095
:101f8000280090004c0007000000eb00200498009f
:101f9000384090000004e000050035000000fb0020
:101fa000860007000000e000010032008084eb00a2
:101fb000181090000000e0000800320088000700c0
:101fc0000000e000010032008084eb001810900057
:101fd000390007000000eb001014980000082000f2
:101fe00018006000100032000000eb0061ab200020
:101ff000910f1400070032000000e8008180e80023
:10200000e80f5000faff3a00080078002a000700a5
:1020100013003700000140008000eb0060ab20009f
:1020200001307900f8ff3700000c780000c0eb00a9
:10203000304498006002200008004000200498000e
:102040004004980050049800400c980060049800e8
:10205000500c98007004980076004400000c980022
:10206000090078004f04be0000000600881f7800b9
:1020700048ac2000180078000000e00001003200a9
:10208000b8ff07000884e90040ab2000800f54002f
:10209000f8ff3a004f047800000006000000e0005e
:1020a0000300340057000700e10f400001003a0030
:1020b0000000eb00000006000000e00031003200ec
:1020c0008080e90091027800e38f52002d003600f5
:1020d0000508a3002b003a00f25b80000200e0003c
:1020e00002003200828f50000400310002087800a4
:1020f000f15b880016003700030178009201900020
:102100000300e00002003200818f5100faff390025
:102110001202780004004100808f5000190039003d
:10212000810f500003003a00050942008200780048
:10213000070037000300e000030032000580400084
:10214000808f51000f003900930098001101980012
:10215000110190000200e0000a00320011804000ee
:10216000820f500007003a00c0b720000008eb00c3
:1021700011009000110178009008410010009000bb
:102180009000980000000600000178000000200088
:102190000000e00008003200000080000000e000c5
:1021a000050032000000e900000088000000400047
:1021b0000100800002b07800000006000a00fa006a
:1021c00011002000b1bf9f00c0bf9f006a80570070
:1021d00000c0da004fb897000080fa000000060047
:1021e0000a00fa0051002000b1bf9f00c0bf9f004d
:1021f0006a80570000c0da005fb897000080fa00dc
:1022000000000600889fbe0080047800105c8000fb
:102210000000e00003003a00100007000000e000aa
:102220000a003500105c80000900e00002003a005e
:102230000004780006003700000478000900400020
:10224000060007000000e00001003d000084eb00f4
:10225000080078004f04be000000060080007800ef
:102260000000e00004003a0040b82000105c880044
:1022700001017800060037000081eb0040d8200003
:10228000808f500002003e00115c88000001eb00ce
:102290000200780000000600020ab900001bb90025
:1022a0000200b800810042008100430000000600e7
:1022b0006022b800060220000000d0008180d20019
:1022c0000482d2008582d2000000a00002025200e7
:1022d00083825a00030031000202420083824a00d6
:1022e0000000a1000603e900f3ff3a000000060029
:1022f000efff07000400be0000000600839f680097
:102300000100e00002003d0060001000e0801800c5
:102310000300e00002003d0060011100e0811900af
:10232000e3ff07004f00e00002003b0060001000e8
:10233000e080180000000600881f78000004780084
:102340005001be004000be000400400085804800ef
:102350000601490087814900009cbe000294be002e
:102360000400e1000588e1000690e1000798e10023
:1023700002003100680044001008e8004f047800b3
:1023800000000600f4874700889fbe008a9fbe00b9
:102390008c9fbe008e1f78000205be000004be00a8
:1023a000d4b79f00e5b79f00f6b79f0087bf9f0097
:1023b0000000eb00c0b79f00b0b79f00a0b79f0020
:1023c00090b79f0080b79f000d042000bfb097001a
:1023d0004fb09700000140000000e0000f003d00fa
:1023e0004f08de0000007100c0b79f009e0007008c
:1023f00001003d0012002000a100070001003d0087
:1024000012002000a6000700b1000700b600070078
:102410000f004000c8ff0700220037004f08de0011
:1024200000067100ccb79f008f00070001003d003f
:10243000120020009200070001003d001200200061
:1024400097000700a20007000fb297009fb2970005
:102450002fb39700bfb39700a900070000005200f8
:1024600081805a0002015b0083815b0080b79f007e
:1024700091b79f00a2b79f00b3b79f000007eb0082
:102480009f0007000020e10001a8e10002b0e10088
:1024900003b8e100010031001e0020000e005600cc
:1024a000c0b79f004fb297000400e000070035005e
:1024b00010002000010020006011b8000804700026
:1024c000898470000a0571008b8571008d06e90012
:1024d000beff3a000400e00003003d008200070058
:1024e0000f00400094ff07004fa897000000e00095
:1024f00004003a000fb497009fb497002fb59700df
:10250000bfb59700940007004f0778004f06be0044
:102510004f05be004f04be004f01b1000000060091
:10252000881f780018002000881f780095ff07009a
:102530008f87e9004f04780000000600801feb0041
:1025400090ff07008f87e90000000600889fbe000b
:102550008a9fbe008c1f78006e00070007003d00b8
:1025600073000700e00f5b00e08f5b0007003d0099
:10257000320007000006eb000400370034000700bb
:1025800002003d002a0007001c0020007200070026
:10259000e3ff07000203be000002be000c00e000e3
:1025a00001003200220007000400be000601be0048
:1025b0004f0678004f05be004f04be000000060025
:1025c000889fbe008a9fbe008c1f780051000700c4
:1025d00005003d0056000700e00f5b00e08f5b0048
:1025e00006003d00040037001900070003003d000d
:1025f0006000b8006011b800100007005600070026
:10260000ceff07000203be000002be000c00e00087
:1026100001003200060007000400be000601be00f3
:102620004f0678004f05be004f04be0000000600b4
:102630006000b8006011b8000000370004025000cc
:102640008582580006035900878359000000060060
:102650000006eb00e00f5200e08f5a00e00f5b0035
:10266000e08f5b00000006000180400090b79f00f3
:102670000001eb008fb097000100e00000000600b1
:102680000200700090b79f000180400080b79f005b
:102690000001eb00ffa897000100e0000000060029
:1026a0000200700080b79f00018040006faa970071
:1026b000cf20de0001007000f0af9f000402420056
:1026c000250007004f18de0000027200000006001f
:1026d000e4af9f000804440089844c000a054d00c3
:1026e0008b854d00000006003fb29700cfb29700e7
:1026f0005fb39700efb3970000fe2f0000000600c5
:102700003fb09700cfb097005fb19700efb197004f
:10271000000006000205be000004be00e00f5000ed
:10272000e08f5800e00f5900e08f590000000600cc
:102730006000b8006011b800080450008984580097
:102740000a0559008b8559001c002000e00f52003b
:10275000e08f5a00000006000800be000a01be001b
:1027600000000600889fbe008a9fbe008c1f780074
:102770000205be000004be000006eb00e00f5000a2
:10278000e08f5800e00f5900e08f590007003d002e
:102790006000b8006011b800080450008984580037
:1027a0000a0559008b8559001c002000e00f5200db
:1027b000e08f5a00e00f5b00e08f5b0002003d00fd
:1027c0000f0007000c00a2000800be000a01be00b6
:1027d000120007000203be000002be000c00e00071
:1027e00001003200060007000400be000601be0022
:1027f0004f0678004f05be004f04be0000000600e3
:102800006000b8006011b8000402500085825800d2
:10281000060359008783590000000600889fbe0008
:102820008a9fbe008c9fbe000404b8000506b80055
:102830008904460060854e000606b8000a05460079
:10284000e0854e000706b8008b054600040eb80070
:10285000890446000a854e00e0854d00050eb8004b
:102860000a0546008b854e00060eb8008b05460013
:102870000416b8000a0546008b854e000516b80000
:102880008b054600041eb8008b0546000800be00fc
:102890000a01be004f06be004f05be004f04be0039
:0428a000000006002e
:020000040000fa
:0200000401f009
:04000c00f8ff0000f9
:020000040000fa
:0200000401f009
:040010007dff000070
:020000040000fa
:0200000401f009
:040014007fff00006a
:020000040000fa
:100008005c3500005c3500005c3500005c350000a4
:100018005c3500005c3500005c3500005c35000094
:100028005c3500005c3500005c3500005c35000084
:100038005c3500005c3500005c3500005c35000074
:100048005c3500005c3500005c35000026250000aa
:10005800062500005c3500005c3500005c350000ba
:100068005c3500005c3500005c3500005c35000044
:100078005c3500005c3500005c3500005c35000034
:100088005c3500005c3500005c3500005c35000024
:100098005c3500005c3500005c3500005c35000014
:1000a8005c3500005c3500005c3500005c35000004
:1000b8005c3500005c3500005c3500005c350000f4
:1000c8005c3500005c3500005c3500005c350000e4
:1000d8005c3500005c3500005c3500005c350000d4
:1000e8005c3500005c3500005c3500005c350000c4
:1000f8005c3500005c3500005c3500005c350000b4
:100108005c3500005c3500005c3500005c350000a3
:100118005c3500005c3500005c3500005c35000093
:100128005c3500005c3500005c3500005c35000083
:100138005c3500005c3500005c3500005c35000073
:100148005c3500005c3500005c3500005c35000063
:100158005c3500005c3500005c3500005c35000053
:100168005c3500005c3500005c3500005c35000043
:100178005c3500005c3500005c3500005c35000033
:100188005c3500005c3500005c3500005c35000023
:100198005c3500005c3500005c3500005c35000013
:1001a8005c3500005c3500005c3500005c35000003
:1001b8005c3500005c3500005c3500005c350000f3
:1001c8005c3500005c3500005c3500005c350000e3
:1001d8005c3500005c3500005c3500005c350000d3
:1001e8005c3500005c3500005c3500005c350000c3
:0801f8005c3500005c350000dd
:020000040000fa
:100208005c3500005c3500005c3500005c350000a2
:100218005c3500005c3500005c3500005c35000092
:100228005c3500005c3500005c3500005c35000082
:100238005c3500005c3500005c3500005c35000072
:100248005c3500005c3500005c35000026250000a8
:10025800062500005c3500005c3500005c350000b8
:100268005c3500005c3500005c3500005c35000042
:100278005c3500005c3500005c3500005c35000032
:100288005c3500005c3500005c3500005c35000022
:100298005c3500005c3500005c3500005c35000012
:1002a8005c3500005c3500005c3500005c35000002
:1002b8005c3500005c3500005c3500005c350000f2
:1002c8005c3500005c3500005c3500005c350000e2
:1002d8005c3500005c3500005c3500005c350000d2
:1002e8005c3500005c3500005c3500005c350000c2
:1002f8005c3500005c3500005c3500005c350000b2
:100308005c3500005c3500005c3500005c350000a1
:100318005c3500005c3500005c3500005c35000091
:100328005c3500005c3500005c3500005c35000081
:100338005c3500005c3500005c3500005c35000071
:100348005c3500005c3500005c3500005c35000061
:100358005c3500005c3500005c3500005c35000051
:100368005c3500005c3500005c3500005c35000041
:100378005c3500005c3500005c3500005c35000031
:100388005c3500005c3500005c3500005c35000021
:100398005c3500005c3500005c3500005c35000011
:1003a8005c3500005c3500005c3500005c35000001
:1003b8005c3500005c3500005c3500005c350000f1
:1003c8005c3500005c3500005c3500005c350000e1
:1003d8005c3500005c3500005c3500005c350000d1
:1003e8005c3500005c3500005c3500005c350000c1
:0803f8005c3500005c350000db
:020000040000fa
:1028a400746f0000746f00005b250000645d00001d
:1028b400203e000020000000454e000044000000bf
:1028c4002a2a00002a2a0000204700004f54000052
:1028d400202000002825000064290000203e00007c
:1028e4003e20000025730000007400006f74000097
:1028f4006f0000007469000074690000007000003b
:102904006f75000065740000006300006f690000cb
:102914006e000000636f00006d7000006c650000c5
:1029240074650000202d00003e2000002564000096
:102934000a0000005374000061720000740a000071
:10294400000000001b5b0000410000001b5b000056
:10295400420000001b5b0000430000001b5b000002
:10296400440000007f0000000a0000000100000095
:10297400050000000b000000190000000300000027
:1029840006000000020000001b5b0000337e000014
:102994000009000000040000000c0000000d00000d
:1029a400001b00007f0000001b620000001b0000f1
:1029b400660000003f0000001b5b0000304b00007d
:1029c400001b00005b25000075440000001b000094
:1029d4004d1b0000450000001b5b0000440000008c
:1029e4001b5b000043000000080000001b5b0000ac
:1029f40025750000430000000d0a000000000000df
:102a0400200200002202000024020000260200002e
:102a140028020000300200003202000034020000ec
:082a2400360200003802000038
:020000040000fa
:102a2c000400fa00000f7800000220009e0f100036
:102a3c0003003a0010002000100798000200370035
:102a4c000000eb00100798001e0090000080fa00b8
:102a5c00000006000800fa00000f7800110798002b
:102a6c0022079800330798001e007800c217200038
:102a7c008000eb00bef607001e007800ae00900050
:102a8c00613099001e0078003e0190007230990070
:102a9c001e0078009e009000513099009e00780036
:102aac000000eb0080087800820e20009e004100a0
:102abc00220e20001e00410003c8b3000041eb00b1
:102acc00b10f07000080fa00000006000600fa00b3
:102adc001007980064004700010878001e00900061
:102aec000017b000b40a07001e009000ee00400072
:102afc001e0090000080e80003c4b3000041eb000e
:102b0c00a10f07001e0090000105200080804000ee
:102b1c001e0090006800400003c4b3000041eb00ad
:102b2c00990f07001e0090000009b000800078008b
:102b3c0064004700908f100001003a000900370034
:102b4c001e009000010920008080400064004700b6
:102b5c00100078000e000900b0587800f100b100a8
:102b6c00f000b100640047001000780087f6070001
:102b7c00804078001e009000016099000040eb003e
:102b8c00004f7800090037001e0090005031910072
:102b9c001e80fb009e0090000009b0000100400068
:102bac0010407800020001001e4fe8001e0090004b
:102bbc00006091009e4f5000f3ff3e009e0090007d
:102bcc0010002000800878009e00900000c0eb00f0
:102bdc0080e89a000080fa00000006000200fa006b
:102bec00000f78009e0078000000eb008008780051
:102bfc000080fa00000006000200fa00000f7800c6
:102c0c009e00780010002000800878000080fa00f8
:102c1c00000006000400fa00100798001e00900047
:102c2c000080e800540607001e0090006800400079
:102c3c00510607001e009000d040900011479800ec
:102c4c001e009000b0489000014f78009e81fb0060
:102c5c001e0090000005b000000178001e009000de
:102c6c00ee0040001e4090000080fb000080400001
:102c7c00820078000301780036f607001e409000b1
:102c8c008080fb001e80fb00008040009e009000b6
:102c9c006e00400081004000a0c0b3008048780066
:102cac001e4090008080fb001e80fb0000804000d6
:102cbc000000e8009e0090006e0040008100400083
:102ccc000040eb00804878001e0090006e00400031
:102cdc000080fa00000006000400fa0010079800bb
:102cec00e14d29001e0090003a0407001e009000e0
:102cfc00304890000004e0002b0032000040eb0054
:102d0c00104798001e009000e00090001e009000fc
:102d1c00104890000080fb0000804000104f7800ad
:102d2c00170037001e009000d03091001e40780034
:102d3c00010001001e4090000040e8001047980080
:102d4c001e009000e00190001e00900010489000c2
:102d5c008080fb001e4090000080fb0080804000c3
:102d6c001e009000004890000081fb00110009003b
:102d7c008200d8008000fd0000804100104f7800d8
:102d8c001e009000b04890001e40900080cf500074
:102d9c00e4ff3e001e00900030499000314e2900a7
:102dac001e009000270407000080fa0000000600b7
:102dbc000400fa0010079800914e29001e009000a4
:102dcc00040407000040eb00104798000c0037008b
:102ddc001e009000503191001e4090000080fb00be
:102dec009e0090000009b0000100400010407800e7
:102dfc00020001001e4090000040e80010479800bf
:102e0c001e009000806091001e40900080cf50000a
:102e1c00efff3e000040eb00104798001e009000b2
:102e2c00b00090001e009000304090000080fb002d
:102e3c0000804000104f7800170037001e009000f3
:102e4c00d03091001e407800010001001e4090001f
:102e5c000040e800104798001e009000b001900060
:102e6c001e009000304090008080fb001e409000bf
:102e7c000080fb00808040001e00900020409000ed
:102e8c000081fb00110009008200d8008000fd00c9
:102e9c0000804100104f78001e009000d040900040
:102eac001e40900080cf5000e4ff3e001e009000ba
:102ebc0089ff07000080fa00000006009600fa0067
:102ecc0060879800614f99006e8090001000780028
:102edc00e10f5000030032000080eb00008f9800df
:102eec00ca0237006e8090000017b000ee489100c7
:102efc00e9090700704798007e409000e24f4000bf
:102f0c0003003a008000eb00018f9800bf023700ed
:102f1c007e4090000004e000960235007e40900058
:102f2c000000fb006101b900128f9800238f9800fc
:102f3c0050012000010020001e899000ae899000f5
:102f4c00800f5100818f590087023e001e8890002f
:102f5c00ae88900000600100150237005202370065
:102f6c002600370012003700a3003700f2013700ab
:102f7c00e700370000013700190137002c0137003a
:102f8c00550137001d00370009003700cb00370012
:102f9c005d013700c900370058013700e6013700e2
:102fac00a6003700320037006700370056013700a3
:102fbc006e809000504090000004e0006a023200e5
:102fcc006e8090000080e800a00e0700604798001b
:102fdc006e8090000080e800f20d07006e8090007b
:102fec0068004000ee409000690c0700e14e29009b
:102ffc006e809000770307005b0237006e809000b4
:10300c00304890000004e000570232006e809000bf
:10301c0068004000990e0700604798006e80900091
:10302c0068004000150e07006e8090000080e800dc
:10303c00ee409000e10c0700214f29006e809000bb
:10304c006403070048023700e14e29006e809000af
:10305c00600307006e8090000080e800d10d07002f
:10306c006e80900068004000ee409000480c070015
:10307c006e809000504090000004e0001700320079
:10308c006e8090000080e800700e0700604798008a
:10309c006e4090000004e000100032006e40900082
:1030ac000000fb005efe07000000e000e6ff3a00b7
:1030bc000a003700e14e29006e809000450307009e
:1030cc006e8090000080e800b60d07006e809000c6
:1030dc0068004000ee4090002d0c07006e809000c0
:1030ec00504090000004e0001f0232006e809000ff
:1030fc000080e800550e0700604798006e40900075
:10310c000004e000180232006e4090000000fb004a
:10311c0043fe07000000e000e6ff32001202370019
:10312c00214f29006e8090002a0307006e809000ca
:10313c0068004000d10d07006e8090000080e80010
:10314c00ee4090009d0c07006e809000304890007f
:10315c000004e000170032006e8090006800400010
:10316c00460e0700604798006e4090000004e00097
:10317c00100032006e4090000000fb0028fe07009b
:10318c000000e000e6ff3a000a003700214f29005a
:10319c006e8090000f0307006e8090006800400066
:1031ac00b60d07006e8090000080e800ee409000a5
:1031bc00820c07006e809000304890000004e00004
:1031cc00e90132006e809000680040002b0e070071
:1031dc00604798006e4090000004e000e20132006d
:1031ec006e4090000000fb000dfe07000000e000a8
:1031fc00e6ff3200dc0137006e8090000080e800b2
:10320c00340d07000004e000d7013a00614f29009b
:10321c006e809000ef0207006e809000aefe0700fb
:10322c00d1013700614f29006e809000e902070040
:10323c006e8090000080e8005a0d07006e809000b0
:10324c00504090000004e0000e0032006e809000b0
:10325c000080e800fd0d07000000fb00f0fd0700fa
:10326c000000e000efff3a0006003700614f290034
:10327c006e809000d70207006e8090000080e800fe
:10328c00480d07006e809000504090000004e00054
:10329c00070032006e8090000080e800eb0d070004
:1032ac000000fb00defd07000000e000efff320035
:1032bc006e80900088fe0700ab0137006e80900096
:1032cc00680040003d0d07000004e00002003a00d9
:1032dc006e80900080fe07007e409000ef4f500003
:1032ec00a1013a006e809000504090000004e00074
:1032fc009d013a006e809000304890000004e00080
:10330c0099013a00e1ff2f00018f9800bf013700af
:10331c006e809000504090000004e000920132005a
:10332c006e80900050419000314e29006e809000cc
:10333c00c40207000b0037006e8090000080e8008c
:10334c00c20d0700604798006e8090000080e80076
:10335c00140d07006e80900068004000ee40900055
:10336c008b0b07006e809000504090000004e00032
:10337c00f1ff3a007c0137006e80900030489000dd
:10338c000004e000780132006e809000304990001b
:10339c00814f29006e809000aa0207000b003700b5
:1033ac006e80900068004000b40d070060479800e4
:1033bc006e80900068004000300d07006e80900019
:1033cc000080e800ee409000fc0b07006e8090003f
:1033dc00304890000004e000f1ff3a006201370031
:1033ec006e809000110a2000808040006e8090005a
:1033fc006800400002c4b3007c0a07006e80900095
:10340c00b04890006e80900011e099006e809000a2
:10341c0090e091006e80900068004000ef0b070078
:10342c00e14d29006e8090006a0207004e013700c2
:10343c000040eb00004f9800150037000e4890003c
:10344c000080fb00ee809000000ab00001004000fc
:10345c00904090006e8090000080e800d70b070031
:10346c006e809000503191000e4890000080fb005f
:10347c00ee809000000ab000010040001040900067
:10348c00020001000e4890000040e800004f980038
:10349c006e809000304890008080fb006e80900021
:1034ac00504090000080fb0080804000f003200022
:1034bc00808f500005003c006e80900090e09100e1
:1034cc000e48900080cf5000dcff3e006e809000d4
:1034dc0001fe070024013700e14f29006e809000a7
:1034ec003c0207006e8090000009b000800078005c
:1034fc006e80900075fd07001b0137006e809000f8
:10350c002bfe0700180137006e8090000080e80049
:10351c00190407006e809000504090000080fb0062
:10352c00ee8090006e004000810040000040eb00f7
:10353c00804878006e809000703091000000e000b0
:10354c007a0032007e409000ee4f500003003a00ab
:10355c000000eb0050079800020037000080eb00e1
:10356c00500798006e809000703291006e80900031
:10357c006e004000800278006a004700ec004700b3
:10358c0080017800f2c7b300050078000400010048
:10359c00204798002e4090000004e00003003c00ff
:1035ac0022002000028f9800180137006c004700a1
:1035bc00f6f30700000f78002e409000e24f500009
:1035cc0029003a000040eb00004f98001300370030
:1035dc000e4890008080fb006c004700008040008b
:1035ec00904078006e8090000080e800730b07001c
:1035fc006e809000503191000e4890008080fb004e
:10360c006c00470000804000104078000200010070
:10361c000e4890000040e800004f98006e8090002b
:10362c00304890008080fb006e80900050409000ed
:10363c000080fb0080804000f0032000808f500051
:10364c0004003c000e4890000080fb009e0f5000d0
:10365c00dfff35006e8090009ffd070023002000e7
:10366c00038f9800e9003700e14f29006e8090002d
:10367c00d8010700280037006e809000d0309100f0
:10368c0000c2b300010001000040eb00004f9800a5
:10369c000b0037006e809000503191000e48900066
:1036ac008080fb006c0047000080400010407800d8
:1036bc00020001000e4890000040e800004f980006
:1036cc000e4890008080fb006c004700008040009a
:1036dc00104078000004e000eeff3a00e14f2900b2
:1036ec006e809000bb0107006e80900070329100dc
:1036fc006e8090006e004000800278006a004700e7
:10370c00ec00470080017800f2c7b3000500780098
:10371c0004000100204798002e4090000004e000b7
:10372c00d5ff3a006e809000a1fd0700200020001c
:10373c00008f9800b50037006e80900035fd0700b3
:10374c00ee8090000000eb0080087800e14f29002b
:10375c006e8090009f0107006e80900000e8920040
:10376c00e14f4000020032006e809000bc00070068
:10377c006e809000603091000000e0000900320083
:10378c006e809000603191006e80900050409000ef
:10379c0000c0e800804078006e8090006e00400011
:1037ac000200010011002000018f980097003700e3
:1037bc006e80900000e892000004e00002003a00e5
:1037cc006e809000a60007006e80900000e89200ca
:1037dc000004e00008003c006e8090000dfd070026
:1037ec00800078006e80900032010700ee8090001f
:1037fc000040eb0080e89a006e80900000e8920098
:10380c000040e800804078006e809000dc000700eb
:10381c00200798002e0090000000e00052003200bb
:10382c006e80900000e892008040e8006e8090006e
:10383c0001e89a006e8090000017b0005e07070048
:10384c006e809000ee0040006e8090000080e800da
:10385c0003c4b3000041eb004b0c07006e809000da
:10386c0001052000808040006e80900068004000c0
:10387c0003c4b3000041eb00430c07002e00900082
:10388c0042f30700004178002e0090008000780081
:10389c006e8090000080e800f90507006e809000b3
:1038ac0043fd0700300037006e80900000e8920066
:1038bc000000fb000000e9000000e0002a003500d9
:1038cc006e80900000e892008040e9006e809000cd
:1038dc0001e89a006e80900000e892008040780029
:1038ec006e809000a6000700200798002e00900024
:1038fc000000e0001c0032006e8090000017b00049
:10390c002d0707006e809000ee0040006e80900046
:10391c000080e80003c4b3000041eb001a0c070060
:10392c006e80900001052000808040006e80900029
:10393c006800400003c4b3000041eb00120c070008
:10394c002e00900011f30700004178002e0090002b
:10395c00800078006e8090000080e800c8050700a9
:10396c006e80900012fd07000001eb00028f9800a2
:10397c00260037006e4891000000fb000af3070098
:10398c000000e00003003a008001eb00038f980078
:10399c001e0037006e809000504090008080fb002d
:1039ac006e809000304890000080fb0080804000ca
:1039bc00f0032000808f5000030034000000eb0067
:1039cc00008f9800110037006e8090000080e80096
:1039dc00ee4891003c0a07000004e00003003200ae
:1039ec008000eb00018f9800080037006e8090007b
:1039fc00d03091006e489100010001006e80900063
:103a0c00b5fc07000001eb00028f98000e889000b7
:103a1c000080fa00000006000400fa00100798006d
:103a2c00090037001e009000200eb000130c070098
:103a3c00004f78001e009000200eb0008f0b070086
:103a4c001e04e000040032001e00900050e09100c3
:103a5c000004e000f3ff3a000080fa0000000600ca
:103a6c000400fa00100798001e00900050e091002e
:103a7c000004e000110032001e009000200eb00087
:103a8c00480b0700090037001e009000200eb00004
:103a9c00ee0b0700004f78001e04e0000700320018
:103aac001e009000200eb0003e0b07001e00900080
:103abc0050e091000004e000f3ff3a000080fa00af
:103acc00000006000600fa00200798000040eb00fa
:103adc00004f78000040eb00204798002e0090002b
:103aec00b0b090002e00900030e091000080fb0000
:103afc0000804000104078001047980018003700f4
:103b0c001e4090000004e00001003a001e4fe80047
:103b1c002e4090000040e800204798002e009000b6
:103b2c00b0b190002e00900030e091008080fb003e
:103b3c002e4090000080fb00808040002e00900002
:103b4c0020e091000081fb00110009008200d800e8
:103b5c008000fd0000804100104078001047980064
:103b6c002e009000d0e091002e40900080cf5000ad
:103b7c00e3ff3e001e80fb000080fa000000060000
:103b8c000a00fa0020079800614798002e00900068
:103b9c00ccff070020479800ee4090002e4090008c
:103bac0080cf5000030039000000eb004007980064
:103bbc003d0037002e009000200eb0006e02070072
:103bcc000040eb00104798002e009000b0b0900021
:103bdc002e00900030e091000080fb00008040003f
:103bec0010407800004f7800280037006e4090009d
:103bfc008080fb002e4090000080fb000000e9005c
:103c0c00808f500008003a002e009000810e20009a
:103c1c00808040001e4090000080fb0080804000af
:103c2c0041079800200037001e04e00003003a0012
:103c3c002e4090000040e900204798001e40900064
:103c4c000040e800104798002e009000b0b19000a2
:103c5c002e00900030e091008080fb001e40900010
:103c6c000080fb00808040002e00900020e091003e
:103c7c000081fb00110009008200d8008000fd00cb
:103c8c000080410010407800004f78002e0090001a
:103c9c00d0e091001e40900080cf5000d3ff3e003a
:103cac000000eb00400798004e0090000080fa00e6
:103cbc00000006000800fa00100798006400470096
:103ccc000108780064004700100078002ff207000c
:103cdc00104798000040eb00004f78000b003700b5
:103cec001e80fb00800078006400470010804000bc
:103cfc0010407800ea4f500003003a001e40780054
:103d0c0010479800040037001e4fe8001e4090003a
:103d1c009e4f1000f2ff39001e4090000004e0009e
:103d2c0005003d000080eb00300798001b003700b9
:103d3c001e00900038ff07001e4090000081fb0021
:103d4c001e00900020e091008080fb001e0090007f
:103d5c0050e091000080fb0000805000800f51006b
:103d6c00f3ff3d001e009000230e200080814100d7
:103d7c00640047001e41900090007800030078001a
:103d8c00bf0407001e009000200eb0008040eb0026
:103d9c008a0907000000eb00300798003e009000f5
:103dac000080fa00000006000200fa00000f780004
:103dbc00800e20009e004000220e20001e004100bc
:103dcc0003c8b3000041eb00ef0a07000080fa00c3
:103ddc00000006000800fa00100798006400470075
:103dec0001087800040037001e009000d0309100cc
:103dfc001e407800010001006400470010007800ac
:103e0c00104f78001e40780060479800ee419000fb
:103e1c000304e0000200320010c0b30060479800b9
:103e2c006e419000e4004700640047009001780068
:103e3c00e18841000204e000ebff3a000080fa0048
:103e4c00000006000a00fa002007980066004700f0
:103e5c0001087800024f98000040eb0010479800d2
:103e6c0040c6b300004f780040003700ae409000d1
:103e7c0050c2b30080cf500038003a0066004700b3
:103e8c00100078009040780021479800e600470029
:103e9c006600470010017800e1084100ae40900038
:103eac0050c7b30080cf500023003a001f003700ea
:103ebc000e4890000080fb001e01fb001100090061
:103ecc000200d800204798002e4090000004e0002b
:103edc0003003a001e4090000004e000070032008e
:103eec002e009000d03091002e4090000043b00086
:103efc000100010010c0b300104798000e4890005c
:103f0c000080fb001e01fb00110009000200d8001c
:103f1c008000fd00004f98001e00fb00a200200056
:103f2c00110009000200d800004f78001e04e000c8
:103f3c00dfff3a000d0037002e009000d0309100ca
:103f4c0050c2b300010001002e009000d03091004f
:103f5c002e40900001000100040037002e0090005c
:103f6c00d03091002e409000010001006600470007
:103f7c001000780090417800234798002e40900064
:103f8c00104f98009e4890000104e000020032009f
:103f9c0012c0b300124f98001e499000e600470073
:103fac006600470090017800e18841000204e000bf
:103fbc00aeff3a000080fa00000006000400fa0090
:103fcc00004f7800110798001e80fb00800007004e
:103fdc001e80fb00750007001e04e00019003a006b
:103fec001e00900067406000674060006740600002
:103ffc00674060004401dd00910a20009140780088
:10400c00f0c8b30000c0600002407000a9e0b70027
:10401c009e00900000072000008060004400de003d
:10402c006740600067416000a10a20009140780061
:10403c0080cfb30000c0600002407000aae0b7005f
:10404c00180037001e009000674060006740600059
:10405c006740600067416000310b200091407800a0
:10406c0080cfb30000c0600002407000b3e0b70026
:10407c009e00900000072000008060004400de00dd
:10408c0067406000674060004401dd00310b200098
:10409c0091407800f0c8b30000c06000024070008e
:1040ac00b3e0b7001e00900068006000c300de00a3
:1040bc001e80fb00210007009e00900000082000dd
:1040cc0000806000c700de001e80fb0002000700bd
:1040dc000080fa00000006000400fa00000f7800cf
:1040ec00110798001e00e000080032001e0090002e
:1040fc0061406000c700dd0097c0bf000074a100e4
:10410c000140700097e0b7000a0037001e009000d5
:10411c0061406000614060004401dd0051092000f5
:10412c0091407800f0ceb30000c0600002407000f7
:10413c0095e0b7000080fa00000006000400fa00c9
:10414c00000f7800110798001e00e0000b003200f1
:10415c001e00900061406000614060004601dd007f
:10416c007109200091407800f0cbb30000c06000d2
:10417c000240700097e0b7000a0037001e00900064
:10418c0061406000614060004301dd005109200086
:10419c009140780070cfb30000c060000240700006
:1041ac0095e0b7000080fa00000006000200fa005b
:1041bc00000f78001e00e0000200320087e0a9002a
:1041cc00010037008580a9000080fa00000006007d
:1041dc000200fa00000f78001e00e000020032001e
:1041ec0087c0a900010037008560a9000080fa0093
:1041fc00000006000800fa00004f78001107980034
:10420c0022079800330798001e80fb006a00b90053
:10421c00e800400020502900008040001000780089
:10422c00be009000010878001e80fb006a00b900f7
:10423c008000780020502900008040001000780099
:10424c009e009000010878001e80fb006a00b900f7
:10425c008080e80020502900008040001000780089
:10426c00ae009000010878000080fa000000060003
:10427c001c00fa00005f9800510f98000040eb0002
:10428c00204f98000000eb00400798000000eb0066
:10429c00300798000080eb00200798000000eb002e
:1042ac001007980042c0bf000080fb004500de00f4
:1042bc00004f7800210420009140780000ceb3001c
:1042cc0000c0700042e0b7005e0890000000e00003
:1042dc0025003a006c004700500f98000e589000d3
:1042ec000080fb000000e000010032001b003700e2
:1042fc00de089000110078000000a0008008780013
:10430c00de089000110078000010a00080087800f2
:10431c00de089000110078000020a10080087800d1
:10432c00de0890000000eb0090009800de08900082
:10433c00e0ff2f00a0009800de08900080c0b300c2
:10434c00e04098005e099000006029000100200008
:10435c0040019800510198000300370060c1b30080
:10436c00204f9800710037000e5890000080fb0021
:10437c000000e000010032001000370003c8b30059
:10438c000041eb00c19d2000c0a820007e09070061
:10439c0043c0b3000041eb00c1a5200080a9200060
:1043ac00790907005e089000100078006100600039
:1043bc000000e00004003a000900370060c1b300bf
:1043cc00204f9800590037005e08900010007800cc
:1043dc00620060000000e00006003a000c003700ac
:1043ec002e009000f1ff27000100600020079800cc
:1043fc004e003700f0f72f0030079800be009000f9
:10440c0090f92f0000806000300798000200370000
:10441c0070f72f00300798005e08900010007800ad
:10442c00640060000000e00001003200040037006e
:10443c002e00900071ff2f000100600020079800f3
:10444c005e089000100090000000e00009003a00a7
:10445c005e08900060409000e84f50000a003a005f
:10446c002e00900091ff2f000100600020079800a3
:10447c00050037005e089000900090002e00900020
:10448c0001006000200798005e089000a0009000da
:10449c002e00900001006000200798005e0890003c
:1044ac0010007800640060000000e0000d00320095
:1044bc005e089000d0009000400090004209dd00a2
:1044cc00ce01de00830171004201dd0000a0250059
:1044dc002126200073f707000000e9004007980030
:1044ec000c0037005e089000d00090004000900057
:1044fc004409dd00cc01de00830171004401dd00c4
:10450c0000a025002126200066f707000000e90026
:10451c0040079800ae009000f0c02c0000806000b6
:10452c0020079800d075210010079800be0090005d
:10453c000e589000a1fe0700ce0190001e019000c5
:10454c00ae0090000e5890002aff07009e407800a5
:10455c0067c06000c500dd0042c0bf007f40600046
:10456c000140700042e0b7002e4890000000fb00b4
:10457c000080fa00000006000200fa00000f78002c
:10458c001e007800904090001e00780010407800cb
:10459c000080fb000000d10080cf50000a003100e9
:1045ac00020037001e0078007e0007001e00780015
:1045bc00104090000004e000faff3a0006003700bb
:1045cc001e007800060007001e00780010409000c6
:1045dc000004e000faff3a000080fa000000060038
:1045ec000400fa00100798001e009000a000900034
:1045fc001e009000204090000080fb0000804000d6
:10460c00104f78000040eb00104798002c0037004a
:10461c001e009000a00190001e0090002040900011
:10462c008080fb001e009000104078000080fb0092
:10463c00808040001e4090000080fb008080500075
:10464c001e009000104078000081fb001100090052
:10465c008200d8008000fd00808141001e00900087
:10466c00200290001e009000204090008080fb00f3
:10467c001e009000104078000080fb0080804000fd
:10468c001e4090000080fb00008050008000e9007c
:10469c001e009000104078000081fb001100090002
:1046ac008200d8008000fd0000004200104078001d
:1046bc00804978001e4090000040e80010479800a8
:1046cc001e009000b04090001e40900080cf500023
:1046dc00cfff3e001e009000a00190001e00900035
:1046ec00204090000080fb008000e8001e0090003d
:1046fc00104078000081fb00110009008200d800f6
:10470c008000fd00008041001e4878001e009000d3
:10471c00104090000040e800804078001e0090009f
:10472c00114098001e009000104190001e00900057
:10473c00904078000280fb000181fb001100090011
:10474c000280d8008000fd00804078001e009000a0
:10475c00114098001e009000204090000040e8009e
:10476c00804078001e009000214098001e009000b0
:10477c00204190001e009000904078000280fb00c9
:10478c000181fb00110009000280d8008000fd00af
:10479c00804078001e009000214098000080fa00b4
:1047ac00000006000400fa00100798001e0090009c
:1047bc00a00090001e009000104090000080fb00b4
:1047cc0000804000104f78000040eb00104798002c
:1047dc00240037001e009000a00190001e009000e5
:1047ec00104090008080fb001e4090000080fb0079
:1047fc00808040001e009000104078000081fb007b
:10480c00110009008200d8008000fd008081410069
:10481c001e009000200290001e009000104090009e
:10482c008080fb001e4090000080fb000080400058
:10483c008000e8001e009000104078000081fb0012
:10484c00110009008200d8008000fd000000420029
:10485c0010407800804978001e4090000040e8002d
:10486c00104798001e009000b04090001e40900031
:10487c0080cf5000d7ff3e001e009000a00190009a
:10488c001e009000104090008080fb001e009000e5
:10489c00104078000080fb00008040008000e900a0
:1048ac001e009000104078000081fb0011000900f0
:1048bc008200d8008000fd00008041001e48780076
:1048cc001e009000904090001e0090001040780058
:1048dc0000c040000040e900804078001e009000bd
:1048ec00114098001e009000104190001e00900096
:1048fc00904078000280fb000181fb001100090050
:10490c000280d8008000fd00804078001e009000de
:10491c00114098001e009000a04090001e009000d6
:10492c001040780000c040000040e9008040780052
:10493c001e009000214098001e0090002041900025
:10494c001e009000904078000280fb000181fb006b
:10495c00110009000280d8008000fd008040780022
:10496c001e009000214098000080fa000000060014
:10497c000200fa00000f78001e00780090409000b2
:10498c001e007800104078000080fb000000d10071
:10499c0080cf50000f003900020037001e00780055
:1049ac0080ff07001e007800204090008080fb00f4
:1049bc001e007800104078000080fb000000e90029
:1049cc00808f5000f5ff3a000b0037001e00780076
:1049dc0003ff07001e007800104090008080fb0051
:1049ec001e007800104078000080fb000000e900f9
:1049fc00808f5000f5ff3a000080fa00000006009e
:104a0c003600f800809fbe00829fbe00849fbe00cf
:104a1c00869fbe000000fa000040eb001800070063
:104a2c008580a9000080fa004f03be004f02be0033
:104a3c004f01be004f00be003600f90000400600da
:104a4c003600f800809fbe00829fbe00849fbe008f
:104a5c00869fbe000000fa000040eb0069000700d2
:104a6c008560a9000080fa004f03be004f02be0013
:104a7c004f01be004f00be003600f900004006009a
:104a8c000400fa00204798000040eb00004f78002b
:104a9c002e4090000080fb006600b900800078007a
:104aac00c0a8200000804000304090000004e000ce
:104abc0005003a002e4090000080fb008000eb00c7
:104acc0037000700160037002e4090000080fb00d6
:104adc006600b90080007800c0a82000008040006b
:104aec00da070700004f78002e4090000080fb0092
:104afc006600b90080007800c0a82000008040004b
:104b0c00280707009e4078002e4090000600070002
:104b1c002e4090000080fb001100200020000700b8
:104b2c000080fa00000006000200fa00004f780036
:104b3c00114798001e80fb006a00b900e400400099
:104b4c002050290000804000100178001e40900089
:104b5c008000fb00f00f200000806000000978004e
:104b6c001e80fb008000400080aa200000804000d6
:104b7c00100078000000e000070032001e80fb00ef
:104b8c008000400080aa2000008040009000780047
:104b9c001e409000010001000080fa000000060099
:104bac000400fa00000f7800110798001e00e000c6
:104bbc00080032001e00900061406000c700dd005c
:104bcc0097c0bf000074a1000140700097e0b700cf
:104bdc000a0037001e0090006140600061406000d8
:104bec004401dd005109200091407800f0ceb30063
:104bfc0000c060000240700095e0b7000080fa0031
:104c0c00000006000400fa00204798000040eb006a
:104c1c00004f78002b0037002e4090003600070024
:104c2c00004f78002e4090000080fb006600b90019
:104c3c008000780080a9200000804000104178009e
:104c4c002e4090000080fb006600b90080007800c8
:104c5c0080a920000080400030409000804f51001f
:104c6c00080032002e4090000080fb006600b90066
:104c7c008000780080a92000008040009e407800d1
:104c8c00430507002e4090000080fb008000400090
:104c9c0040aa200000804000100078000000e000d6
:104cac00080032002e4090000080fb008000400085
:104cbc0040aa200000804000900078001e40780040
:104ccc00010001002e4090000080fb006a00b9003a
:104cdc008080e800205029000080400010007800ff
:104cec0010007800610060000004e000caff3a0088
:104cfc000080fa00000006000200fa00004f780065
:104d0c001e80fb006a00b900e6004000205029001c
:104d1c000080400010007800100078000000fb00bc
:104d2c000080fa00000006000000fa008000eb0092
:104d3c000040eb004efd0700104120000100200058
:104d4c00270707000080fa00000006000600fa00a2
:104d5c00204798003147980042c0bf000080fb00fc
:104d6c004500de00004f78002104200091407800bf
:104d7c0000ceb30000c0700042e0b7002e4090009f
:104d8c000080fb00a90007000004e00024003a00aa
:104d9c002e4090000080fb006a00b9008080e80083
:104dac00205029000080400010007800100078008e
:104dbc004900de00610060000000e0000e003a00d7
:104dcc00be4090002e4090007a0007009e40780074
:104ddc0067c06000c500dd0042c0bf007f406000be
:104dec000140700042e0b7003e4090000000fb0024
:104dfc0020079800530037009e40780067c0600081
:104e0c00c500dd0042c0bf007f4060000140700063
:104e1c0042e0b7000080eb00200798004900370003
:104e2c002e4090000080fb006600b90080007800e6
:104e3c00c0a8200000804000104178002e40900057
:104e4c000080fb006600b90080007800c0a820003c
:104e5c000080400030409000804f51000a003a0022
:104e6c009e40780067c06000c500dd0042c0bf00f6
:104e7c007f4060000140700042e0b7000080eb0012
:104e8c00200798002f0037002e4090000080fb0078
:104e9c006600b90080007800c0a8200000804000a7
:104eac00304090000004e00014003a002e409000c6
:104ebc000080fb006a00b9008080e80020502900c7
:104ecc000080400010007800100078004900de00df
:104edc00610060000000e00008003a00be40900055
:104eec002e409000330007002e4090000080fb0005
:104efc001100200016000700080037002e4090001b
:104f0c000080fb006600b90080007800c0a820007b
:104f1c0000804000be4090009d0407009e40780039
:104f2c0067c06000c500dd0042c0bf007f4060006c
:104f3c000140700042e0b7003e4090000000fb00d2
:104f4c00200798002e0090000080fa000000060058
:104f5c000400fa00000f7800110798001e00e00012
:104f6c00080032001e00900061406000c700dd00a8
:104f7c0097c0bf000074a1000140700097e0b7001b
:104f8c000a0037001e009000614060006140600024
:104f9c004401dd005109200091407800f0ceb300af
:104fac0000c060000240700095e0b7000080fa007d
:104fbc00000006000200fa00004f7800114798002c
:104fcc001e80fb006a00b900e4004000205029005c
:104fdc0000804000100178001e4090008000fb0013
:104fec00f00f200000806000000978001e80fb009c
:104ffc008000400080aa2000008040001000780053
:10500c000000e000070032001e80fb008000400022
:10501c0080aa200000804000900078001e40900084
:10502c00010001000080fa00000006000600fa00f2
:10503c00000f7800110798001e00e00007003200f6
:10504c0097c0bf000080fb004600de00614060009e
:10505c000080fb00200798000600370095c0bf00b9
:10506c000080fb004300de00614060000080fb001c
:10507c00200798002e0090000080fa000000060027
:10508c001600fa0010079800640047000108780029
:10509c00624798006e4090000004e0000b00320064
:1050ac006e4090000081fb001e00900010407800c4
:1050bc008080fb001e009000304090000080fb00c0
:1050cc0000805000800f510003003400a0fe2f0020
:1050dc00200f9800910037001e009000b040900007
:1050ec000040eb00004f78000104e00002003a00a1
:1050fc0010c0b300004f78006e4090000081fb00a0
:10510c001e009000104078008080fb001e00900074
:10511c00204090000080fb00808050001e80fb002f
:10512c00008040000000e900800f51001c003d0091
:10513c006e4090000080fb00100f98001e00900045
:10514c00a00090001e009000204090000080fb000a
:10515c0080804000010f98001e04e00003003a001c
:10516c001200200072079800020037000000eb00cc
:10517c00700798000e0990007e009000800041009e
:10518c0064004700100078008101780080007800ee
:10519c001e09900003007800eeec07004100370078
:1051ac001e009000104078008080fb001e009000d4
:1051bc00204090000080fb00808050001e80fb008f
:1051cc00008040000000e900600798001e0090007d
:1051dc00a00090001e009000204090000080fb007a
:1051ec0080804000510798001e04e00003003a0044
:1051fc001200200042079800020037000000eb006c
:10520c00400798005e0190004e0090008000410025
:10521c00640047001000780081017800800078005d
:10522c006e01900003007800caec07006e409000fd
:10523c008080fb001e009000104078000080fb0076
:10524c00808050001e009000204090000080fb00e9
:10525c00808040001e80fb00008050000000e800b1
:10526c00000178001e009000104078000080fb00c8
:10527c008000780064004700908040001e00900081
:10528c00204090000080fb00808050001e80fb00be
:10529c0000804000e10050001e00900020009000b3
:1052ac00acec07001e009000b04090006e409000e7
:1052bc0080c040001e009000314098001e009000fd
:1052cc0020409000804078006e4090001e405000be
:1052dc0000c04000804078001e00900021409800e3
:1052ec001e009000204190001e009000904078001d
:1052fc000280fb000181fb00110009000280d80034
:10530c008000fd00804078001e0090002140980035
:10531c006e4090000000fb00200f98002e089000bb
:10532c000080fa00000006000000fa000080fa007d
:10533c00000006000200fa00000f78000080fa005e
:10534c00000006000200fa00004f78009e40780032
:10535c000040eb00960307000080fa0000000600f6
:10536c000400fa0020479800ae4090000085200011
:10537c00d2f60700004f780010c0b3009e4f10000b
:10538c0013003a000085200022f607008000780008
:10539c000085200047fa07006055800080007800e7
:1053ac000000e80060558800811f78002045290026
:1053bc00801f7800c09c200087ec0700e487570012
:1053cc00c19c200000852000c0f5070007003700b5
:1053dc00e0cfb3009e4f100004003a00008520007f
:1053ec00fef50700e04529008cec07000080fa0070
:1053fc00000006000400fa000e0178000009780095
:10540c00214798002e4090008080fb000e00780011
:10541c00901f7800811f780020462900801f78009b
:10542c0098ec0700e68757000080fa0000000600a1
:10543c000a00fa000e027800000a780011079800a2
:10544c0042479800330798003e0090001000780007
:10545c00801f7800c0482900801f7800b2ff070029
:10546c00e48757003e00900010007800e30f5000d6
:10547c0010003e003e0090001000780080004000bc
:10548c00e0aa200000804000900078001e009000f0
:10549c0084ec07003e009000100078008000e800cb
:1054ac003e00900001087800100020004007980092
:1054bc00020037000000eb00400798004e009000ff
:1054cc000080fa00000006000000fa00f10407005a
:1054dc00416a20009140780000ceb30000c060000b
:1054ec000034a000a4e6b700716c20009140780055
:1054fc0000ceb30000c060003040b300c7e6b70078
:10550c00c902a800c8e2a90007fe070080382100e4
:10551c001d000700c0492900801f780059ec0700c6
:10552c008f87e900619b22000040eb000e0407000e
:10553c0042c0bf007f40600042e0b700e3a1220000
:10554c0002a02200819a22000085200041f507006c
:10555c0060558000800078000000e80060558800ed
:10556c00811f780020452900801f7800c09c2000f6
:10557c0019ec0700e4875700c19c2000008520002f
:10558c0052f50700ffff37000200fa00000f780009
:10559c000300370000c4290001002000100507009b
:1055ac001e0fe9000080eb009e0f1000f9ff3a007f
:1055bc000080fa00000006000200fa00000f7800dc
:1055cc009e0078000000eb00d00098000080fa00ec
:1055dc00000006000a00fa00881f780020079800d7
:1055ec00614798000040eb00004f78000040eb0052
:1055fc00004f78001f0037001e80fb0000004000a9
:10560c008000780000a62000008040008e80e8001a
:10561c00900878006e4090000084fb000e80e8003b
:10562c0010007800d9eb0700800f540010003a00ee
:10563c000e80e80010007800d4eb07000001780021
:10564c002e009000800178000e80e8009000780019
:10565c00030078001bec07000000e00004003a0097
:10566c001e4078000000fb00400798000600370041
:10567c001e4fe80050c1b3009e4f1000deff3600f5
:10568c000080eb00400798004e0090004f0478001b
:10569c000080fa00000006000a00fa0010079800cb
:1056ac00414798004e409000004f78001e0090003b
:1056bc0010407800e84f5000060036009e00900025
:1056cc000000eb00d00098009e0090000040eb0022
:1056dc00804878001e009000904178008380fb0089
:1056ec001e4178001e00900000804000124098007f
:1056fc008340e8001e009000014878001e009000d6
:10570c0090407800114798001e00900050009000c7
:10571c00400798004e009000e10f5000120032003c
:10572c00ce009000e18f5000040039004e00900034
:10573c00e20f5000200032002c003700b1c1b30042
:10574c009ecf100004003a009e0090001000200034
:10575c00d0009800280037009e0090000040eb001d
:10576c008048780027003700b0c5b3009e4f10006a
:10577c0004003a009e00900020002000d000980009
:10578c001d003700f0c2b3009e4f10001a00360007
:10579c001e4078000004e000170035009e009000c9
:1057ac000040eb00804878009e0090000000eb0069
:1057bc00d000980013003700f0c3b3009e4f1000c8
:1057cc000d003600e0c7b3009e4f10000a003e00eb
:1057dc009e0090000040eb00804878009e009000f6
:1057ec000000eb00d0009800060037009e009000ef
:1057fc000040eb0080487800e0ff2f003007980055
:10580c00060037001e0090000000e8009e4090004b
:10581c0070ff07000000fb00300798003e0090006e
:10582c000080fa00000006000a00fa001007980039
:10583c006400470001087800624798006e409000b1
:10584c000004e0000b0032006e4090000081fb0071
:10585c001e009000104078008080fb001e0090001d
:10586c00304090000080fb0000805000800f510001
:10587c0003003400a0fe2f00400798007c00370086
:10588c001e009000b04090000040eb00004f7800ec
:10589c000104e00002003a0010c0b300004f780091
:1058ac006e4090000081fb001e00900010409000a4
:1058bc008080fb001e80fb0000804000800f5100a8
:1058cc0014003d006e4090000081fb001e00900013
:1058dc00a00090001e009000104090000080fb0083
:1058ec00808040006e4090000080fb008080500063
:1058fc001e80fb0080804000640047001000780090
:10590c0081017800800078000300780011eb07001b
:10591c00340037001e009000104090008080fb0087
:10592c001e80fb0000804000800178006e409000db
:10593c000080fb008000780064004700108140006c
:10594c001e009000104090008080fb001e80fb0029
:10595c0000804000800051001e009000200090004c
:10596c0003017800fbea07006e4090000081fb0009
:10597c001e009000104090008080fb001e80fb00f9
:10598c000080400000005100000278001e009000d2
:10599c00a00090001e009000104078000080fb00da
:1059ac00808040006e4090000080fb000081500021
:1059bc001e009000104090008080fb001e80fb00b9
:1059cc000080400080004100640047001000780017
:1059dc0081017800800078000401780003007800d1
:1059ec00dcea07001e009000b04090006e40900072
:1059fc0080c040001e009000314098001e009000b6
:105a0c0010409000004178001e00900090407800fb
:105a1c006e40900000c05000804078001e4078001e
:105a2c0000c0400000404100804078001e00900003
:105a3c00114098001e009000104190001e00900034
:105a4c00904078000280fb000181fb0011000900ee
:105a5c000280d8008000fd00804078001e0090007d
:105a6c00114098006e4090000000fb004007980029
:0c5a7c004e0090000080fa0000000600c0
