:020000040000fa
:080000000002040000000000f2
:020000040000fa
:100400002fbf2000007f24000001880000000000b2
:100410000c00070000da2200010020001100070094
:10042000000020000000e000020032000000020096
:100430000000000026300200000000000040da004a
:100440000000fe004440a900c01a20000000e000a7
:100450000300320000002000a00188004440a800f2
:100460000000060091018800800078000000eb0089
:1004700015003700e280400032a0b4009101ba00bc
:10048000e280400032a0b4009102ba00e280400055
:1004900032a0b4000002eb00472bde00f507b200eb
:1004a000602ce10004003a000059eb008301e900f0
:1004b000fdff3e00040037006128e100010032002a
:1004c0000082eb00040007001101ba000200e00006
:1004d000e8ff3a00000006003159ba008301e90044
:1004e0000c0032002159ba008301e90008003200f3
:1004f0000400e00003003a00e280400032a0b400b3
:10050000f5ff370011d9ba008301e900faff3a007c
:100510008100e800e180400032a0b4000000060045
:1005200000000000000000000000000000000000cb
:1005300000000000000000000000000000000000bb
:1005400000000000000000000000000000000000ab
:10055000000000000000000000000000000000009b
:10056000000000000000000000000000000000008b
:10057000000000000000000000000000000000007b
:10058000000000000000000000000000000000006b
:100590000000000000000000020ab900001bb900c2
:1005a0000200b80081004200810043000000060004
:1005b0008001eb000200370061f079008301e80060
:1005c000828f5100fcff3a00000006008000780096
:1005d000010037000000e8001004e000fdff3a00d1
:1005e0000100500000000600800178000001780042
:1005f000010037000201e8001204e000fdff3a00ac
:10060000020037000201e8008100e8001140780094
:10061000004978000004e000faff3a000300780087
:1006200000000600000278000000eb000b0037001d
:100630009441780091cf5100030032000080eb001c
:1006400009003900100005000000e8000304e00084
:10065000040032000402e8008100e800820f50002c
:10066000f3ff3a000000eb00000006008001780074
:100670000001780031407800005978000004e00063
:10068000fcff3a000300780000000600881f780095
:1006900002047800c6ff0700080040004f047800fd
:1006a000000006000000fa00881f780000047800af
:1006b0003fb99700ea81570080007800603420003d
:1006c0004b000700800078000000e00002003500c9
:1006d0000040eb0000f47800010078004f0478003f
:1006e0000080fa0000000600000378008001780016
:1006f0000002eb00010037008059780084025100ad
:10070000820f52000900320064c078000402e80041
:100710000004e000f8ff3a00830078008058eb0006
:1007200005804100808f5000fcff3a0006007800f1
:10073000000006008001eb000200370081717800a4
:100740008301e800828f5100fcff3a0000000600a0
:100750000002b10003003500e005b10001003c00db
:100760001000050000000500c1952000d900070019
:100770000000e00006003500c1952000a000200028
:100780001a0107008000eb000000e00001003d00be
:100790008080eb000100780000000600889fbe000a
:1007a0008004780001007800020478008901780054
:1007b0001100200033010700880f500001003200b3
:1007c0008004eb00090078004f04be000000060022
:1007d0000000fa004fb99700e8815700c19520004a
:1007e000e03c2000020007000080fa000000060044
:1007f0006200fa00889fbe008a9fbe000004be000f
:10080000020578008300780060f92f000f00400097
:100810007101070088979f0099979f000000eb00e7
:10082000a09f9f009a4578000b80fb000000ea0023
:10083000cf04de0050c2b30080cf5500020032006a
:1008400009047800010037000904e9000800e0000d
:100850000b0034001f909700080178008a00780090
:100860008f9197000300010090979f000000e00027
:10087000930032002f98970000004400a09f9f0033
:100880000905450050c2b30080cf55000400320076
:100890000b04e000e3ff3a002f989700890037002f
:1008a0000000eb00809f9f00f0979f00e0979f0063
:1008b000d0979f00c0979f00b0979f00c09f9f0058
:1008c00009003700a09d200000805000000040007b
:1008d000e19c2000e10078004f9897000100700033
:1008e000c09f9f000a05e8001a4478008800fb00ba
:1008f000a09d20003d010700800078000000e0007e
:10090000f0ff3a00a0c2b300804f54000e003a003e
:10091000bf8897000180e900b08f9f001000780029
:10092000b09f9f000000e00005003d000000ea00cd
:10093000b09f9f004f9897000020a000c09f9f008d
:100940000a05e80010003700b19f9f00090037003a
:10095000bf989700f0ff2700808f500004003200fe
:100960006a08b9000000410003004000b09f9f00ea
:100970000a05e8001a01fb0003fd2f0003004100f7
:10098000e90f5000f2ff3600e0c2b3009a4f1000aa
:10099000040032000080eb00909f9f008a047800e2
:1009a0001c0037008a04e800a0c2b300994f100071
:1009b00007003a00bf8897000180e900b08f9f00d0
:1009c00010007800909f9f008a84e8001100370093
:1009d0000000eb00909f9f00090037009f98970050
:1009e000f0ff2700808f5000040032006a08b90031
:1009f0000000410003004000909f9f008904e80030
:100a00001901fb0003fd2f0003004100e90f500016
:100a1000f2ff3600194478008800fb00009e200099
:100a2000f20007000000e00002003a0000447800f5
:100a3000010037008904e800a87f9f0080c6b3004a
:100a4000804f540004003a00994f14000a003a0005
:100a50006640500006003700c0c6b300804f540007
:100a600005003a00994f140003003a006540400029
:100a7000a07f9f008904e8000905e800cbfb2f0058
:100a80008f8545001901fb0060f92f000f00400021
:100a90000084e8008b01780080007800080078006e
:100aa000db0007000000e00005003a008b00780042
:100ab00008007800190207000000e00059ff3d001f
:100ac0000080eb004f05be004f04be000080fa001e
:100ad00000000600889fbe008a9fbe0000057800c7
:100ae000810478002d003700c90090006900900053
:100af000808f50000400390009007800d1020700ff
:100b00000000e000350035000040200019006000c2
:100b100009003200a10020000a0078000c03070041
:100b2000800578000000e000040032000a00500058
:100b30000004e80004003700800578000a0078000f
:100b4000a2fe070000047800c9019000690090002f
:100b500003005000880f50000200310000047800ac
:100b60008005eb00080178008a0078000300780017
:100b70008ffe070008054500490090000000440072
:100b8000c00498000b00e000040032000900780067
:100b9000fa0207000000e00010003a001a04e0002a
:100ba000d1ff3a00008020001900600004003200ec
:100bb00009007800f10207000000e00007003a0099
:100bc00000c02000190060000500320049009000bc
:100bd000e00498000000eb00010037000080eb000b
:100be0004f05be004f04be0000000600889fbe00f7
:100bf0008a1f78008004780001047800004578009e
:100c0000c100900068009000808f500004003900ff
:100c1000080078008b0207000000e0001500350096
:100c200048009000095878004004980018007800a7
:100c300000b8a30004003a0000a8a3000600320098
:100c4000ea4f550004003a0008007800cb02070084
:100c50000000e00007003a0000c02000180060001b
:100c60000200320048009000600498000a80fb00f7
:100c7000010037000080eb004f0578004f04be00f4
:100c800000000600889fbe008a9fbe008c9fbe00a9
:100c90008e1f7800810678008304780000067800b3
:100ca0000288b900000778000000e00002003a0066
:100cb00000017800420037000d00e00040003200e3
:100cc00000057800c900900069009000808f5000f6
:100cd00004003900090078005a0207000000e00013
:100ce00029003500004020001900600003003a0090
:100cf0000a047800800578000b0037000a017800ac
:100d0000a10020000c007800d902070080057800bf
:100d10000000e00002003a000a04780002003700f8
:100d20000c0050000004e800c90190006900900028
:100d300003005000880f50000200310000047800ca
:100d40008005eb00080178008c0078000300780033
:100d500017fe0700080646000805550049009000e8
:100d600000004400c00498000b00e00004003200c2
:100d700009007800810207000000e00002003a004c
:100d80000a00e000cfff3a00008020001900600058
:100d900002003200090078007802070000c020003d
:100da000190060000200320049009000e004980041
:100db0000a005700110009000d80d80000017800da
:100dc000020078004f0778004f06be004f05be00b6
:100dd0004f04be00000006000200fa00f1bf9f00b1
:100de000010878000080fa000000060004003700c7
:100df0000204e00001003a00000005000000e800e5
:100e000010417800814f5100f9ff3a0000000600c0
:100e1000889fbe008a1f78000004780001027800d5
:100e20008244780003057800e0c6b300804f51008b
:100e3000d200320015003c006b405000804f510042
:100e4000240032000a003c0070405000804f5100e6
:100e50000f01320065404000804f510074003200a5
:100e600050c2b300804f510020013a001c013700ee
:100e700040c6b300804f51001b0032006540400067
:100e8000804f510019013a001700370030c7b300f6
:100e9000804f5100fe00320007003c0064405000cb
:100ea000804f5100620032000040e800804f510046
:100eb0000e013a00e700370050c7b300804f5100e1
:100ec0005b00320063404000804f510007013a0050
:100ed000570037009180e900010a780078009000ff
:100ee0009171780007013700a8609000c0c6b30078
:100ef00080cf50000a003a009400780064805000cf
:100f0000000a78001000be004f89de00cf91de009d
:100f10000002be000203780082037800130037004d
:100f200010c7b30080cf500003003200a0c6b3004a
:100f300080cf500006003a0094007800688050008e
:100f4000000a78003002be002003be000700370010
:100f50001480e900000a7800100078000002780090
:100f6000cfa2de000503780086037800049cbe0053
:100f70000694be00a860900080c6b30080cf5000e9
:100f80000e00320020c6b30080cf500005003a00aa
:100f90000400fb00cf80de000101780082017800b0
:100fa0000a00370040c7b30080cf50000300320072
:100fb0006640400080cf500006003a0004007800f0
:100fc000cf80de000101780082017800009cbe0025
:100fd0000294be003800be002801be00e00f5000a1
:100fe000e08f5800e00f5900e08f590003003d00ea
:100ff00078009000d1c2b3000a00370008109000ba
:101000000018a3000300320078009000b1c2b300c2
:10101000040037000008a30053003200780090005d
:1010200001c2b300017578000000e8004d003700f0
:10103000a8609000c0c6b30080cf500006003a0000
:101040009400780064805000000a78001002be000e
:101050006033b8001300370010c7b30080cf5000d2
:1010600003003200a0c6b30080cf500006003a0053
:101070009400780068805000000a78003002be00ba
:101080002003be00070037001480e900000a780042
:101090001000780000027800050020000600200003
:1010a00007002000049cbe000694be00a8609000cb
:1010b00080c6b30080cf50000e00320020c6b300bf
:1010c00080cf500005003a000480fb0001002000a2
:1010d00002002000030020000a00370040c7b300d0
:1010e00080cf5000030032006640400080cf5000a7
:1010f00006003a00040078000100200002002000f1
:1011000003002000009cbe000294be000810900066
:101110000038a300140032003800be002801be00d1
:10112000e00f5000e08f5800e00f5900e08f5900a9
:101130000d00320080c7b30080cf5400030032009e
:1011400080c5b30080cf540007003a0078009000bb
:1011500001c3b300017578008000e80009f578004c
:101160000080e800700498007800900000004500be
:10117000600498008940780042003700a860900021
:10118000c0c6b30080cf5000250032000a003c00ea
:101190006440500080cf50002800320000c0e800ba
:1011a00080cf5000140032006840500080cf5000c3
:1011b00022003a000a00370040c7b30080cf500039
:1011c0001e0032006640400080cf50001b003200fd
:1011d0006940500080cf500018003a0006003700e8
:1011e0001480e900000a780010007800485c900044
:1011f00008487800450037001480e900000a7800ac
:101200001002780068089000cf80de0001017800ad
:1012100082017800009abe000292be003b003700b7
:101220001480e900000a7800100178006808900036
:10123000cf80de000089be00340037001480e90052
:10124000000a780010007800680c90000808780008
:101250002e0037001180e900800878001000780027
:10126000cf80de000101780082017800009cbe0082
:101270000294be00780090000000450060049800d1
:1012800081c7b30008007800830107001f00370002
:101290001480e900000a78001000780060049800cb
:1012a000580990000200e00002003d00c7fc070062
:1012b000090037008000eb006d0107008000780016
:1012c0000000e00003003200680090000080500041
:1012d0000100370058089000100c98000b003700f0
:1012e00078009000027578000600370078009000c2
:1012f000800045000904e00001003a0059c2b30033
:10130000894878000000e800700498000000eb00b5
:101310004f0578004f04be00000006000400fa00ec
:10132000889fbe008a9fbe008c1f78000004780052
:101330000106780070089000f8009000010050004d
:1013400088089000010050009808900001005000ab
:10135000a808900001005000b8089000010050005b
:10136000c8089000810550000002220090bf9f0035
:1013700000032300a0bf9f00081090000028a300d6
:1013800018003a000b00e000160034008b047800cf
:1013900009057800e28f5400020036002a00200080
:1013a000020037000900e0000b00340058009000f4
:1013b000c80190000a017800ee8057000300010088
:1013c000500498000000e000960032006808900089
:1013d00000004500600c98008a8454004240a90037
:1013e000ebff3c00780190000200e0000b003400ad
:1013f00058009000c80190008c00780003000100a4
:10140000500498000000e000860032006808900058
:10141000f800900001004000600c9800880c9000db
:101420000900e0001500340009057800e28f54003f
:10143000020036002a002000020037000900e00008
:101440000b00340058009000c80190000a01780099
:10145000ec80570003000100500498000000e000f9
:10146000700032006808900000004500600c980091
:101470008a8454004240a900ebff3c001809900008
:101480000200e0000b003400e800900058009000db
:10149000c801900003000100500498000000e00023
:1014a0006000320068089000980890000100400039
:1014b000600c9800a80c90000900e00015003400b2
:1014c00009057800e28f5400020036002a0020004f
:1014d000020037000900e0000b00340058009000c3
:1014e000c80190000a017800ec8057000300010059
:1014f000500498000000e0004a00320068089000a4
:1015000000004500600c98008a8454004240a90005
:10151000ebff3c00380990000200e0000d003400b1
:10152000e80090001808900080804000580090006b
:10153000c801900003000100500498000000e00082
:101540003800320068089000b808900001004000a0
:10155000600c9800c80c90000900e00015003400f1
:1015600009057800e28f5400020036002a002000ae
:10157000020037000900e0000b0034005800900022
:10158000c80190000a017800ec80570003000100b8
:10159000500498000000e00022003200680890002b
:1015a00000004500600c98008a8454004240a90065
:1015b000ebff3c00081090000028a3001b00320045
:1015c0000b00e000190034008b0478000905780056
:1015d000e28f5400020036002a002000020037008b
:1015e0000900e0000b00340058009000c801900092
:1015f0000a017800ee8057000300010050049800b3
:101600000000e0000700320068089000000045007c
:10161000600c98008a8454004240a9000300340002
:10162000eaff37000080eb00010037000000eb000c
:101630004f0678004f05be004f04be000080fa0040
:1016400000000600889fbe0000047800c0019000e2
:10165000600090008000eb00808f5100390039005d
:10166000180178002000290000006100e20f5000fe
:1016700007003200002020000200e00001003500d9
:1016800000202400000c71008080eb002d0037004a
:101690000100260001006100810f500008003a009f
:1016a00038009000808f5100050039000800780054
:1016b000320007008080eb000000e00021003a00cb
:1016c00000c020001800600017003a00a804900035
:1016d0006002200008004000808f540012003a0091
:1016e00000202000f9010700800078002004980005
:1016f0000000e00005003a00290498004904980021
:101700000900e80030049800060037001860a000c7
:10171000400498000020b00030049800410c98006c
:10172000510c98003b0207002800900050049800dc
:10173000380090006004980000002600180c70002b
:101740008000eb00010078004f04be00000006009e
:101750008001eb0010417800814f510001003a00f8
:10176000800178000204e000020032000000e8007e
:10177000f8ff37000300780000000600889fbe00d5
:10178000000478000000e0000e003a0080047800b9
:1017900048922000180078000000e00004003200a9
:1017a000f6ff07000000e00001003d008084eb0030
:1017b0000884e80040932000800f54002900320084
:1017c000f4ff3700000022001800600024003200ff
:1017d000a80490000800370009015000384090002c
:1017e0000000fb0089007800611607000000e0009f
:1017f000130034008084440048009000808f54001f
:10180000f5ff390028009000400498001801780086
:1018100000c020000000610002003200a80090001b
:1018200001003700b80090000000240000006100b3
:101830000a003200610498008004eb0009003700c0
:10184000280090004004980060049800500c980014
:101850001890a0008084eb0002003700510c980023
:1018600080047800090078004f04be0000000600e4
:101870008001eb00040037008301e80090cf1000e6
:10188000040032000000e800828f5100faff3a00a5
:101890000000eb00000006002f03b000889fbe0090
:1018a0008a9fbe008c9fbe008e1f780000077800c4
:1018b000d09b2000c0b79f0080c5b30080cf5000f0
:1018c00008003200c29a2000c2b79f007740400053
:1018d00080cf500003003a0083002000b3b79f0080
:1018e0000a00370080c7b30080cf500005003200e7
:1018f000a4002000b4b79f0080c5b30080cf500083
:1019000002003a0005012000b5b79f003e04be006a
:101910002e05be0040c6b30080cf50000300320049
:101920006540400080cf50000b003a00e00f5400ab
:10193000e08f5c00e00f5d00e08f5d0006003d0081
:101940006000b8006011b800080450008984580095
:101950000a0559008b8559003fb19700e80f5100e7
:1019600003003200f00f510045003a00020037003a
:101970003c002000010037004c002000e00f540024
:10198000e08f5c00e00f5d00e08f5d0005003a0035
:101990005e08900083012000a3b79f000000e000d4
:1019a000080032003fb297000400e9000800600020
:1019b000cfb297006540780090df9f007001200053
:1019c000a0b79f008c0078008100e900050033007b
:1019d0008b05d1000a85d3008984d3000884d30005
:1019e000f9ff3700089fbe000a97be002fb197008d
:1019f0000200e90023fc2f008f8141000084410098
:101a0000140037002fb097000000e900a0b79f0036
:101a10003fb197000200e90004006000cfb19700d9
:101a2000635478003e00be002e01be000c02780018
:101a30000402e900050033008381d1000281d30054
:101a40008180d3000080d300f9ff3700009fbe00e3
:101a50000297be003e02be002e03be00e00f520001
:101a6000e08f5a00e00f5b00e08f5b00da0034008b
:101a70002fb097000000e000e2ff3c00d6003700e6
:101a8000ae60900080c6b30080cf50000b003200e3
:101a900006003c000104e0000800320066405000ef
:101aa00080cf500073003a0004003700c0c6b30076
:101ab00080cf50006f003a003100370008017800f5
:101ac0000800e00005003a005e0890008101200057
:101ad000a1b79f000000e00009003200bfb19700ed
:101ae000110009000381d8008000fd004fb297006b
:101af0006440780090df9f0075012000a5b79f002b
:101b00003fb29700110009000481d80080017800dd
:101b1000afb297000500e90021fc2f008f80400044
:101b2000008240000c003700bfb29700110009008e
:101b30008501d800000178002fb097000000e9006f
:101b4000a0b79f000590b90000805100cfb097006a
:101b500061527800820178000300e0000300340045
:101b60002fb197000200e000efff3c000300780077
:101b7000cf80de0001017800820178003a00370052
:101b80000806be00e00f5400e08f5c0005003a003c
:101b90005e08900083012000a3b79f000000e000d2
:101ba000090032003fb297006121b9000c00be006d
:101bb0001d030700cfb297006540780090df9f00bb
:101bc00070012000a0b79f003fb297006121b900cb
:101bd0000c00be00e60107000006be00afb2970091
:101be0000500e90021fc2f008f804000808040002c
:101bf00091b79f00110037003fb197006114b90001
:101c00000801be000c00be000a0307000005be006c
:101c1000afb197008301e900a3b79f000801be00a0
:101c20005dfa0700000056001fb29700cfb2970080
:101c30006552780094b79f000a06be00e00f560078
:101c4000e08f5e00030034002fb097000000e0003a
:101c5000e9ff3c004feade00cfa2de000c00be0030
:101c60000401780084017800009fbe000297be0046
:101c700059003700e00f5400e08f5c00e00f5d007a
:101c8000e08f5d0005003a005e08900081012000b1
:101c9000a1b79f000000e0000d0032003fb19700a7
:101ca00002027800cfa2de000503780086037800e8
:101cb0000800be000a01be006e0307004fb2970085
:101cc0006440780090df9f0075012000a5b79f0059
:101cd0003fb1970002027800cfa2de000503780032
:101ce000860378000800be000a01be005a03070000
:101cf000009fbe000297be00afb197000300e9004d
:101d000024fc2f000f02420000064200240037008e
:101d1000bfb2970005047800cfc4de000905780043
:101d20008a0578000802be000a03be005fa897007b
:101d3000efa897007fa997008fb197005103070084
:101d4000d0b79f00e1b79f00f2b79f0083bf9f000d
:101d50002fb097000000e900a0b79f000802be0066
:101d60000a03be005fb09700efb097007fb1970005
:101d70008fb99700c90307005faa970000005200bf
:101d8000cfb29700655678005fb09700efb097002c
:101d90007fb197008fb99700009fbe000297be00e9
:101da0003e00be002e01be00d0af9f00e1af9f00fd
:101db000f2af9f0083b79f00e00f5000e08f580004
:101dc000e00f5900e08f590003003400afb09700d6
:101dd0000100e000ceff3c003fb19700e80f51004a
:101de00013003a000e1090000038a30010003200db
:101df000afb19700f78f510006003e0024fc2f0082
:101e00000f0242008300420000c3b300914f100054
:101e100007003200afb297008502e900a5b79f0026
:101e200000c3b30021fc2f008f80400080f07a00b7
:101e3000afb1970078811100120f98006e009000ea
:101e400024fc2f000f02420083004200d8f9070053
:101e50001e0990005e089000800f510006003d00b2
:101e600002005000000f98000e1090000040a100ea
:101e7000001798000f0037000000e0000d003d0043
:101e80000e10900074006000f00f500009003a003e
:101e90007e089000fe009000010050008e08900027
:101ea00001005000020050004240a900010034002f
:101eb000000f98004f0778004f06be004f05be0088
:101ec0004f04be002f03b10000000600889fbe0033
:101ed000e30440000900a100808f54004a0036004e
:101ee000e38f540001003e0049002000524f800063
:101ef0000200e00002003200820078000c0037008f
:101f0000c19e200003003700908f5400230036004c
:101f10008080e800110078000000e000faff3a003d
:101f20000f003700908f54001c0036008080e800be
:101f3000110078000000e000faff3a00120178007a
:101f4000c19e200003003700908f5400130036001c
:101f50008080e80011007800820f5000faff3a00fc
:101f6000484f8000890f54000100310009047800b7
:101f7000080078007f0007000000e00004003a003d
:101f8000890f5400200032000804d100f5ff37000b
:101f9000081878007e000700d4ff37001101780090
:101fa0009201780064805100890f500003003100d5
:101fb00012009000800878000700370009004100f7
:101fc00080087800920190001300980011007800ba
:101fd0001288140009097800910078000100e000df
:101fe00005003200110090000000e0000200320005
:101ff0000180e800010037000000eb00504f88002e
:102000000280e800010037000000eb004f04be0032
:1020100000000600881f7800e89e20001804e000f9
:1020200004003a00200a21008d00070020c0b30000
:10203000004c78004f04780000000600889fbe0026
:1020400000047800cdfd0700800478000004200023
:102050001800600002003200280090004c000700c9
:102060000000eb0020049800384090000004e000dd
:10207000050035000000fb00860007000000e000be
:10208000010032008084eb00181090000000e00096
:1020900008003200880007000000e0000100320064
:1020a0008084eb0018109000390007000000eb005e
:1020b0001014980000082000180060001000320082
:1020c0000000eb0041922000910f14000700320045
:1020d0000000e8008180e800e80f5000faff3a00b5
:1020e000080078002a0007001300370000014000b4
:1020f0008000eb004092200001307900f8ff3700ab
:10210000000c780000c0eb00304498006002200012
:1021100008004000200498004004980050049800f3
:10212000400c980060049800500c980070049800cf
:1021300076004400000c9800090078004f04be00af
:1021400000000600881f78002893200018007800ff
:102150000000e00001003200b8ff07000884e90039
:1021600020922000800f5400f8ff3a004f047800be
:10217000000006000000e0000300340057000700e4
:10218000e10f400001003a000000eb0000000600f3
:102190000000e000310032008080e9009102780008
:1021a000e38f52002d0036000508a3002b003a00f3
:1021b000624f80000200e00002003200828f500077
:1021c0000400310002087800614f880016003700d3
:1021d00003017800920190000300e0000200320049
:1021e000818f5100faff390012027800040041008b
:1021f000808f500019003900810f500003003a0011
:102200000509420082007800070037000300e00063
:102210000300320005804000808f51000f0039001c
:102220009300980011019800110190000200e00055
:102230000a00320011804000820f500007003a006f
:10224000a09e20000008eb00110090001101780012
:1022500090084100100090009000980000000600d7
:1022600000017800000020000000e00008003200bb
:10227000000080000000e000050032000000e900de
:1022800000008800000040000100800002b07800db
:10229000000006000a00fa0011002000b1bf9f00f4
:1022a000c0bf9f006a80570000c0da004fb8970097
:1022b0000080fa00000006000a00fa005100200029
:1022c000b1bf9f00c0bf9f006a80570000c0da0006
:1022d0005fb897000080fa0000000600889fbe00eb
:1022e00080047800804f80000000e00003003a0086
:1022f000100007000000e0000a003500804f800059
:102300000900e00002003a000004780006003700ef
:102310000004780009004000060007000000e0000b
:1023200001003d000084eb00080078004f04be006f
:1023300000000600800078000000e00004003a0081
:10234000209f2000804f88000101780006003700a0
:102350000081eb0020bf2000808f500002003e0073
:10236000814f88000001eb000200780000000600a9
:102370006022b800060220000000d0008180d20058
:102380000482d2008582d2000000a0000202520026
:1023900083825a00030031000202420083824a0015
:1023a0000000a1000603e900f3ff3a000000060068
:1023b000889fbe008a9fbe00010578000100e000f2
:1023c0000400350008003c000000e000200032005e
:1023d0000500370060001000e080180002003b009c
:1023e00001f02c001a0037000004be006011b80094
:1023f0006b0920000982cf00020039000882cf005b
:102400000441b000694252000e00320008003b0057
:1024100082817100610164008904d1000884d300c5
:102420008b05e8000442e800f9ff3a000500370098
:102430000804440089844c008b05e9000442e9004b
:10244000fbff3a00a50007000af0a70001f0a0007a
:102450004f05be004f04be000000060003f0a200be
:10246000889fbe008a9fbe008c1f7800c1000700b5
:10247000c80033006450e1004f0032006420e100e6
:102480005200320003826c0007003b000905d000b7
:102490000306d000820f54000c065d0002003900d4
:1024a0000200320089017800030678008582550019
:1024b00004003d000003fd008103fd008502ea00e9
:1024c0008b854200840f720002003b006000100008
:1024d000e08018006011b8000005eb007a28e100e8
:1024e0000a00390006007800c75ddd00f707b2007a
:1024f000878075002d003700828171000a01780005
:10250000610560008180d1000080d3008502e90070
:10251000f9ff3b00060440008784480002003b00ae
:1025200060041400e0841c000988a3000700320046
:102530008a81710082817100610164008904d10087
:102540000884d3008b05e800170037000978a30042
:1025500013003a000b00e000130034008b05e90083
:102560000804440089844c000a4474000978a300dc
:102570000d003a000b00e000070034008b05e90075
:102580000804440089844c0001003a000b0020003c
:102590000978a300f7ff32000001eb0002003700ca
:1025a000828171000a0178004c0007000cf0a7003e
:1025b00001f0a000800037006420e10002003a0032
:1025c000838f6c00800033000801be000200be0053
:1025d00079003700889fbe008a9fbe008c1f78005c
:1025e000640007006b00330003866c006450e10058
:1025f0002e0032006420e100330032006150e1001f
:102600002f0032006120e100310032008585550045
:10261000eb07b00009002000080420000500370087
:102620000804440089844c000a003100060343007a
:1026300087834b000001530081815b00f8ff33006a
:102640000203be000800a0000804440089844c0076
:10265000f6ff3900c639dd00830173000100320046
:10266000130020008904d1000884d3000998a30036
:10267000050032000800a7000300a0008904d10073
:102680000884d3008b05e8008904d1000884d300b6
:102690000001eb000281d2001000070001f0a10050
:1026a0000cf0a70001f0a000430037006420e10017
:1026b000450032000801be000200be00f7ff3700ef
:1026c0006120e100400032006000b800f3ff3700f5
:1026d0000000200001f82700f0ff370081002000f3
:1026e000618055000b003d000b00200061fe2f00b3
:1026f0000100e1001d00340082817100610164006d
:102700008904d1000884d3000000e800faff3a00f1
:10271000710020006100640003007000020060008e
:102720000900320061044400e0844c000988a500df
:10273000050032008b05e8006808e10002003a005d
:102740008904d1000884d300f20f20000258e10070
:1027500005003d00c75ddd00f907b2008980750006
:1027600008007800000006000bf827008b007800b6
:10277000000005000004be00160007000003be00b4
:102780000405be000200be0012000700844f750061
:10279000000006000200be006450e10005003600a3
:1027a0006420e100020036000968a30001003a003d
:1027b0000800be000160a0004f0678004f05be0073
:1027c0004f04be0000000600f0ff2f00f1ff2700bd
:1027d000f9ff3700c70ade00f107b200f50fb200bb
:1027e00008003200e1cf4200020032000170a00078
:1027f00024000500810f700001003200040805006c
:1028000044000500810f700002003a00140005002a
:102810008502e9000000400081c04800fcff3b0049
:102820000170a00024000500d1fe07000400be00d6
:1028300000000600839f68000100e00002003d00e8
:1028400060001000e08018000300e00002003d007e
:1028500060011100e0811900c5fe07004f00e00093
:1028600002003b0060001000e0801800000006003d
:10287000881f7800000478005001be004000be00b0
:102880000400400085804800060149008781490016
:10289000009cbe000294be000400e1000588e10037
:1028a0000690e1000798e100020031006800440052
:1028b0001008e8004f04780000000600f487470085
:1028c000889fbe008a9fbe008c9fbe008e1f78002e
:1028d0000205be000004be00d4b79f00e5b79f000c
:1028e000f6b79f0087bf9f000000eb00c0b79f00b6
:1028f000b0b79f00a0b79f0090b79f0080b79f0020
:102900000d042000bfb097004fb0970000014000b9
:102910000000e0000f003d004f08de0000007100e5
:10292000c0b79f009e00070001003d00120020007c
:10293000a100070001003d0012002000a6000700d2
:10294000b1000700b60007000f004000c8ff0700f5
:10295000220037004f08de0000067100ccb79f0050
:102960008f00070001003d001200200092000700c8
:1029700001003d001200200097000700a2000700a0
:102980000fb297009fb297002fb39700bfb3970085
:10299000a90007000000520081805a0002015b007c
:1029a00083815b0080b79f0091b79f00a2b79f0013
:1029b000b3b79f000007eb009f0007000020e10075
:1029c00001a8e10002b0e10003b8e100010031001c
:1029d0001e0020000e005600c0b79f004fb29700a7
:1029e0000400e00007003500100020000100200076
:1029f0006011b80008047000898470000a05710035
:102a00008b8571008d06e900beff3a000400e000ee
:102a100003003d00820007000f00400094ff070004
:102a20004fa897000000e00004003a000fb49700a0
:102a30009fb497002fb59700bfb59700940007008b
:102a40004f0778004f06be004f05be004f04be0082
:102a50004f01b10000000600881f78001800200018
:102a6000881f780095ff07008f87e9004f047800e2
:102a700000000600801feb0090ff07008f87e90031
:102a800000000600889fbe008a9fbe008c1f780051
:102a90006e00070007003d0073000700e00f5b00b9
:102aa000e08f5b0007003d00320007000006eb00ee
:102ab000040037003400070002003d002a00070030
:102ac0001c00200072000700e3ff07000203be00a5
:102ad0000002be000c00e0000100320022000700ee
:102ae0000400be000601be004f0678004f05be0080
:102af0004f04be0000000600889fbe008a9fbe00f3
:102b00008c1f78005100070005003d0056000700ab
:102b1000e00f5b00e08f5b0006003d000400370023
:102b20001900070003003d006000b8006011b80004
:102b30001000070056000700ceff07000203be008a
:102b40000002be000c00e000010032000600070099
:102b50000400be000601be004f0678004f05be000f
:102b60004f04be00000006006000b8006011b8000d
:102b70000000370004025000858258000603590007
:102b800087835900000006000006eb00e00f5200aa
:102b9000e08f5a00e00f5b00e08f5b000000060052
:102ba0000180400090b79f000001eb008fb09700bc
:102bb0000100e000000006000200700090b79f00d6
:102bc0000180400080b79f000001eb00ffa8970044
:102bd0000100e000000006000200700080b79f00c6
:102be000018040006faa9700cf20de000100700036
:102bf000f0af9f0004024200250007004f18de00de
:102c00000002720000000600e4af9f0008044400c8
:102c100089844c000a054d008b854d00000006009c
:102c20003fb29700cfb297005fb39700efb3970022
:102c300000fe2f00000006003fb09700cfb09700c5
:102c40005fb19700efb19700000006000205be00db
:102c50000004be00e00f5000e08f5800e00f590064
:102c6000e08f5900000006006000b8006011b80055
:102c700008045000898458000a0559008b855900c2
:102c80001c002000e00f5200e08f5a0000000600f8
:102c90000800be000a01be0000000600889fbe00ba
:102ca0008a9fbe008c1f78000205be000004be0093
:102cb0000006eb00e00f5000e08f5800e00f5900d5
:102cc000e08f590007003d006000b8006011b800b7
:102cd00008045000898458000a0559008b85590062
:102ce0001c002000e00f5200e08f5a00e00f5b0054
:102cf000e08f5b0002003d000f0007000c00a20007
:102d00000800be000a01be00120007000203be0058
:102d10000002be000c00e0000100320006000700c7
:102d20000400be000601be004f0678004f05be003d
:102d30004f04be00000006006000b8006011b8003b
:102d40000402500085825800060359008783590009
:102d500000000600889fbe008a9fbe008c9fbe00b8
:102d60000404b8000506b8008904460060854e00da
:102d70000606b8000a054600e0854e000706b800c2
:102d80008b054600040eb800890446000a854e00f3
:102d9000e0854d00050eb8000a0546008b854e0003
:102da000060eb8008b0546000416b8000a0546005a
:102db0008b854e000516b8008b054600041eb80032
:102dc0008b0546000800be000a01be004f06be008b
:0c2dd0004f05be004f04be0000000600ce
:020000040000fa
:0200000401f009
:04000c00f8ff0000f9
:020000040000fa
:0200000401f009
:040010007dff000070
:020000040000fa
:0200000401f009
:040014007fff00006a
:020000040000fa
:100008002e3900002e3900002e3900002e3900004c
:100018002e3900002e3900002e3900002e3900003c
:100028002e3900002e3900002e3900004637000016
:100038002e3900002e3900002e3900002e3900001c
:100048002e3900002e3900002e3900000c31000036
:10005800f03000002e3900002e3900002e39000043
:100068002e3900002e3900002e3900002e390000ec
:100078002e3900002e3900002e3900002e390000dc
:100088002e3900002e3900002e3900002e390000cc
:100098002e3900002e3900002e3900002e390000bc
:1000a8002e3900002e3900002e3900002e390000ac
:1000b8002e3900002e3900002e3900002e3900009c
:1000c8002e3900002e3900002e3900002e3900008c
:1000d8002e3900002e3900002e3900002e3900007c
:1000e8002e3900002e3900002e3900002e3900006c
:1000f8002e3900002e3900002e3900002e3900005c
:100108002e3900002e3900002e3900002e3900004b
:100118002e3900002e3900002e3900002e3900003b
:100128002e3900002e3900002e3900002e3900002b
:100138002e3900002e3900002e3900002e3900001b
:100148002e3900002e3900002e3900002e3900000b
:100158002e3900002e3900002e3900002e390000fb
:100168002e3900002e3900002e3900002e390000eb
:100178002e3900002e3900002e3900002e390000db
:100188002e3900002e3900002e3900002e390000cb
:100198002e3900002e3900002e3900002e390000bb
:1001a8002e3900002e3900002e3900002e390000ab
:1001b8002e3900002e3900002e3900002e3900009b
:1001c8002e3900002e3900002e3900002e3900008b
:1001d8002e3900002e3900002e3900002e3900007b
:1001e8002e3900002e3900002e3900002e3900006b
:0801f8002e3900002e39000031
:020000040000fa
:100208002e3900002e3900002e3900002e3900004a
:100218002e3900002e3900002e3900002e3900003a
:100228002e3900002e3900002e3900004637000014
:100238002e3900002e3900002e3900002e3900001a
:100248002e3900002e3900002e3900000c31000034
:10025800f03000002e3900002e3900002e39000041
:100268002e3900002e3900002e3900002e390000ea
:100278002e3900002e3900002e3900002e390000da
:100288002e3900002e3900002e3900002e390000ca
:100298002e3900002e3900002e3900002e390000ba
:1002a8002e3900002e3900002e3900002e390000aa
:1002b8002e3900002e3900002e3900002e3900009a
:1002c8002e3900002e3900002e3900002e3900008a
:1002d8002e3900002e3900002e3900002e3900007a
:1002e8002e3900002e3900002e3900002e3900006a
:1002f8002e3900002e3900002e3900002e3900005a
:100308002e3900002e3900002e3900002e39000049
:100318002e3900002e3900002e3900002e39000039
:100328002e3900002e3900002e3900002e39000029
:100338002e3900002e3900002e3900002e39000019
:100348002e3900002e3900002e3900002e39000009
:100358002e3900002e3900002e3900002e390000f9
:100368002e3900002e3900002e3900002e390000e9
:100378002e3900002e3900002e3900002e390000d9
:100388002e3900002e3900002e3900002e390000c9
:100398002e3900002e3900002e3900002e390000b9
:1003a8002e3900002e3900002e3900002e390000a9
:1003b8002e3900002e3900002e3900002e39000099
:1003c8002e3900002e3900002e3900002e39000089
:1003d8002e3900002e3900002e3900002e39000079
:1003e8002e3900002e3900002e3900002e39000069
:0803f8002e3900002e3900002f
:020000040000fa
:102ddc003d3d000020440000756d00007020000097
:102dec0065760000656e000074730000203d0000e5
:102dfc003d0d000000200000205b00002564000059
:102e0c005d40000025700000203a0000200000000a
:102e1c00202000007374000061740000653d000008
:102e2c0025640000002c0000206600003d250000f9
:102e3c00702c000020000000646100007461000030
:102e4c003d250000702c0000200000007065000083
:102e5c00726900006f6400003d250000642c0000c6
:102e6c00200000006375000072720000656e0000a7
:102e7c00745f0000746900006d6500003d25000062
:102e8c00642c00002000000070720000696f0000cc
:102e9c0072690000747900003d250000642c00006c
:102eac00200000006c690000737400005f6e00006d
:102ebc0065780000743d0000257000000d0a0000cc
:102ecc00000d00000000000066310000002500002d
:102edc00730d00000a00000066320000006600005e
:102eec003300000025730000205300005441000003
:102efc00525400002c200000746900006d65000025
:102f0c00203d000020250000640d00000a00000098
:102f1c0025730000204500004e4400000d0a0000ff
:102f2c00006900006e690000740d0000006900006b
:102f3c006e690000743200000d000000696e000024
:102f4c0069740000330d0000000000003f00000019
:102f5c001b660000001b0000620000001b7f0000cd
:102f6c00000d0000000c000000040000000900002f
:102f7c00001b00005b3300007e000000020000001c
:102f8c000600000003000000190000000b00000008
:102f9c0005000000010000000a0000007f00000096
:102fac001b5b0000440000001b5b000043000000a2
:102fbc001b5b0000420000001b5b00004100000096
:102fcc00464c00004f41000054000000494e0000e8
:102fdc005433000032000000494e00005431000010
:102fec0036000000494e0000543800000055000027
:102ffc00494e0000543300003200000055490000d7
:10300c004e5400003136000000550000494e0000bf
:10301c0054380000000000004d7500006c2d0000bd
:10302c00636800006f6900006365000020530000b6
:10303c0054520000494e0000470000004669000051
:10304c0078650000642000005354000052490000d1
:10305c004e470000004100006e7900002053000034
:10306c0054520000494e00004700000020000000b0
:10307c005b250000735d00003a2000002573000002
:10308c00005b0000257300005d3a0000204e00003c
:10309c006f200000686500006c700000005b000091
:1030ac005245000054550000524e00005d000000d7
:1030bc0025730000000000001b5b0000304b00007b
:1030cc00001b00005b25000075440000001b000085
:1030dc004d1b0000450000001b5b0000440000007d
:1030ec001b5b000043000000080000001b5b00009d
:1030fc0025750000430000000d0a000000000000d0
:10310c00200200002202000024020000260200001f
:10311c0028020000300200003202000034020000dd
:08312c00360200003802000029
:020000040000fa
:10313400889fbe008a9fbe00000478008105780045
:103144008204780003057800420b20008000eb0025
:1031540077f50700299498003a9498001b949800f6
:10316400000ceb004f05be004f04be00000006003b
:10317400889fbe000004780081047800800ab000b3
:103184004d0d0700ee0044000880e80003c4b300be
:103194000041eb001d10070001052000888040005d
:1031a4006800440003c4b3000041eb00171007009b
:1031b4000109200088804000898f500004003200fb
:1031c4000e000900b9587800f100b100f900b1000f
:1031d40009007800fcf40700006499008004eb0007
:1031e400050037000180fb000009b00098909000b2
:1031f40060407c0001000100894078008904e800f7
:103204000860910080cf5000f6ff390010002000c4
:10321400000c78004f04be00000006000008eb001c
:1032240000000600110020000108780000000600dc
:10323400889fbe008a9fbe00800478000080e8005a
:103244000e0a0700688044000c0a070059449000e5
:10325400394d9000ee8544000884fb000880450049
:103264000a85fb0001052000898040000a017800de
:10327400cef407000a044400ee004400a0c0b300ea
:1032840080f07c006f0444000040eb0000f47c00fc
:103294000b0078004f05be004f04be00000006007e
:1032a400889fbe008a1f780000057800810478009a
:1032b4000004eb00020037009a9090000100010026
:1032c40069407c000804e8000004e000faff3a00ca
:1032d4004f0578004f04be0000000600889fbe0022
:1032e4008a9fbe008c9fbe008005780082447800cf
:1032f4008046eb004cc6b3002d00370050c2b3002b
:10330400804f510026003a001a447800628540003c
:1033140050c7b300804f54001b003a001700370019
:103324008984fb000c04fb00110009008804d80008
:10333400804078000004e00002003a000d04e00040
:103344000500320002c3b30002c040009b9090000d
:10335400010001001dc0b300110009008804d80059
:103364008000fd00804478000c00fb00a2002000d7
:10337400110009000200d800004678000c04e000a7
:10338400e7ff3a00090037009b90900050c2b30059
:10339400010001009b909000084078000200370073
:1033a4009b90900002407800010001008a007800a0
:1033b400010578003a4178000204e000cfff3a00aa
:1033c4004f06be004f05be004f04be0000000600bd
:1033d400889fbe000004780021862900b0ff070002
:1033e400384890000004e0001c00320018489000a7
:1033f4000080fb00e800900060c178008004eb00ce
:103404000d00370098909000024078000100010000
:10341400184890000080fb008980fb0001004000f8
:10342400084990000281fb00110009000200d80045
:103434006800900061417800894078003848900025
:103444008904e80080cf5000eeff3900384990002d
:103454007186290008007800a0ff07004f04be0011
:1034640000000600889fbe0000047800d186290071
:103474008bff07008004eb00050037000180fb0090
:103484000009b0009890900060407c0001000100a9
:10349400894078008904e8000860910080cf5000da
:1034a400f6ff3900384090000080fb00b80090001f
:1034b40060c178008004eb000d0037009890900004
:1034c4000240780001000100384090000080fb00b9
:1034d4008980fb0001004000284190000281fb002c
:1034e400110009000200d800380090006141780002
:1034f40089407800584090008904e80080cf50004b
:10350400eeff390008007800b1ff07004f04be0049
:10351400000006000080eb0000000600000006002a
:10352400000005008200fa00889fbe008a9fbe004a
:103534008c9fbe0000057800814478000081eb0078
:10354400100020009a0f100089013a00800a200020
:103554000a0040005b0c070000447800e24f400082
:10356400820132000004e0004f0135000000fb003e
:10357400cf80de0062005000e0805800f30f50005e
:10358400e08f580079013e000060010021003700ff
:10359400120037007300370033013700a2003700f0
:1035a400b60037007101370070013700c8003700da
:1035b40018003700090037008b003700cf003700b0
:1035c40089003700ca003700270137006d00370033
:1035d4002000370041003700c80037005a409000ef
:1035e4000004e000610132000a84e8000800780069
:1035f4000d0f070080447800080078006b0e070068
:103604006800450089407800e80d070021872900fb
:103614000d0037003a4890000004e00053013200e6
:103624006804450008007800050f0700804478000e
:10363400080078007a0e07000a80e80089407800c4
:10364400fc0d0700618729000a00780014ff0700b9
:10365400460137005a4090000004e0001200320096
:103664008a84e80009007800ef0e0700004478001f
:103674000004e0000c00320000c2b300804f54008c
:1036840009003a00218729000a00780004ff070096
:1036940009007800450e070068004500884078005e
:1036a400c20d0700ebff37005a4090000004e00011
:1036b4002e0132008a84e80009007800da0e07003f
:1036c400004478000004e0002801320000c2b30086
:1036d400804f540008013a00240137003a48900012
:1036e4000004e00012003200e804450009007800fc
:1036f400d30e0700004478000004e0000c00320000
:1037040000c2b300804f540009003a0061872900c9
:103714000a007800e2fe070009007800400e070066
:103724000a80e80088407800c20d0700ebff3700ec
:103734003a4890000004e0000c013200e80445001f
:1037440009007800be0e0700004478000004e00081
:103754000601320000c2b300804f5400ef003a006b
:10376400020137000a80e800050e07000004e000ab
:10377400fe003a00a18729000a007800c8fe07006d
:10378400f80037005a4090000004e0000c003200ba
:103794000a84e80008007800a30e070001c2b30001
:1037a400814f500006003a00a18729000a007800e2
:1037b400bbfe070008007800fc0d0700f1ff37008e
:1037c4005a4090000004e000e60032000a84e80059
:1037d40008007800940e070001c2b300814f500026
:1037e400d7003a00df00370068004500010e0700eb
:1037f4000004e00002003a000a007800f4fe07002a
:10380400ef4f5400d9003a005a4090000004e00001
:10381400d6003a003a489000e2ff2f000004e0008e
:10382400d3003200d10037005a4090000004e00079
:10383400ce0032005a419000718629000a007800b7
:10384400a6fe0700090037000a84e8000800780093
:10385400750e07008044780008007800d30d070037
:103864008940780068004500500d07005a409000d8
:103874000004e000f4ff3a00bc0037003a4890002e
:103884000004e000b90032003a499000c1872900e1
:103894000a00780091fe070009003700680445001b
:1038a40008007800660e070080447800080078005d
:1038b400db0d0700894078000a80e8005d0d0700f1
:1038c4003a4890000004e000f4ff3a00a7003700f3
:1038d400218829000a00780071fe070001092000f0
:1038e4008a8040000a00780021fe07009f0037000c
:1038f4000a007800dbfe07009c0037000a86e80017
:103904000c0078005d0807005a4090000080fb001e
:103914006e0040000a0040000048eb003a9290001c
:103924000400e00072003200e8c0b2000880fb002e
:103934000000ea004f00de0029f72f008f844400c6
:10394400801cea006e0045008006780023f72f00f3
:103954008f814100f2c7b3008900780004000100a0
:10396400004478000004e00061003400090078009d
:1039740015f30700800578008004eb00e24f540043
:103984000a0032001800370041f72f000f8440006e
:1039940008044000984078000c007800250d0700ca
:1039a4009a90900018407800010001003a48900075
:1039b400da4090000080fb008180fb0001004000a1
:1039c400f1032000810f500004003c000980fb003b
:1039d4008904e8008b0f5000ebff35000a007800e3
:1039e4007bfe070042003700218829000a00780086
:1039f4002bfe07009a90900000c2b3000100010062
:103a04000004eb00020037009a90900001000100ce
:103a140040f72f008f0440000880fb0060c07c004a
:103a24000804e8000004e000f7ff3a0021882900b8
:103a34000a0078001afe07003a92900023f72f003c
:103a44008f814100f2c7b300890078000d0078002f
:103a5400040001000004e000e6ff3a000a007800d8
:103a640080fe0700220037000a007800f0fd0700fe
:103a7400000deb00218829000a00780008fe0700e9
:103a8400aa919000120020000300e00038003200e8
:103a9400da40900081c0e8006e0045000300010098
:103aa40012002000320037000900fb0027f3070052
:103ab4000000e0002d0032005a409000ba48900007
:103ac4000080fb008180fb0001004000f103200026
:103ad400810f500025003c000a80e80089407800ee
:103ae400c90c07000004e0001b0032001f0037006f
:103af400220020001e003700218729000a007800d8
:103b0400e7fd070009007800280d0700680045005c
:103b140088407800a50c0700e3fe37006187290080
:103b24000a007800defd0700090078003c0d07005c
:103b34000a80e80088407800be0c0700fcfe3700cd
:103b4400a18729000a007800d5fd07000800780045
:103b5400160d07001aff37009a909000094078006c
:103b6400010001000a00780019fe07000001eb00c3
:103b7400020078004f06be004f05be004f04be0091
:103b84000080fa0000000600804078000004e00095
:103b94000700320030c2b30080cf500005003a0065
:103ba400030037000000eb00edcf500007003a009f
:103bb4001000050000c2b30080cf5000fcff3200ab
:103bc400eacf5000f7ff3a00f9ff37000000060083
:103bd400e8874700889fbe008a9fbe008c9fbe0076
:103be4008e1f7800010678008245780083067800ed
:103bf40066014000f08057008208780012007800c7
:103c0400000578000000e00043003200f480570013
:103c1400b0587800b0587800b058780090487800d0
:103c24000007eb00240037000001eb00820446008b
:103c34009940780000c2b30080cf50003a003a00a7
:103c44000201e800f9ff3700edcf50003a003a00d6
:103c54001e0037006fe897000080fb0000814600db
:103c6400890078000a007800030001000004e000e5
:103c7400160035000844e8000000fb0000864400fc
:103c84000880fb0000004000f0805700910078009d
:103c940061007800000578000e07e8000000e000ed
:103ca4000a003200f4805700b0587800b058780009
:103cb400b0587800904878000e4478000b04e00077
:103cc400d9ff32008b4f5700d7ff39000804e000ba
:103cd400110032000b04e000030032008b4f54004b
:103ce4000f003200230037000a00e00021003a00f0
:103cf4000a017800ec4079000201e80000c2b30038
:103d040080cf500015003a00faff3700edcf500085
:103d140015003a00020037000080eb00160037005f
:103d24000000eb001400370009067800eacf5000c9
:103d3400c5ff3a00e5ff370030c2b30080cf500022
:103d4400e2ff32006fb09700900178000d00e000b0
:103d5400c0ff3a000d017800c1ff3700eacf5000e0
:103d6400eaff3a00eeff370030c2b30080cf5000c4
:103d7400ebff32000800fb004f0778004f06be003f
:103d84004f05be004f04be008f00b10000000600c6
:103d94000f0ab000889fbe008a9fbe008c9fbe00a1
:103da4008e1f7800f6825700800a780074805700ce
:103db4000108780002067800f3b79f0084f79f009b
:103dc4007a815700010978008041eb00f3df9f00fe
:103dd4000001eb000f00370001c2b300814f540013
:103de4006c013a0004003700ffda97008542e800ce
:103df400f5df9f0006003700e10040001140780025
:103e0400884f5000020032007a8057000108780081
:103e14000201e8000280fb00f48057009100780062
:103e240000804000104478000804e000eaff3a00f3
:103e34007a81570012007800e3f1070080e79f00c1
:103e44001c00e00097003c00f681570093017800c5
:103e540093047800ffda97000500fb00000140009e
:103e6400a1fd2f008f80400082087800c8e79f00e2
:103e740080c5eb0008477800e8df9f006f0037003b
:103e8400ffda97000504e000080032008001eb002f
:103e9400054178007480570090007800090078008c
:103ea4004bff07000004e0005b003a00668044001a
:103eb400a1fd2f008f804000910078006081780080
:103ec400fe815700820978000200e00014003200ed
:103ed4001fb0970041f52f008f804000b058780044
:103ee400b0587800b0587800904878002f28970090
:103ef400900090000100e0000900320020009000d2
:103f04000000e00006003200020078000100010019
:103f1400804678000005eb000004e0003c003a0015
:103f2400efda97008542e800e5df9f003a003700aa
:103f340089f92f008f8444002f28970020029000d5
:103f440003c4b300090178008a407800fe82570058
:103f540015007800040001000004e0002b00350087
:103f6400c1832900090078009ef107000fe0970043
:103f74000084fb000801780089007800fa8157006a
:103f840013007800a6f107000000e0001f003a00cb
:103f94000884440085f52f008f814200e1cf45005d
:103fa40007003a008800780003007800aef10700ab
:103fb4000800780084f1070080457800120037007b
:103fc40088007800030378000002780084427800b7
:103fd40004007800e0417b000100400090cf5100d4
:103fe40003003a000402e8000304e000f7ff3a008b
:103ff400854578000500fb0082f52f008f00410005
:10400400010040000048eb000e47e8000a05e80004
:104014008acf5600c6ff3e00cfe197008341e800f7
:10402400c3e79f000380fb0000004000f6825700b6
:104034009502780000804200900478000900e000b6
:104044008fff3a000e04e00003003a006fd8970097
:104054000004e000cb0032001c00e00011003a0034
:104064008fe097000104e0000e0032000b04e00032
:104074000c0034000b00fb000000e8000ff1970077
:104084008280fb00810f5000be003c0083f52f00ae
:104094008f8041007fb0970073f10700200020005b
:1040a400c00037008082eb009c8f120001003a00b0
:1040b400000eeb0076805700100078009000780026
:1040c4007fd997000200fb0080024000f88157006e
:1040d400850978000040eb0080df9f000001eb00c1
:1040e400e2af9f00a50037008fd997000380fb0043
:1040f40000004000f68257009502780000804200dc
:10410400900678007fd897000004e0000800320091
:104114008001eb0000417800f4825700950078009c
:104124000d007800aafe07000004e0008a003a00af
:1041340066804600f880570091007800608478001b
:10414400880578000800e0001400320008007800b8
:1041540041f52f008f804000b0587800b0587800a7
:10416400b0587800904878002f289700900090006d
:104174000100e00009003200200090000000e0008f
:1041840006003200080078000100010000477800b2
:104194000005eb000004e0006d003a001c0078000c
:1041a4006fa99700800f510003003d000201e80051
:1041b400e2af9f0068003700000ee8000800e0004e
:1041c400180032002f289700b00190000300e0008f
:1041d4001400320088f92f000f04440002c4b30015
:1041e400880078000b007800030001002d00900087
:1041f4000000e00006003200801f7800881f78006d
:10420400e0832900801f78004fb0970042003700f8
:10421400881f780070842900801f78005fb09700a1
:1042240046003700518529007fb097000ef1070042
:104234005600370089f92f008f8444002f289700f7
:104244002002900003c4b300090178008a4078007a
:104254000b007800040001000004e0003b0035007e
:10426400c183290009007800def007008fe1970080
:104274000381fb0089007800fa825700150078005a
:10428400e7f007000000e00030003a001c0078006e
:10429400efa89700808f500003003d008100e800e4
:1042a400e1af9f0029003700000ee800891f780065
:1042b400e0852900801f78005fb09700f8f00700c0
:1042c40080407800e48757000004e0002f003500a8
:1042d4002f289700b00190000300e0002b0032006b
:1042e4000104fb0002c4b300890078000b007800cd
:1042f40003000100ad0090000100e0000a0032005c
:104304007fb1970008004100811f7800891f780061
:10431400e1832900811f7800e1f0070010002000ec
:10432400e68757001f003700ffb19700088041005f
:10433400891f780071842900811f7800d8f0070054
:1043440010002000e4875700160037000a05e80033
:104354008a4f5700b7ff3e008fda97008542e80086
:1043640085df9f000580fb0000004000f6805700b9
:104374009100780000804000900078000100e00087
:1043840059ff3a000000eb0006003700100020003f
:104394000400370010409000814f50009cfe3a000a
:1043a40091fe37004f0778004f06be004f05be0050
:1043b4004f04be000f0ab100000006006f10b000e9
:1043c400889fbe008a9fbe008c9fbe008e1f78000f
:1043d40000077800810578000000eb00f0b79e002c
:1043e40080bf9e0000017800800178000002780000
:1043f4000b00370030c2b30080cf500002003a00f7
:10440400120020000500370000c2b30080cf500026
:1044140042003a0001003700140020008301e80044
:10442400038545009a407800eacf5000020032002c
:10443400edcf50003c003a00830478006bc07c0050
:10444400ea4f500002003200ed4f50003a003a00ab
:104454008904e800f9ff37001e0478000046eb00e9
:10446400edcfb3002600370020ef2f008f0140006e
:104474000041eb008b00780008007800d4fd0700b1
:104484000004e00018003c0018003a008001eb0032
:10449400030145009240780000c2b30080cf500071
:1044a40028003a008301e800f9ff3700edcf5000ff
:1044b40028003a00ffb196000300e00006003a002d
:1044c400e0ee2f000f004000181878001804900048
:1044d40008087800050037000000eb00f0b79e00e4
:1044e40080c6eb0008003700ddcfb3000c46e800bf
:1044f4000c80fb000000400000004700100478001e
:104504000800e000d8ff3a007fb196000200e00006
:1045140014003a000d00fb00170037000200e00011
:10452400bdff3200bdff37000104e000b1ff3a00d7
:104534000000eb00100037000400e0000d00320022
:10454400c5ff370002057800eacf5000d7ff3a00d4
:10455400d8ff370030c2b30080cf5000e3ff3a00e9
:10456400d4ff37008fb8960023ef2f000f8041004f
:10457400020001000900fb004f0778004f06be004f
:104584004f05be004f04be006f10b10000000600ce
:10459400889fbe008a9fbe008c9fbe008e1f78003d
:1045a400010778000086fb000d0020000285fb0057
:1045b4000b0020001104be000c80ea008d80ea008c
:1045c4000a01be0069f707000081eb00880f500064
:1045d400898f5800060039000a01be000800be0099
:1045e400ecef07000c1f40000d9748000001eb00a2
:1045f400020078004f0778004f06be004f05be004a
:104604004f04be0000000600f0874700889fbe00ec
:104614008a9fbe008c9fbe008e1f780081067800a2
:1046240002067800314478006011b800f2b79f00a8
:1046340083bf9f00b2b79f00c3b79f001200200042
:1046440003002000d2b79f00e3b79f00640040003e
:1046540010417800c2e79f0010409000d0e79f000f
:104664000d8550000d0778008004eb008905780063
:10467400d80037006148b800ef0f5000e08f5800b1
:10468400ca003e00006001000f003700350037000b
:104694007a00370059003700810037008c0037005a
:1046a400c2003700c100370018003700530037003c
:1046b40068003700710037003600370040003700cb
:1046c40093003700a400370019002000d0c2b300c3
:1046d400804f5400b500320001c3b30089002000ac
:1046e400814f5400b10032000040e800804f540074
:1046f40011003200f0ccb30000404400e84f5000f9
:10470400a1003e000140540032003700390020006f
:1047140080c7b300804f5400a40032002900200059
:1047240076405000804f5400a0003200e0c2b30035
:10473400804f540005003a006000b800f0b79f00b5
:1047440081bf9f00490020009800370000cdb300ce
:1047540000404400a2c0b300e74f500042003600be
:104764008900370000cdb30000404400e94f5000f9
:104774000d003600e0c2b300804f540082003a00be
:104784006000b800f0b79f0081bf9f00590020006f
:104794008600370000cdb3000040440059002000db
:1047a400e94f500011003e00a2c0b300f280570050
:1047b40077ff07000004e0007b003d007200370033
:1047c40000cdb3000040440049002000e94f5000f0
:1047d40006003e00a2c0b300f28057006cff070041
:1047e4000004e0006e003d0067003700e0c2b30043
:1047f400804f54006d0032006300370000cdb300d9
:1048040000404400e94f50000c003600f0c9b300ea
:1048140000404400e54f500002003e0090cab3003f
:1048240005003700f0cbb30000404400e54f5000d2
:1048340055003e0090ccb3000040440002c1b300d8
:10484400f280570052ff07000004e00052003d00d0
:104854004d00370000cdb30000404400e74f500046
:1048640049003e0082c0b300f280570048ff0700b1
:104874000004e00046003d004300370000cdb300d3
:1048840000404400e14f50003f003e0022c0b3000e
:10489400f28057003eff0700b90020002b003700cc
:1048a40000cdb30000404400e94f500036003e0004
:1048b400a2c0b300fa80570035ff0700690020004a
:1048c4000004e0000d003500e90020000b00370073
:1048d40000cdb30000404400e94f50002a003e00e0
:1048e400a2c0b300fa80570029ff07006900200026
:1048f4000004e00001003500f9002000a0002000c1
:1049040001002000d0b79f00e1b79f0027003700c7
:1049140000cdb30000404400e94f50001a003e00af
:10492400a2c0b300fa80570019ff070069002000f5
:104934000004e00001003500e9002000a2c0b3003b
:10494400f68057000040eb0011ff07000004e00070
:1049540016003d000c00370000cdb30000404400b9
:10496400e94f500008003e00a2c0b300fa8057008f
:1049740007ff0700690020000004e000efff350096
:10498400f9002000edff3700690020000700370020
:10499400a90020000500370099002000030037001b
:1049a400d900200001003700c9002000610747003a
:1049b4000b80460010449000f0072000800f550043
:1049c40038013c008b05e8000a05e800e68f540036
:1049d400340132000804e00004003200084078008a
:1049e40069fc07000000e00022ff3200eb8f540056
:1049f40007003e00e88f54000d003100e48f54009e
:104a04009e003200e58f540026013a00de00370094
:104a1400ed8f54000600320057003900ee8f540029
:104a240096003200ef8f54001e013a00d600370082
:104a34002fb09700e30f500007003a007fb09700b3
:104a44008fb89700f2072000820f5000e08f5800c3
:104a540014013e001b003700e40f500007003a0029
:104a64007fb097008fb89700f2ff2700820f5000a5
:104a7400e08f58000b013e001d003700e50f500089
:104a840008003a007fb097008fb89700e00f5000fd
:104a9400e08f5800030135000c00e000fe003200f6
:104aa4005b0037000000e0000a003a007fb0970086
:104ab4008fb89700f20f2000820f5000e08f58004b
:104ac400f8003e000c00e000f3003200004e7800d5
:104ad400f1003700e10f500009003a007fb0970061
:104ae4008fb89700e10f4000e08f5800ed003e00c2
:104af4000c00e000e8003200000e7800e600370009
:104b0400e20f500005003a000c00e000e200320021
:104b14007fb097008fb897003d003700e60f500034
:104b2400e0003a000c00e000db0032007fb19700a7
:104b34008fb99700e00f5100e08f59000300350052
:104b44000200be0019f60700090037006100610089
:104b5400010020008301d1000281d3000200700013
:104b64008380700011f607000001be003bf60700c9
:104b74000001be003f0037002fb09700e30f500044
:104b84000a003a007fb097008fb89700020820000f
:104b9400820f5000e08f5800c2003e000c00e0007d
:104ba400bd003200004eea00bb003700e40f5000a5
:104bb4000a003a007fb097008fb8970002002800df
:104bc400820f5000e08f5800b6003e000c00e00059
:104bd400b1003200000eea00af003700e50f5000cc
:104be4000d003a007fb197008fb9970000002000b4
:104bf40001002800800f5100818f5900a9003e0058
:104c04000c00e000a400320060001100e0801900f4
:104c1400008ebe00a0003700e60f5000a1003a004d
:104c24000c00e0009c0032007fb197008fb9970020
:104c3400e00f5100e08f5900030035000200be0070
:104c4400daf5070009003700610061000100200067
:104c54008301d1000281d3000200700083807000c0
:104c6400d2f507000001be00fcf507000001be00fc
:104c740003f0a200028ebe00870037002fb0970019
:104c8400e60f500087003a000c00e000820032007a
:104c94007fb197008fb99700e00f5100e08f590062
:104ca400040035000200be00c0f507000005be0088
:104cb4000a00370061006100010020008301d10077
:104cc4000281d3000200700083807000b7f50700f2
:104cd4000001be00e1f507000005be003fb19700ea
:104ce400cfb19700e00f5100e08f59000400350068
:104cf4000200be00adf507000004be000a00370044
:104d040061006100010020008301d1000281d30011
:104d14000200700083807000a4f507000001be004b
:104d2400cef507000004be005fb19700efb1970015
:104d3400e00f5100e08f5900030035000200be006f
:104d44009af50700090037006100610001002000a6
:104d54008301d1000281d3000200700083807000bf
:104d640092f507000001be00bcf507000001be007b
:104d74000800be0016f607000001be000a00be00cf
:104d8400b6f5070043003700afb09700e68f500038
:104d940044003a000c00e0003f0032007fb197006d
:104da4008fb99700e00f5100e08f590004003500df
:104db4000200be007df507000005be000a003700b2
:104dc40061006100010020008301d1000281d30051
:104dd400020070008380700074f507000001be00bb
:104de4009ef507000005be003fb19700cfb19700c4
:104df400e00f5100e08f5900040035000200be00ae
:104e04006af507000004be000a0037006100610073
:104e1400010020008301d1000281d3000200700050
:104e24008380700061f507000001be008bf5070068
:104e34000004be005fb19700efb19700e00f51008e
:104e4400e08f5900030035000200be0057f507004b
:104e54000900370061006100010020008301d100d6
:104e64000281d30002007000838070004ff50700b8
:104e74000001be0079f507000001be000800be0075
:104e8400d3f507000001be000a00be0073f5070059
:104e940001f0a200008ebe000d4057000000fb0090
:104ea400010037000080eb004f0778004f06be007a
:104eb4004f05be004f04be000f01b1000000060004
:104ec4000200fa00889fbe0081047800640040005c
:104ed40090407800a1ff9f0010409000b0ff9f0019
:104ee4000284fb005fb8970000004000a18e200000
:104ef4000100400008017800900078000900780063
:104f0400f8ed0700888044000040eb00f0f89f00b3
:104f14000000eb004f04be000080fa000000060011
:104f2400220420001241780000ceb3004260b70092
:104f34006000b8008048880091488800a048880034
:104f4400b148880000ceb3000041610042c0bf00f8
:104f54007f4060000240700042e0b700000006009d
:104f6400230420009341780000ceb3004260b700d0
:104f7400a0488000b148800002ceb30082c1610025
:104f840022042000124178007f4161000341710036
:104f94000001fd0042e0b7000001fd000100200017
:104fa40000000600230420009341780000ceb300e3
:104fb4004260b700804880009148800002ceb30070
:104fc40082c1610022042000124178007f41610007
:104fd400034171000001fd0042e0b7000001fd0043
:104fe40000000600230420009341780000ceb300a3
:104ff4004260b700604880007148800002ceb30070
:1050040082c1610022042000124178007f416100c6
:10501400034171000001fd0042e0b7000001fd0002
:10502400000006008001780022042000124178006c
:1050340001ceb300014078004260b700a44880006c
:10504400b54880008648800097488000014161008f
:105054002104200091407800ffc0600082c07000ed
:105064000100780042e0b700a4019800b50198005f
:105074008689be0003007800000006000003be001d
:10508400250420009542780004ceb3000440780043
:105094004260b7008248880093488800a648880088
:1050a400b748880084c2620042c0bf007f406000ed
:1050b4000540700042e0b7000000060042c0bf0097
:1050c4000080fb004502de0000ceb3004260b70062
:1050d400406622000100200062488000734880007e
:1050e40002014000838148006248880073488800b8
:1050f400824880009348800002004000838048007a
:105104000a003700a0488000b148800061004000d8
:10511400e0804800a0488800b148880080488000aa
:105124009148800002005000838058008048880025
:10513400914888008048800091488000022424001f
:10514400f3002000820f5000838f5800edff3c00d5
:10515400c520dd0042c0bf007f40600001407000f8
:1051640042e0b7000000060080017800220420001d
:105174001241780001ceb300014078004260b700cc
:1051840066488000774880000141610021042000c6
:1051940091407800ffc0600082c070000100780078
:1051a40042e0b700813e2000011ab800210420002b
:1051b4009140780000ceb3004260b700624880009e
:1051c4007348800080c0600042c0bf007f40600020
:1051d4000140700042e0b700060151008781590088
:1051e400840f5100858f5900f0ff35000000060040
:1051f40080427800240420001442780001ceb300d9
:10520400014078004260b7006011b800824888000d
:1052140093488800a2488800b3488800014262008d
:105224002104200091407800ffc0600084c0700019
:105234000100780042e0b7000542780063002000d6
:105244000001eb00018622000040eb0071043700ee
:105254000042780081017800810278000507b200dd
:1052640067c160000004e0000f00320087c0a9009d
:1052740087e0a900b3c0bf0081cfb3000140600044
:1052840002407000b3e0b7004429de004411dd00a1
:10529400b3c0bf00f1c8b300014060000240700019
:1052a400b3e0b7000e0037008560a9008580a9002f
:1052b4004411dd00a9c0bf00f1c8b3000140600083
:1052c40002407000a9e0b7004429de00aac0bf0074
:1052d40081cfb3000140600002407000aae0b70033
:1052e400688061004300de000404e0000600320030
:1052f400c600dd0097c0bf000064a100014070003b
:1053040097e0b70005003700c300dd0095c0bf007b
:105314000034a1000140700095e0b7000308b2001a
:105324004718de000404e00006003200c700dd0078
:1053340097c0bf000074a1000140700097e0b7005f
:1053440000000600c400dd0095c0bf000044a100b9
:105354000140700095e0b7000000060002037800e9
:10536400a2c0b3000440bc00680041006488290066
:10537400640078000308780064007900010878006c
:105384000280e80064007800060878000000060047
:10539400ee874700889fbe008a9fbe008c9fbe0098
:1053a4008e1f7800804578000104780042c0bf0059
:1053b4000080fb004507de0000ceb3004260b7006a
:1053c4000100e00011003a000b04e0004b003a0039
:1053d400bfb09700638070000020a100b0b79f00a9
:1053e400c8b79f00e0ff2f00d0b79f0080c0b30074
:1053f400c0ef9f0000202c0011002000f0b79f0098
:1054040081bf9f007a845700020037000b04e0003c
:105414003a003a0003c1b3000041eb00c18f200001
:10542400608d20007907070043c0b3000041eb0002
:10543400818f2000a08c200074070700980078005a
:105444006180600005003a0080467800000478001e
:1054540000067800faff27002c0037009cf12f008b
:105464000118a30001003a007cf72f006482600059
:105474008080eb0001003a0071ff2f0018009000bb
:105484000000e00004003a0068409000e84f50003b
:1054940002003a0090ff2f008080600048019000d5
:1054a400d801900028009000808460000400e0008f
:1054b400050032004218dd00ce11de0083017000c9
:1054c4004211dd0004003700c418dd00cc11de00f9
:1054d400838170004411dd0000a0250021262000f6
:1054e400a2f307000004e900f0c02c00008564006a
:1054f4008046eb00d9752100050037006dc1b3006b
:105504000004eb00080678000085eb0088047800ae
:105514008c0078000b4078004dff07000b407800aa
:10552400a2c0b3000440bc006800410061882900a7
:105534006100780008087800610079000a087800a2
:105544000281e8006100790009087800c570dd0077
:1055540042c0bf007f4060000140700042e0b700dd
:105564000d00fb004f0778004f06be004f05be003c
:105574004f04be00ef00b1000000060000027800f6
:10558400904078000001eb00020037000280fb002d
:10559400e44078008241780030c2b30080cf5000ec
:1055a400030032000201e8000104e000f7ff3a00c2
:1055b4000380fb0000000600881f780000047800c8
:1055c400eeff07000080fb000001440092407800d9
:1055d4008001eb0030c2b30080cf500001003a00dc
:1055e400e1014100030078004f0478000000060048
:1055f4000200fa00889fbe008a9fbe008c1f7800bc
:1056040081057800020678001104e00039003200b8
:105614006400400090407800c1f79f001040900063
:10562400d0f79f006c805700100478000800e00059
:105634001900320008007800d0ff07008044780089
:10564400fe4f50000b003e000085fb000a0178006d
:10565400880078000b007800f1eb07000000e00000
:1056640004003a006b407d0047f907000000e000a9
:1056740006003a0008007800cfff07000004780015
:105684000000e0001b003200eaff37000800e000e1
:105694000d003a0017003700884478006b407c0006
:1056a40039f907000000e00005003a000804e800aa
:1056b40000022000800f54000e003200f6ff370075
:1056c400fe4f54000b003e000c00e00007003200c7
:1056d4000984fb00080178008b0078000c00780036
:1056e40000ec07000040eb0000747e000900fb00a2
:1056f400010037000080eb004f0678004f05be0024
:105704004f04be000080fa00000006000200fa0008
:10571400881f78006400400090407800c1ff9f001b
:1057240010409000d0ff9f006fb897000004eb007a
:105734000000e00009003200e48057001100780006
:105744009dff0700e4805700800878000804e80003
:105754000000e000f8ff3a000800fb004f04780066
:105764000080fa00000006000200fa00889fbe00d4
:105774008a9fbe008c1f780001457800820578005e
:10578400034678006400400090407800c1f79f0011
:1057940010409000d0f79f006c8057009004780070
:1057a4000a447800030037000900780082ff0700ec
:1057b400800478000844e900e14f4400030032000b
:1057c4000900e000f8ff3a00110037000900e0008a
:1057d4000f0032000900780068ff07000084fb0016
:1057e4000c80fb000000e900800f540008003c001e
:1057f40008017800890078000b0078006beb070043
:105804000040eb0000f47d000000eb0001003700d5
:105814000080eb004f0678004f05be004f04be0029
:105824000080fa00000006000200fa00889fbe0013
:1058340001047800824478006400400090407800bd
:10584400a1ff9f0010409000b0ff9f00e68057002a
:10585400110078000000e0000700320056ff070046
:105864000981fb00218129000000e00004003a00c6
:1058740041822900020037000281fb0011832900c4
:105884000800780097eb07000980fb000000440043
:105894008040eb0071f89f000000eb004f04be0055
:1058a4000080fa0000000600881f780000027800db
:1058b400104090000080fb00a400900060c47800b9
:1058c4008003eb0010003700144090000181fb00be
:1058d400944090000080fb000200400081017800a9
:1058e400110009000500d8008101fd008180fb0042
:1058f400828040008100e800110009008500d80082
:105904008000fd00e0717b00874078003440900007
:105914008703e800240390009482fb0080cf5000aa
:10592400e9ff3900144090000080fb0005004000ae
:105934000000e900110009000500d80088707b0010
:1059440014409000144040000040e90010429800c8
:10595400144090000080fb001481fb00110009003a
:105964000280d80011429800244090001440400066
:105974000040e90020429800244090000080fb0091
:10598400110009000280d800214298004f047800d9
:1059940000000600881f7800000278002040900074
:1059a4000080fb00a400900060c478008003eb003a
:1059b40012003700244090000181fb00a4409000b5
:1059c4000080fb00050040000200500081017800c7
:1059d400110009000500d8008101fd008180fb0051
:1059e40085804000828050008100e9001100090098
:1059f4008500d8008000fd00e0717b0087407800be
:105a0400344090008703e800240390009482fb0054
:105a140080cf5000e7ff3900244090000080fb0055
:105a24000000e800110009000500d80088707b0020
:105a3400144090000040e800104298001440900088
:105a44000080fb001481fb00110009000280d800d3
:105a540011429800244090000040e8002042980041
:105a6400244090000080fb00110009000280d8004f
:105a7400214298004f04780000000600881f780037
