:020000040000fa
:080000000002040000000000f2
:020000040000fa
:100400006faf2000007f2400000188000000000082
:100410000c00070040ef2100010020001100070040
:10042000000020000000e000020032000000020096
:1004300000000000f4230200000000000040da0089
:100440000000fe004440a900200520000000e0005c
:100450000300320000002000a00188004440a800f2
:100460000000060091018800800078000000eb0089
:1004700015003700e280400032a0b4009101ba00bc
:10048000e280400032a0b4009102ba00e280400055
:1004900032a0b4000002eb00472bde00f507b200eb
:1004a000602ce10004003a000059eb008301e900f0
:1004b000fdff3e00040037006128e100010032002a
:1004c0000082eb00040007001101ba000200e00006
:1004d000e8ff3a00000006003159ba008301e90044
:1004e0000c0032002159ba008301e90008003200f3
:1004f0000400e00003003a00e280400032a0b400b3
:10050000f5ff370011d9ba008301e900faff3a007c
:100510008100e800e180400032a0b4000000060045
:1005200000000000000000000000000000000000cb
:1005300000000000000000008001eb000200370016
:1005400061f079008301e800828f5100fcff3a00de
:100550000000060001862000200007000000e000e7
:100560000600350001862000a00020006100070081
:100570008000eb000000e00001003d008080eb0007
:100580000100780000000600889fbe00800478000b
:100590000100780002047800890178001100200031
:1005a0007a000700880f5000010032008004eb0041
:1005b000090078004f04be00000006000000fa00a9
:1005c0004fb99700e881570001862000402c200099
:1005d000c30007000080fa0000000600889fbe00ec
:1005e0008a9fbe0000057800810478002d00370046
:1005f000c900900069009000808f5000040039000d
:10060000090078006f0107000000e00035003500a8
:10061000004020001900600009003200a100200005
:100620000a007800aa010700800578000000e000b9
:10063000040032000a0050000004e8000400370003
:10064000800578000a007800ac01070000047800fb
:10065000c90190006900900003005000880f50000d
:1006600002003100000478008005eb0008017800ea
:100670008a00780003007800afff070008054500f6
:100680004900900000004400c00498000b00e00006
:1006900004003200090078009f0107000000e0001c
:1006a00010003a001a04e000d1ff3a000080200058
:1006b000190060000400320009007800960107006c
:1006c0000000e00007003a0000c0200019006000b0
:1006d0000500320049009000e00498000000eb00a3
:1006e000010037000080eb004f05be004f04be0044
:1006f00000000600889fbe008a1f780080047800f2
:100700000104780000457800c10090006800900066
:10071000808f50000400390008007800290107008c
:100720000000e000150035004800900009587800ee
:10073000400498001800780000b8a30004003a00b4
:1007400000a8a30006003200ea4f550004003a005a
:1007500008007800700107000000e00007003a0080
:1007600000c0200018006000020032004800900025
:10077000600498000a80fb00010037000080eb0055
:100780004f0578004f04be0000000600889fbe00a1
:100790008a9fbe008c9fbe008e1f78008106780065
:1007a00083047800000678000288b900000778000a
:1007b0000000e00002003a0000017800420037002b
:1007c0000d00e0004000320000057800c9009000f4
:1007d00069009000808f5000040039000900780003
:1007e000f80007000000e00029003500004020006c
:1007f0001900600003003a000a04780080057800c0
:100800000b0037000a017800a10020000c007800de
:100810007e010700800578000000e00002003a0039
:100820000a047800020037000c0050000004e800c1
:10083000c90190006900900003005000880f50002b
:1008400002003100000478008005eb000801780008
:100850008c0078000300780037ff07000806460088
:10086000080555004900900000004400c0049800ad
:100870000b00e000040032000900780026010700a8
:100880000000e00002003a000a00e000cfff3a005a
:10089000008020001900600002003200090078008a
:1008a0001d01070000c02000190060000200320096
:1008b00049009000e00498000a0057001100090068
:1008c0000d80d80000017800020078004f07780002
:1008d0004f06be004f05be004f04be0000000600dc
:1008e0006200fa00889fbe008a9fbe000004be001e
:1008f000020578008300780060f92f000f004000a7
:100900004c01070088979f0099979f000000eb001b
:10091000a09f9f009a4578000b80fb000000ea0032
:10092000cf04de0050c2b30080cf55000200320079
:1009300009047800010037000904e9000800e0001c
:100940000b0034001f909700080178008a0078009f
:100950008f9197000300010090979f000000e00036
:10096000930032002f98970000004400a09f9f0042
:100970000905450050c2b30080cf55000400320085
:100980000b04e000e3ff3a002f989700890037003e
:100990000000eb00809f9f00f0979f00e0979f0072
:1009a000d0979f00c0979f00b0979f00c09f9f0067
:1009b00009003700e08d200000805000000040005a
:1009c000218d2000e10078004f9897000100700011
:1009d000c09f9f000a05e8001a4478008800fb00c9
:1009e000e08d200018010700800078000000e00082
:1009f000f0ff3a00a0c2b300804f54000e003a004e
:100a0000bf8897000180e900b08f9f001000780038
:100a1000b09f9f000000e00005003d000000ea00dc
:100a2000b09f9f004f9897000020a000c09f9f009c
:100a30000a05e80010003700b19f9f000900370049
:100a4000bf989700f0ff2700808f5000040032000d
:100a50006a08b9000000410003004000b09f9f00f9
:100a60000a05e8001a01fb0003fd2f000300410006
:100a7000e90f5000f2ff3600e0c2b3009a4f1000b9
:100a8000040032000080eb00909f9f008a047800f1
:100a90001c0037008a04e800a0c2b300994f100080
:100aa00007003a00bf8897000180e900b08f9f00df
:100ab00010007800909f9f008a84e80011003700a2
:100ac0000000eb00909f9f00090037009f9897005f
:100ad000f0ff2700808f5000040032006a08b90040
:100ae0000000410003004000909f9f008904e8003f
:100af0001901fb0003fd2f0003004100e90f500026
:100b0000f2ff3600194478008800fb00408e200078
:100b1000cd0007000000e00002003a000044780029
:100b2000010037008904e800a87f9f0080c6b30059
:100b3000804f540004003a00994f14000a003a0014
:100b40006640500006003700c0c6b300804f540016
:100b500005003a00994f140003003a006540400038
:100b6000a07f9f008904e8000905e800cbfb2f0067
:100b70008f8545001901fb0060f92f000f00400030
:100b80000084e8008b01780080007800080078007d
:100b9000b60007000000e00005003a008b00780076
:100ba00008007800f40107000000e00059ff3d0054
:100bb0000080eb004f05be004f04be000080fa002d
:100bc00000000600889fbe0000047800c00190006d
:100bd000600090008000eb00808f510039003900e8
:100be000180178002000290000006100e20f500089
:100bf00007003200002020000200e0000100350064
:100c000000202400000c71008080eb002d003700d4
:100c10000100260001006100810f500008003a0029
:100c200038009000808f51000500390008007800de
:100c3000390007008080eb000000e00021003a004e
:100c400000c020001800600017003a00a8049000bf
:100c50006002200008004000808f540012003a001b
:100c6000002020008e0207008000780020049800f9
:100c70000000e00005003a002904980049049800ab
:100c80000900e80030049800060037001860a00052
:100c9000400498000020b00030049800410c9800f7
:100ca000510c9800d00207002800900050049800d2
:100cb000380090006004980000002600180c7000b6
:100cc0008000eb00010078004f04be000000060029
:100cd0008001eb0010417800814f510001003a0083
:100ce000800178000204e000020032000000e80009
:100cf000f8ff37000300780000000600800078004d
:100d0000010037000000e8001004e000fdff3a0099
:100d10000100500000000600889fbe00000478001b
:100d20000000e0000e003a00800478008882200075
:100d3000180078000000e00004003200f6ff070011
:100d40000000e00001003d008084eb000884e80022
:100d500080832000800f540029003200f4ff370008
:100d6000000022001800600024003200a804900057
:100d70000800370009015000384090000000fb00d7
:100d800089007800ac0f07000000e0001300340079
:100d90008084440048009000808f5400f5ff3900a3
:100da00028009000400498001801780000c020003e
:100db0000000610002003200a8009000010037002e
:100dc000b800900000002400000061000a0032001a
:100dd000610498008004eb000900370028009000af
:100de0004004980060049800500c98001890a000ef
:100df0008084eb0002003700510c980080047800da
:100e0000090078004f04be00000006008001eb00de
:100e1000040037008301e80090cf10000400320086
:100e20000000e800828f5100faff3a000000eb005a
:100e3000000006000200fa00f1bf9f0001087800e0
:100e40000080fa0000000600040037000204e00001
:100e500001003a00000005000000e80010417800a1
:100e6000814f5100f9ff3a0000000600889fbe0044
:100e70008a1f78000004780001027800824478001c
:100e800003057800e0c6b300804f5100d200320065
:100e900015003c006b405000804f51002400320090
:100ea0000a003c0070405000804f51000f0132009a
:100eb00065404000804f51007400320050c2b300c2
:100ec000804f510020013a001c01370040c6b3009a
:100ed000804f51001b00320065404000804f5100a0
:100ee00019013a001700370030c7b300804f510096
:100ef000fe00320007003c0064405000804f51006b
:100f0000620032000040e800804f51000e013a00bc
:100f1000e700370050c7b300804f51005b0032003c
:100f200063404000804f510007013a0057003700ee
:100f30009180e900010a78007800900091717800b2
:100f400007013700a8609000c0c6b30080cf5000f2
:100f50000a003a009400780064805000000a78008b
:100f60001000be004f89de00cf91de000002be00ff
:100f700002037800820378001300370010c7b30023
:100f800080cf500003003200a0c6b30080cf5000d5
:100f900006003a009400780068805000000a78004b
:100fa0003002be002003be00070037001480e900b5
:100fb000000a78001000780000027800cfa2de005e
:100fc0000503780086037800049cbe000694be00ea
:100fd000a860900080c6b30080cf50000e003200a1
:100fe00020c6b30080cf500005003a000400fb008b
:100ff000cf80de0001017800820178000a0037000e
:1010000040c7b30080cf500003003200664040006c
:1010100080cf500006003a0004007800cf80de0048
:101020000101780082017800009cbe000294be009d
:101030003800be002801be00e00f5000e08f5800cd
:10104000e00f5900e08f590003003d007800900048
:10105000d1c2b3000a003700081090000018a300a6
:101060000300320078009000b1c2b30004003700e2
:101070000008a300530032007800900001c2b300c2
:10108000017578000000e8004d003700a86090006e
:10109000c0c6b30080cf500006003a00940078002c
:1010a00064805000000a78001002be006033b8006f
:1010b0001300370010c7b30080cf50000300320088
:1010c000a0c6b30080cf500006003a00940078001c
:1010d00068805000000a78003002be002003be0085
:1010e000070037001480e900000a7800100078003b
:1010f0000002780005002000060020000700200004
:10110000049cbe000694be00a860900080c6b30098
:1011100080cf50000e00320020c6b30080cf5000b8
:1011200005003a000480fb000100200002002000be
:10113000030020000a00370040c7b30080cf5000f2
:10114000030032006640400080cf500006003a00a5
:1011500004007800010020000200200003002000ad
:10116000009cbe000294be00081090000038a3004e
:10117000140032003800be002801be00e00f50000d
:10118000e08f5800e00f5900e08f59000d00320049
:1011900080c7b30080cf54000300320080c5b30085
:1011a00080cf540007003a007800900001c3b300dc
:1011b000017578008000e80009f578000080e800fb
:1011c00070049800780090000000450060049800ca
:1011d0008940780042003700a8609000c0c6b30084
:1011e00080cf5000250032000a003c0064405000cf
:1011f00080cf50002800320000c0e80080cf5000af
:10120000140032006840500080cf500022003a00a5
:101210000a00370040c7b30080cf50001e003200e4
:101220006640400080cf50001b00320069405000f3
:1012300080cf500018003a00060037001480e90003
:10124000000a780010007800485c90000848780098
:10125000450037001480e900000a78001002780089
:1012600068089000cf80de000101780082017800dc
:10127000009abe000292be003b0037001480e900d5
:10128000000a78001001780068089000cf80de0026
:101290000089be00340037001480e900000a78009d
:1012a00010007800680c9000080878002e003700c5
:1012b0001180e9008008780010007800cf80de00ff
:1012c0000101780082017800009cbe000294be00fb
:1012d00078009000000045006004980081c7b300ca
:1012e00008007800980107001f0037001480e9000b
:1012f000000a7800100078006004980058099000f7
:101300000200e00002003d007cfe070009003700fb
:101310008000eb00bdfe0700800078000000e000c8
:101320000300320068009000008050000100370088
:1013300058089000100c98000b00370078009000bf
:1013400002757800060037007800900080004500a4
:101350000904e00001003a0059c2b300894878004e
:101360000000e800700498000000eb004f057800d2
:101370004f04be00000006000400fa00889fbe0073
:101380008a9fbe008c1f7800000478000106780058
:1013900070089000f800900001005000880890004c
:1013a000010050009808900001005000a80890002b
:1013b00001005000b808900001005000c8089000db
:1013c000810550000002220090bf9f00000323000f
:1013d000a0bf9f00081090000028a30018003a004a
:1013e0000b00e000160034008b047800090578003b
:1013f000e28f5400020036002a002000020037006d
:101400000900e0000b00340058009000c801900073
:101410000a017800ee805700030001005004980094
:101420000000e000960032006808900000004500cf
:10143000600c98008a8454004240a900ebff3c00f5
:10144000780190000200e0000b003400580090008a
:10145000c80190008c00780003000100500498003f
:101460000000e0008600320068089000f80090005c
:1014700001004000600c9800880c90000900e0001a
:101480001500340009057800e28f54000200360090
:101490002a002000020037000900e0000b003400a1
:1014a00058009000c80190000a017800ec805700b5
:1014b00003000100500498000000e00070003200ba
:1014c0006808900000004500600c98008a84540071
:1014d0004240a900ebff3c00180990000200e00028
:1014e0000b003400e800900058009000c801900004
:1014f00003000100500498000000e000600032008a
:10150000680890009808900001004000600c980066
:10151000a80c90000900e0001500340009057800cf
:10152000e28f5400020036002a002000020037003b
:101530000900e0000b00340058009000c801900042
:101540000a017800ec805700030001005004980065
:101550000000e0004a0032006808900000004500ea
:10156000600c98008a8454004240a900ebff3c00c4
:10157000380990000200e0000d003400e8009000ff
:10158000180890008080400058009000c80190002a
:1015900003000100500498000000e0003800320011
:1015a00068089000b808900001004000600c9800a6
:1015b000c80c90000900e00015003400090578000f
:1015c000e28f5400020036002a002000020037009b
:1015d0000900e0000b00340058009000c8019000a2
:1015e0000a017800ec8057000300010050049800c5
:1015f0000000e00022003200680890000000450072
:10160000600c98008a8454004240a900ebff3c0023
:10161000081090000028a3001b0032000b00e0001f
:10162000190034008b04780009057800e28f54001b
:10163000020036002a002000020037000900e00006
:101640000b00340058009000c80190000a01780097
:10165000ee80570003000100500498000000e000f5
:10166000070032006808900000004500600c9800f8
:101670008a8454004240a90003003400eaff370086
:101680000080eb00010037000000eb004f067800ff
:101690004f05be004f04be000080fa0000000600a7
:1016a000889fbe00e30440000900a100808f540021
:1016b0004a003600e38f540001003e00490020003c
:1016c000724780000200e0000200320082007800d1
:1016d0000c003700018f200003003700908f54006a
:1016e000230036008080e800110078000000e00050
:1016f000faff3a000f003700908f54001c003600ac
:101700008080e800110078000000e000faff3a0055
:1017100012017800018f200003003700908f5400e1
:10172000130036008080e80011007800820f50001e
:10173000faff3a0068478000890f54000100310029
:1017400009047800080078000c0207000000e0009f
:1017500004003a00890f5400200032000804d10030
:10176000f5ff3700081878000b020700d4ff370098
:10177000110178009201780064805100890f5000b7
:101780000300310012009000800878000700370045
:101790000900410080087800920190001300980031
:1017a000110078001288140009097800910078006f
:1017b0000100e00005003200110090000000e00090
:1017c000020032000180e800010037000000eb0059
:1017d000704788000280e800010037000000eb003d
:1017e0004f04be0000000600881f7800288f2000ec
:1017f0001804e00004003a00c0c820001a020700e4
:1018000020c0b300004c78004f04780000000600b0
:10181000889fbe00000478003ffd07008004780028
:101820000004200018006000020032002800900030
:10183000d90107000000eb00200498003840900018
:101840000004e000050035000000fb001302070063
:101850000000e000010032008084eb0018109000ce
:101860000000e00008003200150207000000e00060
:10187000010032008084eb0018109000c6010700c0
:101880000000eb0010149800000820001800600011
:10189000100032000000eb0081822000910f140044
:1018a000070032000000e8008180e800e80f5000e7
:1018b000faff3a0008007800b7010700130037006c
:1018c000000140008000eb008082200001307900a0
:1018d000f8ff3700000c780000c0eb00304498009f
:1018e0006002200008004000200498004004980096
:1018f00050049800400c980060049800500c980028
:101900007004980076004400000c980009007800ec
:101910004f04be0000000600881f78006883200086
:10192000180078000000e00001003200b8ff070056
:101930000884e90060822000800f5400f8ff3a001c
:101940004f047800000006002f03b000889fbe00ff
:101950008a9fbe008c9fbe008e1f78000007780013
:10196000108c2000c0b79f0080c5b30080cf50000e
:1019700008003200028b2000c2b79f007740400071
:1019800080cf500003003a0083002000b3b79f00cf
:101990000a00370080c7b30080cf50000500320036
:1019a000a4002000b4b79f0080c5b30080cf5000d2
:1019b00002003a0005012000b5b79f003e04be00ba
:1019c0002e05be0040c6b30080cf50000300320099
:1019d0006540400080cf50000b003a00e00f5400fb
:1019e000e08f5c00e00f5d00e08f5d0006003d00d1
:1019f0006000b8006011b8000804500089845800e5
:101a00000a0559008b8559003fb19700e80f510036
:101a100003003200f00f510045003a000200370089
:101a20003c002000010037004c002000e00f540073
:101a3000e08f5c00e00f5d00e08f5d0005003a0084
:101a40005e08900083012000a3b79f000000e00023
:101a5000080032003fb297000400e900080060006f
:101a6000cfb297006540780090df9f0070012000a2
:101a7000a0b79f008c0078008100e90005003300ca
:101a80008b05d1000a85d3008984d3000884d30054
:101a9000f9ff3700089fbe000a97be002fb19700dc
:101aa0000200e90023fc2f008f81410000844100e7
:101ab000140037002fb097000000e900a0b79f0086
:101ac0003fb197000200e90004006000cfb1970029
:101ad000635478003e00be002e01be000c02780068
:101ae0000402e900050033008381d1000281d300a4
:101af0008180d3000080d300f9ff3700009fbe0033
:101b00000297be003e02be002e03be00e00f520050
:101b1000e08f5a00e00f5b00e08f5b00da003400da
:101b20002fb097000000e000e2ff3c00d600370035
:101b3000ae60900080c6b30080cf50000b00320032
:101b400006003c000104e00008003200664050003e
:101b500080cf500073003a0004003700c0c6b300c5
:101b600080cf50006f003a00310037000801780044
:101b70000800e00005003a005e08900081012000a6
:101b8000a1b79f000000e00009003200bfb197003c
:101b9000110009000381d8008000fd004fb29700ba
:101ba0006440780090df9f0075012000a5b79f007a
:101bb0003fb29700110009000481d800800178002d
:101bc000afb297000500e90021fc2f008f80400094
:101bd000008240000c003700bfb2970011000900de
:101be0008501d800000178002fb097000000e900bf
:101bf000a0b79f000590b90000805100cfb09700ba
:101c000061527800820178000300e0000300340094
:101c10002fb197000200e000efff3c0003007800c6
:101c2000cf80de0001017800820178003a003700a1
:101c30000806be00e00f5400e08f5c0005003a008b
:101c40005e08900083012000a3b79f000000e00021
:101c5000090032003fb297006121b9000c00be00bc
:101c60005b010700cfb297006540780090df9f00ce
:101c700070012000a0b79f003fb297006121b9001a
:101c80000c00be00420107000006be00afb2970084
:101c90000500e90021fc2f008f804000808040007b
:101ca00091b79f00110037003fb197006114b90050
:101cb0000801be000c00be00480107000005be0080
:101cc000afb197008301e900a3b79f000801be00f0
:101cd00029010700000056001fb29700cfb29700fd
:101ce0006552780094b79f000a06be00e00f5600c8
:101cf000e08f5e00030034002fb097000000e0008a
:101d0000e9ff3c004feade00cfa2de000c00be007f
:101d10000401780084017800009fbe000297be0095
:101d200059003700e00f5400e08f5c00e00f5d00c9
:101d3000e08f5d0005003a005e0890008101200000
:101d4000a1b79f000000e0000d0032003fb19700f6
:101d500002027800cfa2de00050378008603780037
:101d60000800be000a01be00ac0107004fb2970098
:101d70006440780090df9f0075012000a5b79f00a8
:101d80003fb1970002027800cfa2de000503780081
:101d9000860378000800be000a01be009801070013
:101da000009fbe000297be00afb197000300e9009c
:101db00024fc2f000f0242000006420024003700de
:101dc000bfb2970005047800cfc4de000905780093
:101dd0008a0578000802be000a03be005fa89700cb
:101de000efa897007fa997008fb197008f01070098
:101df000d0b79f00e1b79f00f2b79f0083bf9f005d
:101e00002fb097000000e900a0b79f000802be00b5
:101e10000a03be005fb09700efb097007fb1970054
:101e20008fb99700070207005faa970000005200d1
:101e3000cfb29700655678005fb09700efb097007b
:101e40007fb197008fb99700009fbe000297be0038
:101e50003e00be002e01be00d0af9f00e1af9f004c
:101e6000f2af9f0083b79f00e00f5000e08f580053
:101e7000e00f5900e08f590003003400afb0970025
:101e80000100e000ceff3c003fb19700e80f510099
:101e900013003a000e1090000038a300100032002a
:101ea000afb19700f78f510006003e0024fc2f00d1
:101eb0000f0242008300420000c3b300914f1000a4
:101ec00007003200afb297008502e900a5b79f0076
:101ed00000c3b30021fc2f008f80400080f07a0007
:101ee000afb1970078811100120f98006e0090003a
:101ef00024fc2f000f024200830042008ef90700ed
:101f00001e0990005e089000800f510006003d0001
:101f100002005000000f98000e1090000040a10039
:101f2000001798000f0037000000e0000d003d0092
:101f30000e10900074006000f00f500009003a008d
:101f40007e089000fe009000010050008e08900076
:101f500001005000020050004240a900010034007e
:101f6000000f98004f0778004f06be004f05be00d7
:101f70004f04be002f03b100000006000000e00087
:101f80000300340057000700e10f400001003a0051
:101f90000000eb00000006000000e000310032000d
:101fa0008080e90091027800e38f52002d00360016
:101fb0000508a3002b003a00824780000200e000e1
:101fc00002003200828f50000400310002087800c5
:101fd00081478800160037000301780092019000c5
:101fe0000300e00002003200818f5100faff390047
:101ff0001202780004004100808f5000190039005f
:10200000810f500003003a00050942008200780069
:10201000070037000300e0000300320005804000a5
:10202000808f51000f003900930098001101980033
:10203000110190000200e0000a003200118040000f
:10204000820f500007003a00e08e20000008eb00ed
:1020500011009000110178009008410010009000dc
:1020600090009800000006000001780000002000a9
:102070000000e00008003200000080000000e000e6
:10208000050032000000e900000088000000400068
:102090000100800002b07800000006000a00fa008b
:1020a00011002000b1bf9f00c0bf9f006a80570091
:1020b00000c0da004fb897000080fa000000060068
:1020c0000a00fa0051002000b1bf9f00c0bf9f006e
:1020d0006a80570000c0da005fb897000080fa00fd
:1020e00000000600889fbe0080047800a0478000a2
:1020f0000000e00003003a00100007000000e000cc
:102100000a003500a04780000900e00002003a0004
:102110000004780006003700000478000900400041
:10212000060007000000e00001003d000084eb0015
:10213000080078004f04be00000006008000780010
:102140000000e00004003a00608f2000a0478800f3
:1021500001017800060037000081eb0060af20002d
:10216000808f500002003e00a14788000001eb0074
:102170000200780000000600020ab900001bb90046
:102180000200b80081004200810043000000060008
:102190006022b800060220000000d0008180d2003a
:1021a0000482d2008582d2000000a0000202520008
:1021b00083825a00030031000202420083824a00f7
:1021c0000000a1000603e900f3ff3a00000006004a
:1021d000efff07000400be0000000600839f6800b8
:1021e0000100e00002003d0060001000e0801800e7
:1021f0000300e00002003d0060011100e0811900d1
:10220000e3ff07004f00e00002003b006000100009
:10221000e080180000000600881f780000047800a5
:102220005001be004000be00040040008580480010
:102230000601490087814900009cbe000294be004f
:102240000400e1000588e1000690e1000798e10044
:1022500002003100680044001008e8004f047800d4
:1022600000000600f4874700889fbe008a9fbe00da
:102270008c9fbe008e1f78000205be000004be00c9
:10228000d4b79f00e5b79f00f6b79f0087bf9f00b8
:102290000000eb00c0b79f00b0b79f00a0b79f0041
:1022a00090b79f0080b79f000d042000bfb097003b
:1022b0004fb09700000140000000e0000f003d001b
:1022c0004f08de0000007100c0b79f009e000700ad
:1022d00001003d0012002000a100070001003d00a8
:1022e00012002000a6000700b1000700b60007009a
:1022f0000f004000c8ff0700220037004f08de0033
:1023000000067100ccb79f008f00070001003d0060
:10231000120020009200070001003d001200200082
:1023200097000700a20007000fb297009fb2970026
:102330002fb39700bfb39700a90007000000520019
:1023400081805a0002015b0083815b0080b79f009f
:1023500091b79f00a2b79f00b3b79f000007eb00a3
:102360009f0007000020e10001a8e10002b0e100a9
:1023700003b8e100010031001e0020000e005600ed
:10238000c0b79f004fb297000400e000070035007f
:1023900010002000010020006011b8000804700047
:1023a000898470000a0571008b8571008d06e90033
:1023b000beff3a000400e00003003d008200070079
:1023c0000f00400094ff07004fa897000000e000b6
:1023d00004003a000fb497009fb497002fb5970000
:1023e000bfb59700940007004f0778004f06be0066
:1023f0004f05be004f04be004f01b10000000600b3
:10240000881f780018002000881f780095ff0700bb
:102410008f87e9004f04780000000600801feb0062
:1024200090ff07008f87e90000000600889fbe002c
:102430008a9fbe008c1f78006e00070007003d00d9
:1024400073000700e00f5b00e08f5b0007003d00ba
:10245000320007000006eb000400370034000700dc
:1024600002003d002a0007001c0020007200070047
:10247000e3ff07000203be000002be000c00e00004
:1024800001003200220007000400be000601be0069
:102490004f0678004f05be004f04be000000060046
:1024a000889fbe008a9fbe008c1f780051000700e5
:1024b00005003d0056000700e00f5b00e08f5b0069
:1024c00006003d00040037001900070003003d002e
:1024d0006000b8006011b800100007005600070047
:1024e000ceff07000203be000002be000c00e000a9
:1024f00001003200060007000400be000601be0015
:102500004f0678004f05be004f04be0000000600d5
:102510006000b8006011b8000000370004025000ed
:102520008582580006035900878359000000060081
:102530000006eb00e00f5200e08f5a00e00f5b0056
:10254000e08f5b00000006000180400090b79f0014
:102550000001eb008fb097000100e00000000600d2
:102560000200700090b79f000180400080b79f007c
:102570000001eb00ffa897000100e000000006004a
:102580000200700080b79f00018040006faa970092
:10259000cf20de0001007000f0af9f000402420077
:1025a000250007004f18de00000272000000060040
:1025b000e4af9f000804440089844c000a054d00e4
:1025c0008b854d00000006003fb29700cfb2970008
:1025d0005fb39700efb3970000fe2f0000000600e6
:1025e0003fb09700cfb097005fb19700efb1970071
:1025f000000006000205be000004be00e00f50000f
:10260000e08f5800e00f5900e08f590000000600ed
:102610006000b8006011b8000804500089845800b8
:102620000a0559008b8559001c002000e00f52005c
:10263000e08f5a00000006000800be000a01be003c
:1026400000000600889fbe008a9fbe008c1f780095
:102650000205be000004be000006eb00e00f5000c3
:10266000e08f5800e00f5900e08f590007003d004f
:102670006000b8006011b800080450008984580058
:102680000a0559008b8559001c002000e00f5200fc
:10269000e08f5a00e00f5b00e08f5b0002003d001e
:1026a0000f0007000c00a2000800be000a01be00d7
:1026b000120007000203be000002be000c00e00092
:1026c00001003200060007000400be000601be0043
:1026d0004f0678004f05be004f04be000000060004
:1026e0006000b8006011b8000402500085825800f4
:1026f000060359008783590000000600889fbe002a
:102700008a9fbe008c9fbe000404b8000506b80076
:102710008904460060854e000606b8000a0546009a
:10272000e0854e000706b8008b054600040eb80091
:10273000890446000a854e00e0854d00050eb8006c
:102740000a0546008b854e00060eb8008b05460034
:102750000416b8000a0546008b854e000516b80021
:102760008b054600041eb8008b0546000800be001d
:102770000a01be004f06be004f05be004f04be005a
:04278000000006004f
:020000040000fa
:0200000401f009
:04000c00f8ff0000f9
:020000040000fa
:0200000401f009
:040010007dff000070
:020000040000fa
:0200000401f009
:040014007fff00006a
:020000040000fa
:10000800de260000de260000de260000de260000d8
:10001800de260000de260000de260000de260000c8
:10002800de260000de260000de260000de260000b8
:10003800de260000de260000de260000de260000a8
:10004800de260000de260000de260000561900002d
:1000580036190000de260000de260000de2600003d
:10006800de260000de260000de260000de26000078
:10007800de260000de260000de260000de26000068
:10008800de260000de260000de260000de26000058
:10009800de260000de260000de260000de26000048
:1000a800de260000de260000de260000de26000038
:1000b800de260000de260000de260000de26000028
:1000c800de260000de260000de260000de26000018
:1000d800de260000de260000de260000de26000008
:1000e800de260000de260000de260000de260000f8
:1000f800de260000de260000de260000de260000e8
:10010800de260000de260000de260000de260000d7
:10011800de260000de260000de260000de260000c7
:10012800de260000de260000de260000de260000b7
:10013800de260000de260000de260000de260000a7
:10014800de260000de260000de260000de26000097
:10015800de260000de260000de260000de26000087
:10016800de260000de260000de260000de26000077
:10017800de260000de260000de260000de26000067
:10018800de260000de260000de260000de26000057
:10019800de260000de260000de260000de26000047
:1001a800de260000de260000de260000de26000037
:1001b800de260000de260000de260000de26000027
:1001c800de260000de260000de260000de26000017
:1001d800de260000de260000de260000de26000007
:1001e800de260000de260000de260000de260000f7
:0801f800de260000de260000f7
:020000040000fa
:10020800de260000de260000de260000de260000d6
:10021800de260000de260000de260000de260000c6
:10022800de260000de260000de260000de260000b6
:10023800de260000de260000de260000de260000a6
:10024800de260000de260000de260000561900002b
:1002580036190000de260000de260000de2600003b
:10026800de260000de260000de260000de26000076
:10027800de260000de260000de260000de26000066
:10028800de260000de260000de260000de26000056
:10029800de260000de260000de260000de26000046
:1002a800de260000de260000de260000de26000036
:1002b800de260000de260000de260000de26000026
:1002c800de260000de260000de260000de26000016
:1002d800de260000de260000de260000de26000006
:1002e800de260000de260000de260000de260000f6
:1002f800de260000de260000de260000de260000e6
:10030800de260000de260000de260000de260000d5
:10031800de260000de260000de260000de260000c5
:10032800de260000de260000de260000de260000b5
:10033800de260000de260000de260000de260000a5
:10034800de260000de260000de260000de26000095
:10035800de260000de260000de260000de26000085
:10036800de260000de260000de260000de26000075
:10037800de260000de260000de260000de26000065
:10038800de260000de260000de260000de26000055
:10039800de260000de260000de260000de26000045
:1003a800de260000de260000de260000de26000035
:1003b800de260000de260000de260000de26000025
:1003c800de260000de260000de260000de26000015
:1003d800de260000de260000de260000de26000005
:1003e800de260000de260000de260000de260000f5
:0803f800de260000de260000f5
:020000040000fa
:10278400556100007274000020690000732000008d
:10279400636f00006f6c000020210000210d000019
:1027a400005400006869000073200000666f000098
:1027b400726d0000617400002073000074720000e8
:1027c400696e000067200000746100006b65000002
:1027d400732000006e6f000020520000414d000085
:1027e4002073000070610000636500002e2000006b
:1027f400256900000d0a000000000000200200000e
:102804002202000024020000260200002802000028
:1028140030020000320200003402000036020000e0
:042824003802000076
:020000040000fa
:102828000400fa00004f7800110798001e80fb0092
:10283800800007001e80fb00750007001e04e000f2
:1028480019003a001e009000674060006740600071
:1028580067406000674060004401dd00910a200085
:1028680091407800f0c8b30000c0600002407000da
:10287800a9e0b7009e0090000007200000806000db
:102888004400de006740600067416000a10a200044
:102898009140780080cfb30000c060000240700013
:1028a800aae0b700180037001e00900067406000db
:1028b800674060006740600067416000310b20009e
:1028c8009140780080cfb30000c0600002407000e3
:1028d800b3e0b7009e009000000720000080600071
:1028e8004400de0067406000674060004401dd008e
:1028f800310b200091407800f0c8b30000c06000a0
:1029080002407000b3e0b7001e009000680060004d
:10291800c300de001e80fb00210007009e0090001f
:102928000008200000806000c700de001e80fb0059
:10293800020007000080fa00000006000400fa0008
:10294800000f7800110798001e00e0000800320010
:102958001e00900061406000c700dd0097c0bf0006
:102968000074a1000140700097e0b7000a0037002a
:102978001e00900061406000614060004401dd007d
:102988005109200091407800f0ceb30000c06000eb
:102998000240700095e0b7000080fa0000000600d1
:1029a8000400fa00000f7800110798001e00e000ec
:1029b8000b0032001e009000614060006140600022
:1029c8004601dd007109200091407800f0cbb3008a
:1029d80000c060000240700097e0b7000a003700ae
:1029e8001e00900061406000614060004301dd000e
:1029f800510920009140780070cfb30000c06000fa
:102a08000240700095e0b7000080fa000000060060
:102a18000200fa00000f78001e00e00002003200f9
:102a280087e0a900010037008580a9000080fa002e
:102a3800000006000200fa00000f78001e00e00007
:102a48000200320087c0a900010037008560a90094
:102a58000080fa00000006000800fa00004f780025
:102a68001107980022079800330798001e80fb0082
:102a78006a00b900e80040000040290000804000da
:102a880010007800be009000010878001e80fb004e
:102a98006a00b900800078000040290000804000ea
:102aa800100078009e009000010878001e80fb004e
:102ab8006a00b9008080e8000040290000804000da
:102ac80010007800ae009000010878000080fa003d
:102ad800000006001c00fa00005f9800510f9800e3
:102ae8000040eb00204f98000000eb0040079800e2
:102af8000000eb00300798000080eb0020079800ea
:102b08000000eb001007980042c0bf000080fb00e7
:102b18004500de00004f7800210420009140780035
:102b280000ceb30000c0700042e0b7005e0890001d
:102b38000000e00025003a006c004700500f9800a4
:102b48000e5890000080fb000000e00001003200f9
:102b58001b003700de089000110078000000a0007c
:102b680080087800de089000110078000010a000ae
:102b780080087800de089000110078000020a1008d
:102b880080087800de0890000000eb0090009800b4
:102b9800de089000e0ff2f00a0009800de089000fb
:102ba80080c0b300e04098005e09900000602900f2
:102bb80001002000400198005101980003003700ef
:102bc80060c1b300204f9800710037000e58900084
:102bd8000080fb000000e000010032001000370018
:102be80043c0b3000041eb000182200000802000b8
:102bf8002708070043c0b3000041eb0041822000d2
:102c0800c0802000220807005e08900010007800ad
:102c1800610060000000e00004003a00090037008d
:102c280060c1b300204f9800590037005e0890003b
:102c380010007800620060000000e00006003a0022
:102c48000c0037002e009000f1ff27000100600003
:102c5800200798004e003700f0f72f003007980043
:102c6800be00900090f92f000080600030079800a7
:102c78000200370070f72f00300798005e089000b8
:102c880010007800640060000000e00001003200dd
:102c9800040037002e00900071ff2f000100600033
:102ca800200798005e089000100090000000e000e7
:102cb80009003a005e08900060409000e84f50001c
:102cc8000a003a002e00900091ff2f0001006000da
:102cd80020079800050037005e08900090009000db
:102ce8002e00900001006000200798005e08900008
:102cf800a00090002e0090000100600020079800be
:102d08005e08900010007800640060000000e00099
:102d18000d0032005e089000d00090004000900046
:102d28004209dd00ce01de00830171004201dd00b1
:102d380000a025002126200013fd07000000e9005f
:102d4800400798000c0037005e089000d000900003
:102d5800400090004409dd00cc01de0083017100d1
:102d68004401dd0000a025002126200006fd070003
:102d78000000e90040079800ae009000f0c02c0069
:102d88000080600020079800d07521001007980087
:102d9800be0090000e589000a1fe0700ce019000e2
:102da8001e019000ae0090000e5890002aff070008
:102db8009e40780067c06000c500dd0042c0bf00cb
:102dc8007f4060000140700042e0b7002e4890004c
:102dd8000000fb000080fa00000006000200fa0074
:102de800000f78001e007800904090001e007800c8
:102df800104078000080fb000000d10080cf500018
:102e08000a003100020037001e0078007e0007002b
:102e18001e007800104090000004e000faff3a001d
:102e2800060037001e007800060007001e00780024
:102e3800104090000004e000faff3a000080fa0019
:102e4800000006000400fa00100798001e00900019
:102e5800a00090001e009000204090000080fb0021
:102e680000804000104f78000040eb0010479800a9
:102e78002c0037001e009000a00190001e0090005a
:102e8800204090008080fb001e00900010407800d9
:102e98000080fb00808040001e4090000080fb0006
:102ea800808050001e009000104078000081fb00d8
:102eb800110009008200d8008000fd0080814100d7
:102ec8001e009000200290001e00900020409000fc
:102ed8008080fb001e009000104078000080fb00fe
:102ee800808040001e4090000080fb000080500061
:102ef8008000e9001e009000104078000081fb006f
:102f0800110009008200d8008000fd000000420086
:102f180010407800804978001e4090000040e8008a
:102f2800104798001e009000b04090001e4090008e
:102f380080cf5000cfff3e001e009000a0019000ff
:102f48001e009000204090000080fb008000e800f8
:102f58001e009000104078000081fb00110009005d
:102f68008200d8008000fd00008041001e487800e3
:102f78001e009000104090000040e800804078005b
:102f88001e009000114098001e0090001041900013
:102f98001e009000904078000280fb000181fb0039
:102fa800110009000280d8008000fd0080407800f0
:102fb8001e009000114098001e00900020409000d4
:102fc8000040e800804078001e00900021409800f2
:102fd8001e009000204190001e0090009040780054
:102fe8000280fb000181fb00110009000280d8006b
:102ff8008000fd00804078001e009000214098006d
:103008000080fa00000006000400fa00100798008b
:103018001e009000a00090001e009000104090003c
:103028000080fb0000804000104f78000040eb005b
:1030380010479800240037001e009000a00190005f
:103048001e009000104090008080fb001e40900001
:103058000080fb00808040001e0090001040780037
:103068000081fb00110009008200d8008000fd00eb
:10307800808141001e009000200290001e009000f8
:10308800104090008080fb001e4090000080fb00f4
:10309800008040008000e8001e009000104078008a
:1030a8000081fb00110009008200d8008000fd00ab
:1030b8000000420010407800804978001e409000cf
:1030c8000040e800104798001e009000b0409000b3
:1030d8001e40900080cf5000d7ff3e001e00900099
:1030e800a00190001e009000104090008080fb001e
:1030f8001e009000104078000080fb000080400017
:103108008000e9001e009000104078000081fb005c
:10311800110009008200d8008000fd0000804100f5
:103128001e4878001e009000904090001e009000fd
:103138001040780000c040000040e900804078005e
:103148001e009000114098001e0090001041900051
:103158001e009000904078000280fb000181fb0077
:10316800110009000280d8008000fd00804078002e
:103178001e009000114098001e009000a040900092
:103188001e0090001040780000c040000040e90098
:10319800804078001e009000214098001e0090009a
:1031a800204190001e009000904078000280fb00b3
:1031b8000181fb00110009000280d8008000fd0099
:1031c800804078001e009000214098000080fa009e
:1031d800000006000200fa00000f78001e007800c8
:1031e800904090001e007800104078000080fb009e
:1031f8000000d10080cf50000f00390002003700d6
:103208001e00780080ff07001e0078002040900014
:103218008080fb001e007800104078000080fb00d2
:103228000000e900808f5000f5ff3a000b003700de
:103238001e00780003ff07001e0078001040900071
:103248008080fb001e007800104078000080fb00a2
:103258000000e900808f5000f5ff3a000080fa0076
:10326800000006003600f800809fbe00829fbe0066
:10327800849fbe00869fbe000000fa000040eb005d
:10328800180007008580a9000080fa004f03be00df
:103298004f02be004f01be004f00be003600f900cd
:1032a800004006003600f800809fbe00829fbe00e6
:1032b800849fbe00869fbe000000fa000040eb001d
:1032c800690007008560a9000080fa004f03be006e
:1032d8004f02be004f01be004f00be003600f9008d
:1032e800004006000400fa00204798000040eb0068
:1032f800004f78002e4090000080fb006600b90067
:10330800800078000080200000804000304090005d
:103318000004e00005003a002e4090000080fb0009
:103328008000eb0037000700160037002e409000a1
:103338000080fb006600b900800078000080200053
:103348000080400083060700004f78002e40900060
:103358000080fb006600b900800078000080200033
:1033680000804000d10507009e4078002e40900064
:10337800060007002e4090000080fb00110020008e
:10338800200007000080fa00000006000200fa0092
:10339800004f7800114798001e80fb006a00b900b2
:1033a800e40040000040290000804000100178003f
:1033b8001e4090008000fb00f00f2000008060009d
:1033c800000978001e80fb0080004000c0812000ba
:1033d80000804000100078000000e0000700320084
:1033e8001e80fb0080004000c0812000008040005b
:1033f800900078001e409000010001000080fa0053
:10340800000006000400fa00000f78001107980079
:103418001e00e000080032001e00900061406000bd
:10342800c700dd0097c0bf000074a1000140700014
:1034380097e0b7000a0037001e0090006140600066
:10344800614060004401dd0051092000914078008e
:10345800f0ceb30000c060000240700095e0b700f5
:103468000080fa00000006000400fa0020479800d7
:103478000040eb00004f78002b0037002e409000f2
:1034880036000700004f78002e4090000080fb00b7
:103498006600b90080007800c080200000804000ed
:1034a800104178002e4090000080fb006600b900b3
:1034b80080007800c08020000080400030409000ec
:1034c800804f5100080032002e4090000080fb0021
:1034d8006600b90080007800c080200000804000ad
:1034e8009e407800e70307002e4090000080fb0014
:1034f800800040008081200000804000100078009b
:103508000000e000080032002e4090000080fb0020
:1035180080004000808120000080400090007800fa
:103528001e407800010001002e4090000080fb0042
:103538006a00b9008080e80000402900008040004f
:103548001000780010007800610060000004e000be
:10355800caff3a000080fa00000006000200fa00e4
:10356800004f78001e80fb006a00b900e6004000aa
:10357800004029000080400010007800100078000a
:103588000000fb000080fa00000006000000fa00be
:103598008000eb000040eb004efd070010412000ca
:1035a80001002000d00507000080fa000000060096
:1035b8000600fa00204798003147980042c0bf0033
:1035c8000080fb004500de00004f78002104200049
:1035d8009140780000ceb30000c0700042e0b70010
:1035e8002e4090000080fb00a90007000004e000c6
:1035f80024003a002e4090000080fb006a00b900c9
:103608008080e80000402900008040001000780019
:10361800100078004900de00610060000000e00052
:103628000e003a00be4090002e4090007a0007003d
:103638009e40780067c06000c500dd0042c0bf0042
:103648007f4060000140700042e0b7003e409000bb
:103658000000fb0020079800530037009e407800c8
:1036680067c06000c500dd0042c0bf007f40600049
:103678000140700042e0b7000080eb00200798008e
:10368800490037002e4090000080fb006600b9001a
:103698008000780000802000008040001041780001
:1036a8002e4090000080fb006600b9008000780082
:1036b800008020000080400030409000804f510082
:1036c8000a003a009e40780067c06000c500dd002f
:1036d80042c0bf007f4060000140700042e0b70078
:1036e8000080eb00200798002f0037002e40900044
:1036f8000080fb006600b900800078000080200090
:1037080000804000304090000004e00014003a00bf
:103718002e4090000080fb006a00b9008080e8001d
:103728000040290000804000100078001000780058
:103738004900de00610060000000e00008003a0077
:10374800be4090002e409000330007002e409000ad
:103758000080fb0011002000160007000800370059
:103768002e4090000080fb006600b90080007800c1
:103778000080200000804000be4090004103070008
:103788009e40780067c06000c500dd0042c0bf00f1
:103798007f4060000140700042e0b7003e4090006a
:1037a8000000fb00200798002e0090000080fa001f
:1037b800000006000400fa00000f780011079800c6
:1037c8001e00e000080032001e009000614060000a
:1037d800c700dd0097c0bf000074a1000140700061
:1037e80097e0b7000a0037001e00900061406000b3
:1037f800614060004401dd005109200091407800db
:10380800f0ceb30000c060000240700095e0b70041
:103818000080fa00000006000200fa00004f78005d
:10382800114798001e80fb006a00b900e4004000c0
:103838000040290000804000100178001e409000e0
:103848008000fb00f00f2000008060000009780075
:103858001e80fb0080004000c081200000804000e6
:10386800100078000000e000070032001e80fb0016
:1038780080004000c0812000008040009000780057
:103888001e409000010001000080fa0000000600c0
:103898000600fa00000f7800110798001e00e000eb
:1038a8000700320097c0bf000080fb004600de0022
:1038b800614060000080fb00200798000600370088
:1038c80095c0bf000080fb004300de00614060003f
:1038d8000080fb00200798002e0090000080fa006e
:1038e800000006001600fa00100798006400470060
:1038f80001087800624798006e4090000004e000dc
:103908000b0032006e4090000081fb001e0090000a
:10391800104078008080fb001e009000304090002e
:103928000080fb0000805000800f5100030034002d
:10393800a0fe2f00200f9800910037001e00900075
:10394800b04090000040eb00004f78000104e00018
:1039580002003a0010c0b300004f78006e4090009b
:103968000081fb001e009000104078008080fb0062
:103978001e009000204090000080fb0080805000d6
:103988001e80fb00008040000000e900800f51000d
:103998001c003d006e4090000080fb00100f980056
:1039a8001e009000a00090001e0090002040900093
:1039b8000080fb0080804000010f98001e04e0009a
:1039c80003003a0012002000720798000200370036
:1039d8000000eb00700798000e0990007e00900030
:1039e80080004100640047001000780081017800e1
:1039f800800078001e09900003007800ccf20700d0
:103a0800410037001e009000104078008080fb00c5
:103a18001e009000204090000080fb008080500035
:103a28001e80fb00008040000000e900600798004d
:103a38001e009000a00090001e0090002040900002
:103a48000080fb0080804000510798001e04e000c1
:103a580003003a00120020004207980002003700d5
:103a68000000eb00400798005e0190004e009000b7
:103a78008000410064004700100078008101780050
:103a8800800078006e01900003007800a8f207001b
:103a98006e4090008080fb001e009000104078006f
:103aa8000080fb00808050001e00900020409000a5
:103ab8000080fb00808040001e80fb0000805000da
:103ac8000000e800000178001e0090001040780017
:103ad8000080fb0080007800640047009080400070
:103ae8001e009000204090000080fb008080500065
:103af8001e80fb0000804000e10050001e00900086
:103b0800200090008af207001e009000b04090004c
:103b18006e40900080c040001e0090003140980028
:103b28001e00900020409000804078006e40900079
:103b38001e40500000c04000804078001e009000e9
:103b4800214098001e009000204190001e00900027
:103b5800904078000280fb000181fb001100090001
:103b68000280d8008000fd00804078001e00900090
:103b7800214098006e4090000000fb00200f980044
:103b88002e0890000080fa00000006000a00fa00e3
:103b98001007980064004700010878006247980001
:103ba8006e4090000004e0000b0032006e40900070
:103bb8000081fb001e009000104078008080fb0010
:103bc8001e009000304090000080fb0000805000f4
:103bd800800f510003003400a0fe2f00400798001a
:103be8007c0037001e009000b04090000040eb00c1
:103bf800004f78000104e00002003a0010c0b30052
:103c0800004f78006e4090000081fb001e0090007d
:103c1800104090008080fb001e80fb000080400068
:103c2800800f510014003d006e4090000081fb00a1
:103c38001e009000a00090001e0090001040900010
:103c48000080fb00808040006e4090000080fb00f8
:103c5800808050001e80fb00808040006400470088
:103c68001000780081017800800078000300780057
:103c78002ff20700340037001e009000104090001b
:103c88008080fb001e80fb000080400080017800df
:103c98006e4090000080fb008000780064004700c0
:103ca800108140001e009000104090008080fb00b2
:103cb8001e80fb0000804000800051001e00900024
:103cc800200090000301780019f207006e40900070
:103cd8000081fb001e009000104090008080fb00d7
:103ce8001e80fb00008040000000510000027800a8
:103cf8001e009000a00090001e0090001040780068
:103d08000080fb00808040006e4090000080fb0037
:103d1800008150001e009000104090008080fb0041
:103d28001e80fb00008040008000410064004700c6
:103d38001000780081017800800078000401780084
:103d480003007800faf107001e009000b0409000d0
:103d58006e40900080c040001e00900031409800e6
:103d68001e00900010409000004178001e00900056
:103d7800904078006e40900000c05000804078006d
:103d88001e40780000c0400000404100804078009c
:103d98001e009000114098001e00900010419000f5
:103da8001e009000904078000280fb000181fb001b
:103db800110009000280d8008000fd0080407800d2
:103dc8001e009000114098006e4090000000fb001b
:103dd800400798004e0090000080fa00000006009e
:020000040000fa
:103de8002008000008000000000000000008000093
:103df80020000000000000002808000088000000e3
:103e08000200000088086000083808000000000070
:103e180000000000000000000002080002025e002e
:103e2800085f08005e085e00085e08005e084e0035
:103e38000800000000000000000000000000000072
:103e48000000000000000000000000000000020068
:103e58000801010086088700088608008608860091
:103e68000886080076080000000000000000000036
:103e7800000000000000000000000000000000003a
:103e8800000000000100000000ae0800af08ae000e
:103e980008ae0800ae08ae00089e0800000000004a
:103ea800000000000000000000000000000000000a
:103eb800000000000000000000000000d208000020
:103ec80012000000020000000100020000040000cf
:103ed8000800100000000000202b2d0023300000f7
:103ee800e40800000800000002000000686a6c0096
:103ef800747a4c0000000000ec0800000600000086
:103f0800020000000400000000000000f2080000a9
:103f18000200000000000000b008000022000000bd
:103f280002000000303132003334350036373800b3
:103f38003961620063646500660030003132330025
:103f4800343536003738390041424300444546008d
:103f580000000000f408000002000000000000005b
:043f68000000000055
:020000040000fa
:103f6c000c00fa001007980021079800624798008f
:103f7c001e009000b04090006e40900080cf50002a
:103f8c0004003e001e00900030409000204f98002e
:103f9c00020037006e409000204f98002e48900091
:103fac00004f78001e04e00003003a000000eb0014
:103fbc0040079800460037001e009000904090008b
:103fcc001e0090002040900080cf500010003e005a
:103fdc001e81fb001e009000a00090001e009000af
:103fec00204090000080fb00808040001e80fb0081
:103ffc00008050000000e800ae00900081017800c5
:10400c00800078000300780048f107002d0037008d
:10401c001e009000204090000080fb000000e80093
:10402c00000178001e0090002000900080017800b4
:10403c001e009000104078000080fb00800078008b
:10404c002e009000808040001e00900010409000d8
:10405c000080fb00008050008300780033f10700e3
:10406c009e80fb001e009000204090000080fb0012
:10407c00008050000000e900000178001e00900054
:10408c00a00090001e009000104078000080fb0003
:10409c00808040001e80fb00808050001e0090003d
:1040ac00204090000080fb00008040000000e800f1
:1040bc00ae00900081017800800078000300780049
:1040cc001af107001e4078000000fb004007980022
:1040dc004e0090000080fa00000006000c00fa0070
:1040ec001007980021079800624798001e00900066
:1040fc00b04090006e40900080cf500004003e0015
:10410c001e00900030409000204f980002003700b5
:10411c006e409000204f98002e489000004f780081
:10412c001e04e00003003a000000eb00400798007a
:10413c00420037001e009000904090001e0090003e
:10414c002040900080cf50000d003e001e81fb00ef
:10415c001e009000a00090001e00900010409000e7
:10416c000080fb0000804000ae00900081017800d0
:10417c008000780003007800ecf007002c0037007a
:10418c001e009000104078008080fb001e00900004
:10419c00104090000080fb0000805000000178006f
:1041ac001e009000a00090001e0090001040900097
:1041bc000080fb0000804000ae0090008101780080
:1041cc008000780003007800d8f007009e80fb0088
:1041dc001e009000104078000080fb008080500092
:1041ec001e009000104090000080fb0000804000fa
:1041fc00000178001e0090002000900080017800e3
:10420c001e009000104078000080fb0080007800b9
:10421c002e009000808040001e0090001040900006
:10422c000080fb000080500083007800bff0070086
:10423c001e4078000000fb00400798004e009000e4
:10424c000080fa00000006000600fa00000f78005b
:10425c00214798002e4090000004e0000500320039
:10426c001e007800b04090002e40900080cf50008f
:10427c0003003100a0fe2f00200798003c003700ff
:10428c001e007800b04090002e40900080c050007e
:10429c001e007800314098001e00780030409000dd
:1042ac000004e00019003a001e0078002040900045
:1042bc00004178001e007800904078002e4090005d
:1042cc0000c05000004041000040e80080407800f1
:1042dc001e007800214098001e00780020419000bc
:1042ec001e007800904078000280fb000181fb00ea
:1042fc00110009000280d8008000fd008040780089
:10430c001e00780021409800170037001e0078002e
:10431c0020409000004178001e007800904078000a
:10432c002e40900000c050000040410080407800ba
:10433c001e007800214098001e007800204190005b
:10434c001e007800904078000280fb000181fb0089
:10435c00110009000280d8008000fd008040780028
:10436c001e007800214098000000eb002007980008
:10437c002e0090000080fa00000006000600fa00f3
:10438c00000f7800214798001e00e0000c0032005e
:10439c001e007800904078001e007800304090009d
:1043ac0080cf500006003200ae4090001e00780016
:1043bc00080007000000eb002007980002003700ff
:1043cc00a0fe2f00200798002e0090000080fa001d
:1043dc00000006000400fa00000f78002147980046
:1043ec001e007800304090000004e0001500320000
:1043fc001e007800904090001e007800104078005d
:10440c0000c040000040e900804078001e007800a9
:10441c00114098001e007800104190001e0078009a
:10442c00904078000280fb000181fb001100090024
:10443c000280d8008000fd00804078001e007800cb
:10444c00114098001e007800a00090001e0078001b
:10445c00104090000080fb0000804000ae409000b7
:10446c00014878001e007800304090008040e80041
:10447c001e007800314098000080fa000000060011
:10448c000400fa00000f780021479800ae4090001d
:10449c001e007800cfff07000080fa000000060025
:1044ac000200fa00004f7800114798009e409000df
:1044bc001e4078003dfc0700e10f400025003a004b
:1044cc00210420009140780000ceb30080c0600031
:1044dc0000ceb30080cf500019003a001e80fb00c4
:1044ec00200007000004e000150032001e80fb00d5
:1044fc006a00b9008080e80000402900008040007c
:10450c0010007800100078004900de0061006000a7
:10451c000004e000f5ff3a001e40780070fb070035
:10452c001e80fb006600b90080007800008020002f
:10453c00008040009e409000d1ff0700050037002e
:10454c009e4090001e40780018fc0700e10f4000d0
:10455c00fbff32001e4090000000fb000080fa00c0
:10456c00000006000600fa00000f78001107980002
:10457c001e00e0000700320097c0bf000080fb0067
:10458c004600de00614060000080fb0020079800c0
:10459c000600370095c0bf000080fb004300de0022
:1045ac00614060000080fb00200798002e00900006
:1045bc000080fa00000006000600fa00000f7800e8
:1045cc00214798001e00e0000c0032001e0078000d
:1045dc00904078001e0078003040900080cf500052
:1045ec0006003200ae4090001e0078000800070064
:1045fc000000eb002007980002003700a0fe2f00ff
:10460c00200798002e0090000080fa0000000600a1
:10461c000400fa00000f7800214798001e00780073
:10462c00304090000004e000110032001e007800c1
:10463c00204090008040e8001e0078002140980047
:10464c001e007800204190001e00780090407800f9
:10465c000280fb000181fb00110009000280d800e0
:10466c008000fd00804078001e00780021409800fa
:10467c001e007800a00090001e00780020409000e2
:10468c000080fb0000804000ae40900001487800a4
:10469c001e007800304090008040e8001e0078003a
:1046ac00314098000080fa00000006000400fa0077
:1046bc00000f780021479800ae4090001e00780053
:1046cc00d3ff07000080fa00000006000600fa0085
:1046dc00000f7800214798002e4090000004e00065
:1046ec00050032001e007800b04090002e40900073
:1046fc0080cf500003003100a0fe2f00200798004f
:10470c00330037001e007800b04090002e4090001f
:10471c0080c050001e007800314098001e007800c8
:10472c00304090000004e00015003a001e007800b4
:10473c00904090002e40900000c040000040e900e6
:10474c00804078001e007800114098001e00780010
:10475c00104190001e007800904078000280fb0011
:10476c000181fb00110009000280d8008000fd00cf
:10477c00804078001e00780011409800120037002d
:10478c001e007800904090002e40900080c04000a9
:10479c001e007800114098001e0078001041900017
:1047ac001e007800904078000280fb000181fb0025
:1047bc00110009000280d8008000fd0080407800c4
:1047cc001e007800114098000000eb0020079800b4
:1047dc002e0090000080fa00000006000200fa0093
:1047ec00ed000700416a20009140780000ceb30034
:1047fc0000c060000034a000a4e6b700716c20007b
:10480c009140780000ceb30000c060003040b3008f
:10481c00c7e6b700c902a800c8e2a9005afb070006
:10482c0042c0bf007f40600042e0b7000000eb00d8
:10483c00000f78000b00370081c7b3000040eb007d
:10484c0017ff07001e0078000043b000804078007e
:10485c000040eb0012ff0700400620001600070086
:10486c001e0fe800900020009e0f1000f2ff360093
:10487c00a1c0b3000040eb0009ff0700d1c0b3009a
:10488c000040eb0006ff0700203c29002eef07003c
:10489c001e0078001e0fe800801f7800303d2900b4
:1048ac00801f780042ef0700e4875700803e20000d
:1048bc0001000700f6ff37000200fa00000f780035
:1048cc000300370000c42900010020000501070087
:1048dc001e0fe9000080eb009e0f1000f9ff3a005c
:1048ec000080fa00000006000600fa00204798003d
:1048fc000040eb001047980042c0bf000080fb0056
:10490c004500de00004f7800210420009140780023
:10491c0000ceb30000c0700042e0b7002e40900003
:10492c000080fb006600b90080007800c080200089
:10493c0000804000304090000004e0001a0032007b
:10494c002e4090000080fb006600b90080007800cb
:10495c00c080200000804000fd0007001047980038
:10496c002e4090000080fb006600b90080007800ab
:10497c00c0802000008040004b0007009e40780063
:10498c0067c06000c500dd0042c0bf007f40600012
:10499c000140700042e0b7001e4090000000fb0098
:1049ac0020079800090037009e40780067c060001f
:1049bc00c500dd0042c0bf007f40600001407000b8
:1049cc0042e0b7000080eb00200798002e0090001a
:1049dc000080fa00000006000400fa00000f7800c6
:1049ec001e00e000090032001e00780030409000ec
:1049fc000004e000050032001e00780008000700eb
:104a0c000000eb001007980002003700a0fe2f00fa
:104a1c00100798001e0090000080fa0000000600ad
:104a2c000200fa00000f78001e0078003040900061
:104a3c008040e9001e007800314098001e0078008c
:104a4c00304090000004e000150032001e00780099
:104a5c00a04090001e0078001040780000c040007c
:104a6c000040e900804078001e007800214098004a
:104a7c001e007800204190001e00780090407800c5
:104a8c000280fb000181fb00110009000280d800ac
:104a9c008000fd00804078001e00780021409800c6
:104aac000080fa00000006000200fa00000f7800f7
:104abc001e007800daff07000080fa0000000600f4
:104acc000400fa00000f78001e00e000090032001c
:104adc001e007800304090000004e0000500320019
:104aec001e007800080007000000eb00100798007b
:104afc0002003700a0fe2f00100798001e00900047
:104b0c000080fa00000006000200fa00000f780096
:104b1c001e007800304090008040e9001e007800b4
:104b2c00314098001e007800304090000004e000f6
:104b3c00110032001e007800104090008040e80008
:104b4c001e007800114098001e0078001041900063
:104b5c001e007800904078000280fb000181fb0071
:104b6c00110009000280d8008000fd008040780010
:104b7c001e007800114098000080fa00000006002a
:104b8c000200fa00000f78001e007800deff07001c
:104b9c000080fa00000006000000fa00e00120008e
:104bac00303a880044c7bf00f043b20044e7b70076
:104bbc00417420009140780000ceb30000c060002a
:104bcc0044e7b7003200200081072000a009200034
:104bdc00337420008149780080497800824978003c
:104bec0012002000610420007005200023742000b6
:104bfc0081497800804978008249780043c7bf001a
:104c0c0002c7b3008240600000c3b30080cf5000e5
:104c1c00faff3a0042c7bf000042b2000004e000b5
:104c2c00fcff32000080fa00000006000800fa00c9
:104c3c001007980021079800320798001e0090007a
:104c4c0060004000e20f50000d003e003e0090005e
:104c5c00000f7800080037002e009000904078007c
:104c6c002e0090000000e800200798000040eb00a8
:104c7c000bfe07001e0fe9001e00e000f6ff3a00d5
:104c8c003e0090000080fa00000006000600fa00ca
:104c9c00000f78001107980042479800534798007e
:104cac001e007800de409000014878009e007800dd
:104cbc000040eb00b04098001e007800ce40900001
:104ccc00114098001e007800ce40900021409800c2
:104cdc001e0078009e009000210098000080fa00d1
:104cec0000000600f03fb1000180b1000600350065
:104cfc00ee03090000000000403fb1000180b1004c
:104d0c00fbff3d001000b000203fb000020035005a
:104d1c000080090000000000000006000400fa00fa
:104d2c00204798000000eb00000f78002e40900008
:104d3c00edfe0700000f78000080eb009e0f1000c6
:104d4c00faff32001e0078000080fa000000060016
:104d5c000200fa00000f78001e007800a0009000fe
:104d6c001e007800204090000080fb000080400076
:104d7c00104078000000fb000080fa0000000600e4
:104d8c000200fa00000f78001e007800a0009000ce
:104d9c001e007800104090000080fb000080400056
:104dac00104078000000fb000080fa0000000600b4
:020000040000fa
:044dbc000000fe00f5
:00000001FF
