:020000040000fa
:080000000002040000000000f2
:020000040000fa
:100400008fa02000007f2400000188000000000071
:100410000c00070000502000010020001100070020
:10042000000020000000e000020032000000020096
:100430000000000004040200000000000040da0098
:100440000000fe004440a900000020000000e00081
:100450000300320000002000a00188004440a800f2
:100460000000060091018800800078000000eb0089
:1004700015003700e280400032a0b4009101ba00bc
:10048000e280400032a0b4009102ba00e280400055
:1004900032a0b4000002eb00472bde00f507b200eb
:1004a000602ce10004003a000059eb008301e900f0
:1004b000fdff3e00040037006128e100010032002a
:1004c0000082eb00040007001101ba000200e00006
:1004d000e8ff3a00000006003159ba008301e90044
:1004e0000c0032002159ba008301e90008003200f3
:1004f0000400e00003003a00e280400032a0b400b3
:10050000f5ff370011d9ba008301e900faff3a007c
:100510008100e800e180400032a0b4000000060045
:020000040000fa
:0200000401f009
:04000c00f8ff0000f9
:020000040000fa
:0200000401f009
:040010007dff000070
:020000040000fa
:0200000401f009
:040014007fff00006a
:020000040000fa
:1000080008050000080500000805000008050000b4
:1000180008050000080500000805000008050000a4
:100028000805000008050000080500000805000094
:100038000805000008050000080500000805000084
:100048000805000008050000080500000805000074
:100058000805000008050000080500000805000064
:100068000805000008050000080500000805000054
:100078000805000008050000080500000805000044
:100088000805000008050000080500000805000034
:100098000805000008050000080500000805000024
:1000a8000805000008050000080500000805000014
:1000b8000805000008050000080500000805000004
:1000c80008050000080500000805000008050000f4
:1000d80008050000080500000805000008050000e4
:1000e80008050000080500000805000008050000d4
:1000f80008050000080500000805000008050000c4
:1001080008050000080500000805000008050000b3
:1001180008050000080500000805000008050000a3
:100128000805000008050000080500000805000093
:100138000805000008050000080500000805000083
:100148000805000008050000080500000805000073
:100158000805000008050000fa0200000603000078
:100168000805000008050000080500000805000053
:100178000805000008050000080500000805000043
:100188000805000008050000080500000805000033
:100198000805000008050000080500000805000023
:1001a8000805000008050000080500000805000013
:1001b8000805000008050000080500000805000003
:1001c80008050000080500000805000008050000f3
:1001d80008050000080500000805000008050000e3
:1001e80008050000080500000805000008050000d3
:0801f8000805000008050000e5
:020000040000fa
:1002080008050000080500000805000008050000b2
:1002180008050000080500000805000008050000a2
:100228000805000008050000080500000805000092
:100238000805000008050000080500000805000082
:100248000805000008050000080500000805000072
:100258000805000008050000080500000805000062
:100268000805000008050000080500000805000052
:100278000805000008050000080500000805000042
:100288000805000008050000080500000805000032
:100298000805000008050000080500000805000022
:1002a8000805000008050000080500000805000012
:1002b8000805000008050000080500000805000002
:1002c80008050000080500000805000008050000f2
:1002d80008050000080500000805000008050000e2
:1002e80008050000080500000805000008050000d2
:1002f80008050000080500000805000008050000c2
:1003080008050000080500000805000008050000b1
:1003180008050000080500000805000008050000a1
:100328000805000008050000080500000805000091
:100338000805000008050000080500000805000081
:100348000805000008050000080500000805000071
:100358000805000008050000fa0200000603000076
:100368000805000008050000080500000805000051
:100378000805000008050000080500000805000041
:100388000805000008050000080500000805000031
:100398000805000008050000080500000805000021
:1003a8000805000008050000080500000805000011
:1003b8000805000008050000080500000805000001
:1003c80008050000080500000805000008050000f1
:1003d80008050000080500000805000008050000e1
:1003e80008050000080500000805000008050000d1
:0803f8000805000008050000e3
:020000040000fa
:10052000889fbe008a1f7800000578006044b800ec
:100530000888be002800980039009800ef8161000b
:1005400000ff2f001a006000030070008140e900e6
:10055000e1806000c408dd000040a10001007000df
:10056000610161004511dd000050a100020d700025
:100570001405980026059800654598007745980071
:100580009a0078007080600017003a00f1e3a9003b
:10059000f183a90070c0b3004b67b700f0c3bf0080
:1005a00001c8b300014060006040b300f0e3b70051
:1005b000000220001a00600005003200f3e3a800ea
:1005c000f343a8008de0a9009de0a80004003700d7
:1005d000f2e3a800f243a8008dc0a9009dc0a800c6
:1005e000f423ef00f1e3a8004f0578004f04be00ac
:1005f00000000600801f78008dc0a9002040800008
:10060000b01f88004f00780000400600801f78006f
:100610008de0a90030408000c01f88004f007800a6
:1006200000400600881f7800000478000202be0027
:10063000f2ff2f0003002000e10f4200e08f5a007c
:10064000010034000202be00984078006fc06000d4
:100650008080fb000128a3004a0032001200200025
:10066000f3ff2f00820f5200838f5a0002003d00db
:100670000202be0003003700e00f5200e08f5a0074
:100680001d003d00a80390006840900018039000f2
:100690000118a3000b0032008081fb001200200033
:1006a0000310dd000080ea008180ea00160b600084
:1006b000784090000080fb000011dd00970b710076
:1006c0000a0037000080fb00130020000018dd0046
:1006d000160b7000784190000281fb000218dd00cb
:1006e0000080ea008180ea00970b6000600212003f
:1006f000e0821a001a003700a803900068409000ba
:10070000180390000118a3000b0032000080fb00ca
:10071000130020000018dd00160b700078419000d7
:100720000281fb000218dd000080ea008180ea00ff
:10073000970b60000a0037008081fb001200200048
:100740000310dd000080ea008180ea00160b6000e3
:10075000784090000080fb000011dd00970b7100d5
:10076000984078006fc060000008a3000d003200c0
:10077000f0ff2f0001002000040250008582580085
:1007800008003700e00f5200e08f5a0001003d00e2
:100790006022b8000108a3000200320004025100e8
:1007a00085825900980078007080600004003a004b
:1007b0004408de0062006000418020000300370032
:1007c0004408de00620060000180200004b0780070
:1007d0004f04780000000600889fbe008004780067
:1007e0000004eb000400370000c4290001002000d1
:1007f000750007000804e800890f5400faff3a006a
:100800004f04be00000006001000fa00889fbe00e2
:100810008a9fbe008c1f78004e000700c962a900a5
:10082000cd62a800c0e2a900c4e2a800c942a900a4
:10083000c142a9008043eb000003eb00a5c0b30058
:10084000442c200053c0b30012c0b3008240780093
:100850007a80570032ff0700728457008043eb0014
:100860000003eb00a5c0b300c42c200053c0b300ac
:100870000641780011c0b3000800780028ff070087
:100880006011b8007a80570066ff07006011b80059
:100890000800780063ff0700cd62a800c4e2a8004a
:1008a0006044b8000805be0010002000caff070021
:1008b000e00f5500e08f5d0002003a001a042000ae
:1008c0000b00200070de2f00800f5400e08f5c00d2
:1008d0000400340000000000fafb2f00fbff2f0093
:1008e0000800370080212000f1ff2f00800f540006
:1008f000818f5c0003003c00000000001a0420000f
:100900000b002000728657000804450089844d00c2
:1009100009003a000801be007a80570041ff070035
:100920000801be000c0078003eff0700007d20009b
:10093000a9ff0700dcff37000801be007a805700de
:1009400038ff07000801be000c00780035ff0700e3
:10095000d5ff3700e0012000303a8800f0c3b30033
:100960004467b60000ceb3004467b60032002000f2
:10097000a1092000800720003374200080497800fe
:10098000814978008249780012002000710520001a
:100990006004200023742000804978008149780099
:1009a0008249780043c7bf000047b20001c3b300cb
:1009b000814f5000fbff3a0042c7bf000058a30020
:1009c000fdff320000000600f03fb1000180b100e1
:1009d00006003500ee03090000000000403fb100b2
:1009e0000180b100fbff3d001000b000203fb000cf
:1009f0000200350000800900000000000000060031
:020000040000fa
:100a000000080000080000000000000000000000d6
:020000040000fa
:040a10000000fe00e4
:00000001FF
