:020000040000fa
:080000000002040000000000f2
:020000040000fa
:100400000fa62000007f24000001880000000000eb
:100410000c000700406020000100200011000700d0
:10042000000020000000e000020032000000020096
:100430000000000060050200000000000040da003b
:100440000000fe004440a900000020000000e00081
:100450000300320000002000a00188004440a800f2
:100460000000060091018800800078000000eb0089
:1004700015003700e280400032a0b4009101ba00bc
:10048000e280400032a0b4009102ba00e280400055
:1004900032a0b4000002eb00472bde00f507b200eb
:1004a000602ce10004003a000059eb008301e900f0
:1004b000fdff3e00040037006128e100010032002a
:1004c0000082eb00040007001101ba000200e00006
:1004d000e8ff3a00000006003159ba008301e90044
:1004e0000c0032002159ba008301e90008003200f3
:1004f0000400e00003003a00e280400032a0b400b3
:10050000f5ff370011d9ba008301e900faff3a007c
:100510008100e800e180400032a0b4000000060045
:10052000839f68000100e00002003d0060001000b1
:10053000e08018000300e00002003d0060011100af
:10054000e0811900050007004f00e00002003b00b9
:1005500060001000e0801800000006006022b80073
:10056000060220000000d0008180d2000482d20068
:100570008582d2000000a0000202520083825a004d
:10058000030031000202420083824a000000a10001
:100590000603e900f3ff3a0000000600200e880081
:1005a000310e8800430e8800540e8800020e880029
:1005b000000006008b20a9008be0a90067416000c5
:1005c0004411dd00010c200091407800f3c8b30015
:1005d00083c0600082c070008000fd00c0e0b700f2
:1005e0008000fd0001c7b30001416000310c200014
:1005f0009140780083c0600082c070008000fd00e0
:10060000c3e0b7008000fd00680160004311de0018
:1006100002414100b1092000914078000114a1007d
:1006200082c070008000fd009be0b7008000fd00ec
:100630000008b2004700de004700dd00b1092000dd
:10064000914078000174a10080c070000100780022
:100650009be0b70000000600202e8800312e8800a5
:10066000432e8800542e8800022e880000000600c9
:100670008d20a9008d40a900e7416000c419dd006c
:10068000810c200091407800f2c8b30082c0600065
:1006900083c070008000fd00c8e0b7008000fd004e
:1006a000800178000307b200c419de00910c20001d
:1006b0009140780082cfb30082c0600083c0700098
:1006c0008000fd00c9e0b7008000fd006801600007
:1006d0004311de0002414100d10920009140780021
:1006e0000114a10082c070008000fd009de0b700f1
:1006f0008000fd000008b2004700de004200dd007f
:10070000d1092000914078000124a10080c0700030
:10071000010078009de0b700000006006141610023
:10072000a31c2000934178000304a10082c1710042
:100730008001fd00cae1b7008001fd00000040001b
:10074000421d20000130790000000600e1c0600079
:10075000a25c2000124178000204a1000141710056
:100760000001fd00cae5b7000001fd00b02e8800c1
:04077000000006007f
:020000040000fa
:0200000401f009
:04000c00f8ff0000f9
:020000040000fa
:0200000401f009
:040010007dff000070
:020000040000fa
:0200000401f009
:040014007fff00006a
:020000040000fa
:100008000c0600000c0600000c0600000c060000a0
:100018000c0600000c0600000c0600000c06000090
:100028000c0600000c0600000c0600000c06000080
:100038000c0600000c0600000c0600000c06000070
:100048000c0600000c0600000c0600000c06000060
:100058000c0600000c0600000c0600000c06000050
:100068000c0600000c0600000c0600000c06000040
:100078000c0600000c0600000c0600000c06000030
:100088000c0600000c0600000c0600000c06000020
:100098000c0600000c0600000c0600000c06000010
:1000a8000c0600000c0600000c0600000c06000000
:1000b8000c0600000c0600000c0600000c060000f0
:1000c8000c0600000c0600000c0600000c060000e0
:1000d8000c0600000c0600000c0600000c060000d0
:1000e8000c0600000c0600000c0600000c060000c0
:1000f8000c0600000c0600000c0600000c060000b0
:100108000c060000740400000c0600000c06000039
:100118000c0600000c0600000c0600000c0600008f
:100128000c0600000c0600000c0600000c0600007f
:100138000c0600000c0600000c0600000c0600006f
:100148000c060000780400000c0600000c060000f5
:100158000c0600000c0600000c0600000c0600004f
:100168000c0600000c0600000c0600000c0600003f
:100178000c0600000c0600000c0600000c0600002f
:100188000c0600000c0600000c0600000c0600001f
:100198000c0600000c0600000c0600000c0600000f
:1001a8000c0600000c0600000c0600000c060000ff
:1001b8000c0600000c0600000c0600000c060000ef
:1001c8000c0600000c0600000c0600000c060000df
:1001d8000c0600000c0600000c0600000c060000cf
:1001e8000c0600000c0600000c0600000c060000bf
:0801f8000c0600000c060000db
:020000040000fa
:100208000c0600000c0600000c0600000c0600009e
:100218000c0600000c0600000c0600000c0600008e
:100228000c0600000c0600000c0600000c0600007e
:100238000c0600000c0600000c0600000c0600006e
:100248000c0600000c0600000c0600000c0600005e
:100258000c0600000c0600000c0600000c0600004e
:100268000c0600000c0600000c0600000c0600003e
:100278000c0600000c0600000c0600000c0600002e
:100288000c0600000c0600000c0600000c0600001e
:100298000c0600000c0600000c0600000c0600000e
:1002a8000c0600000c0600000c0600000c060000fe
:1002b8000c0600000c0600000c0600000c060000ee
:1002c8000c0600000c0600000c0600000c060000de
:1002d8000c0600000c0600000c0600000c060000ce
:1002e8000c0600000c0600000c0600000c060000be
:1002f8000c0600000c0600000c0600000c060000ae
:100308000c060000740400000c0600000c06000037
:100318000c0600000c0600000c0600000c0600008d
:100328000c0600000c0600000c0600000c0600007d
:100338000c0600000c0600000c0600000c0600006d
:100348000c060000780400000c0600000c060000f3
:100358000c0600000c0600000c0600000c0600004d
:100368000c0600000c0600000c0600000c0600003d
:100378000c0600000c0600000c0600000c0600002d
:100388000c0600000c0600000c0600000c0600001d
:100398000c0600000c0600000c0600000c0600000d
:1003a8000c0600000c0600000c0600000c060000fd
:1003b8000c0600000c0600000c0600000c060000ed
:1003c8000c0600000c0600000c0600000c060000dd
:1003d8000c0600000c0600000c0600000c060000cd
:1003e8000c0600000c0600000c0600000c060000bd
:0803f8000c0600000c060000d9
:020000040000fa
:10077400889fbe006044b8000888be002800980026
:1007840039009800ef80600008ff2f001004640017
:10079400010474000241e900610161004411dd00bb
:1007a4000840a10002047400e3816100c519dd0062
:1007b400f1f92f0001046400030874001400980088
:1007c4002600980065409800774098004f04be00ca
:1007d400000006000e00fa00889fbe008a1f780001
:1007e40080447800020578000004eb00c8bf9f0035
:1007f400e8b79f00f8b79f0088bf9f0098bf9f008d
:10080400a8bf9f00b8bf9f0010002000e0b79f0062
:100814006fb197000288b9006101b80000a02500fb
:10082400212620003dff07000000e900c0bf9f0013
:100834008981fb008301e9004fb897000000400064
:1008440001002000c219dd008285200002814100e0
:100854000089be00028520008281410060001000f2
:10086400e08018008089be00f8b79f0000002a00cd
:1008740080bf9f009abf9f0020002000a0bf9f0060
:1008840090f02f00b0bf9f00e1cf540009003a0060
:100894002fba97009fb997000fb99700ffb0970040
:1008a4004fb897003cff07003fb8970040ff070090
:1008b400080037002fba97009fb997000fb9970027
:1008c400ffb097004fb8970062ff07003fb897004a
:1008d40066ff07004f0578004f04be000080fa0051
:1008e400000006008b20a900004006008d20a9000e
:1008f40000400600881f7800000478000202be0051
:10090400900078004208de006403600080852000c7
:10091400000043001001be00820f5200838f5a0072
:1009240001003c000401be00ef8060000118a30038
:100934004300320000852000000043001003be0085
:10094400860f5100878f5900010035000203be0055
:10095400e1806000e00f5300e08f5b001d003d006c
:10096400a802900068409000180290000100e00086
:100974000b0032008081fb00120020000310dd0018
:100984000080ea008180ea00140a60007840900048
:100994000080fb000011dd00950a71000a00370099
:1009a4000080fb00130020000018dd00140a700012
:1009b400784190000281fb000218dd000080ea000b
:1009c4008180ea00950a600060031300e0831b0045
:1009d40020003700a80290006840900018029000a0
:1009e4000100e0000b0032000080fb001300200037
:1009f4000018dd00140a7000784190000281fb00a9
:100a04000218dd000080ea008180ea00950a600097
:100a1400100037008081fb00120020000310dd006d
:100a24000080ea008180ea00140a600078409000a7
:100a34000080fb000011dd00950a710005003700fd
:100a44006033b800e00f5100e08f59000100350019
:100a54000203be0018007800f000600006003a00af
:100a64004500de00630060000141780086007800e4
:100a740029ff0700030037008040eb0006007800e0
:100a840031ff07004f04780000000600889fbe0075
:100a9400800478000004eb000400370000c429003f
:100aa40001002000490007000804e800890f5400f1
:100ab400faff3a004f04be00000006000800fa00e6
:100ac40025000700c9c2a900c9e2a9008043eb00c0
:100ad4000003eb00864278000602780013c0b300de
:100ae40003417800864078006880570020ff0700a3
:100af400a2a6200003002000688057007dff0700a5
:100b0400f2ef200081a9230010c0b30031ff0700d9
:100b14006011b8006880570076ff07008038210014
:100b2400daff0700424d21000300200068805700cf
:100b340070ff070080382100d4ff070002fa20006c
:100b440003002000688057006aff070080382100f6
:100b5400ceff0700ffff3700e0012000303a880095
:100b6400f0c3b3004467b60000ceb3004467b600d8
:100b740032002000a10920008007200033742000e7
:100b84008049780081497800824978001200200069
:100b9400710520006004200023742000804978003f
:100ba400814978008249780043c7bf000047b200fa
:100bb40001c3b300814f5000fbff3a0042c7bf009e
:100bc4000058a300fdff320000000600f03fb10012
:100bd4000180b10006003500ee03090000000000aa
:100be400403fb1000180b100fbff3d001000b000a8
:100bf400203fb00002003500008009000000000022
:040c040000000600e6
:020000040000fa
:100c08005008000010000000000000000000000074
:020000040000fa
:040c18000000fe00da
:00000001FF
